{
  "_format": "hh-sol-artifact-1",
  "contractName": "SokratNFT",
  "sourceName": "contracts/SokratNFTMarket.sol",
  "abi": [
    {
      "inputs": [],
      "stateMutability": "nonpayable",
      "type": "constructor"
    },
    {
      "anonymous": false,
      "inputs": [
        {
          "indexed": true,
          "internalType": "address",
          "name": "owner",
          "type": "address"
        },
        {
          "indexed": true,
          "internalType": "address",
          "name": "approved",
          "type": "address"
        },
        {
          "indexed": true,
          "internalType": "uint256",
          "name": "tokenId",
          "type": "uint256"
        }
      ],
      "name": "Approval",
      "type": "event"
    },
    {
      "anonymous": false,
      "inputs": [
        {
          "indexed": true,
          "internalType": "address",
          "name": "owner",
          "type": "address"
        },
        {
          "indexed": true,
          "internalType": "address",
          "name": "operator",
          "type": "address"
        },
        {
          "indexed": false,
          "internalType": "bool",
          "name": "approved",
          "type": "bool"
        }
      ],
      "name": "ApprovalForAll",
      "type": "event"
    },
    {
      "anonymous": false,
      "inputs": [
        {
          "indexed": false,
          "internalType": "uint256",
          "name": "_fromTokenId",
          "type": "uint256"
        },
        {
          "indexed": false,
          "internalType": "uint256",
          "name": "_toTokenId",
          "type": "uint256"
        }
      ],
      "name": "BatchMetadataUpdate",
      "type": "event"
    },
    {
      "anonymous": false,
      "inputs": [
        {
          "indexed": false,
          "internalType": "uint256",
          "name": "_tokenId",
          "type": "uint256"
        }
      ],
      "name": "MetadataUpdate",
      "type": "event"
    },
    {
      "anonymous": false,
      "inputs": [
        {
          "indexed": true,
          "internalType": "address",
          "name": "from",
          "type": "address"
        },
        {
          "indexed": true,
          "internalType": "address",
          "name": "to",
          "type": "address"
        },
        {
          "indexed": true,
          "internalType": "uint256",
          "name": "tokenId",
          "type": "uint256"
        }
      ],
      "name": "Transfer",
      "type": "event"
    },
    {
      "anonymous": false,
      "inputs": [
        {
          "indexed": true,
          "internalType": "uint256",
          "name": "tokenId",
          "type": "uint256"
        },
        {
          "indexed": false,
          "internalType": "address",
          "name": "seller",
          "type": "address"
        },
        {
          "indexed": false,
          "internalType": "address",
          "name": "owner",
          "type": "address"
        },
        {
          "indexed": false,
          "internalType": "uint256",
          "name": "price",
          "type": "uint256"
        },
        {
          "indexed": false,
          "internalType": "bool",
          "name": "sold",
          "type": "bool"
        },
        {
          "indexed": false,
          "internalType": "bool",
          "name": "locked",
          "type": "bool"
        }
      ],
      "name": "idMarketItemCreated",
      "type": "event"
    },
    {
      "inputs": [
        {
          "internalType": "address",
          "name": "to",
          "type": "address"
        },
        {
          "internalType": "uint256",
          "name": "tokenId",
          "type": "uint256"
        }
      ],
      "name": "approve",
      "outputs": [],
      "stateMutability": "nonpayable",
      "type": "function"
    },
    {
      "inputs": [
        {
          "internalType": "address",
          "name": "owner",
          "type": "address"
        }
      ],
      "name": "balanceOf",
      "outputs": [
        {
          "internalType": "uint256",
          "name": "",
          "type": "uint256"
        }
      ],
      "stateMutability": "view",
      "type": "function"
    },
    {
      "inputs": [
        {
          "internalType": "uint256",
          "name": "tokenId",
          "type": "uint256"
        }
      ],
      "name": "createMarketSale",
      "outputs": [],
      "stateMutability": "payable",
      "type": "function"
    },
    {
      "inputs": [
        {
          "internalType": "string",
          "name": "tokenURI",
          "type": "string"
        },
        {
          "internalType": "uint256",
          "name": "price",
          "type": "uint256"
        }
      ],
      "name": "createToken",
      "outputs": [
        {
          "internalType": "uint256",
          "name": "",
          "type": "uint256"
        }
      ],
      "stateMutability": "payable",
      "type": "function"
    },
    {
      "inputs": [],
      "name": "fetchItemsListed",
      "outputs": [
        {
          "components": [
            {
              "internalType": "uint256",
              "name": "tokenId",
              "type": "uint256"
            },
            {
              "internalType": "address payable",
              "name": "seller",
              "type": "address"
            },
            {
              "internalType": "address payable",
              "name": "owner",
              "type": "address"
            },
            {
              "internalType": "uint256",
              "name": "price",
              "type": "uint256"
            },
            {
              "internalType": "bool",
              "name": "sold",
              "type": "bool"
            },
            {
              "internalType": "bool",
              "name": "locked",
              "type": "bool"
            }
          ],
          "internalType": "struct SokratNFT.MarketItem[]",
          "name": "",
          "type": "tuple[]"
        }
      ],
      "stateMutability": "view",
      "type": "function"
    },
    {
      "inputs": [],
      "name": "fetchMarketItem",
      "outputs": [
        {
          "components": [
            {
              "internalType": "uint256",
              "name": "tokenId",
              "type": "uint256"
            },
            {
              "internalType": "address payable",
              "name": "seller",
              "type": "address"
            },
            {
              "internalType": "address payable",
              "name": "owner",
              "type": "address"
            },
            {
              "internalType": "uint256",
              "name": "price",
              "type": "uint256"
            },
            {
              "internalType": "bool",
              "name": "sold",
              "type": "bool"
            },
            {
              "internalType": "bool",
              "name": "locked",
              "type": "bool"
            }
          ],
          "internalType": "struct SokratNFT.MarketItem[]",
          "name": "",
          "type": "tuple[]"
        }
      ],
      "stateMutability": "view",
      "type": "function"
    },
    {
      "inputs": [],
      "name": "fetchMyNFT",
      "outputs": [
        {
          "components": [
            {
              "internalType": "uint256",
              "name": "tokenId",
              "type": "uint256"
            },
            {
              "internalType": "address payable",
              "name": "seller",
              "type": "address"
            },
            {
              "internalType": "address payable",
              "name": "owner",
              "type": "address"
            },
            {
              "internalType": "uint256",
              "name": "price",
              "type": "uint256"
            },
            {
              "internalType": "bool",
              "name": "sold",
              "type": "bool"
            },
            {
              "internalType": "bool",
              "name": "locked",
              "type": "bool"
            }
          ],
          "internalType": "struct SokratNFT.MarketItem[]",
          "name": "",
          "type": "tuple[]"
        }
      ],
      "stateMutability": "view",
      "type": "function"
    },
    {
      "inputs": [
        {
          "internalType": "uint256",
          "name": "tokenId",
          "type": "uint256"
        }
      ],
      "name": "getApproved",
      "outputs": [
        {
          "internalType": "address",
          "name": "",
          "type": "address"
        }
      ],
      "stateMutability": "view",
      "type": "function"
    },
    {
      "inputs": [],
      "name": "getListingPrice",
      "outputs": [
        {
          "internalType": "uint256",
          "name": "",
          "type": "uint256"
        }
      ],
      "stateMutability": "view",
      "type": "function"
    },
    {
      "inputs": [
        {
          "internalType": "address",
          "name": "owner",
          "type": "address"
        },
        {
          "internalType": "address",
          "name": "operator",
          "type": "address"
        }
      ],
      "name": "isApprovedForAll",
      "outputs": [
        {
          "internalType": "bool",
          "name": "",
          "type": "bool"
        }
      ],
      "stateMutability": "view",
      "type": "function"
    },
    {
      "inputs": [
        {
          "internalType": "uint256",
          "name": "tokenId",
          "type": "uint256"
        }
      ],
      "name": "lockNFT",
      "outputs": [
        {
          "internalType": "bool",
          "name": "",
          "type": "bool"
        }
      ],
      "stateMutability": "payable",
      "type": "function"
    },
    {
      "inputs": [],
      "name": "name",
      "outputs": [
        {
          "internalType": "string",
          "name": "",
          "type": "string"
        }
      ],
      "stateMutability": "view",
      "type": "function"
    },
    {
      "inputs": [
        {
          "internalType": "uint256",
          "name": "tokenId",
          "type": "uint256"
        }
      ],
      "name": "ownerOf",
      "outputs": [
        {
          "internalType": "address",
          "name": "",
          "type": "address"
        }
      ],
      "stateMutability": "view",
      "type": "function"
    },
    {
      "inputs": [
        {
          "internalType": "uint256",
          "name": "tokenId",
          "type": "uint256"
        },
        {
          "internalType": "uint256",
          "name": "price",
          "type": "uint256"
        }
      ],
      "name": "reSellToken",
      "outputs": [],
      "stateMutability": "payable",
      "type": "function"
    },
    {
      "inputs": [
        {
          "internalType": "address",
          "name": "from",
          "type": "address"
        },
        {
          "internalType": "address",
          "name": "to",
          "type": "address"
        },
        {
          "internalType": "uint256",
          "name": "tokenId",
          "type": "uint256"
        }
      ],
      "name": "safeTransferFrom",
      "outputs": [],
      "stateMutability": "nonpayable",
      "type": "function"
    },
    {
      "inputs": [
        {
          "internalType": "address",
          "name": "from",
          "type": "address"
        },
        {
          "internalType": "address",
          "name": "to",
          "type": "address"
        },
        {
          "internalType": "uint256",
          "name": "tokenId",
          "type": "uint256"
        },
        {
          "internalType": "bytes",
          "name": "data",
          "type": "bytes"
        }
      ],
      "name": "safeTransferFrom",
      "outputs": [],
      "stateMutability": "nonpayable",
      "type": "function"
    },
    {
      "inputs": [
        {
          "internalType": "address",
          "name": "operator",
          "type": "address"
        },
        {
          "internalType": "bool",
          "name": "approved",
          "type": "bool"
        }
      ],
      "name": "setApprovalForAll",
      "outputs": [],
      "stateMutability": "nonpayable",
      "type": "function"
    },
    {
      "inputs": [
        {
          "internalType": "bytes4",
          "name": "interfaceId",
          "type": "bytes4"
        }
      ],
      "name": "supportsInterface",
      "outputs": [
        {
          "internalType": "bool",
          "name": "",
          "type": "bool"
        }
      ],
      "stateMutability": "view",
      "type": "function"
    },
    {
      "inputs": [],
      "name": "symbol",
      "outputs": [
        {
          "internalType": "string",
          "name": "",
          "type": "string"
        }
      ],
      "stateMutability": "view",
      "type": "function"
    },
    {
      "inputs": [
        {
          "internalType": "uint256",
          "name": "tokenId",
          "type": "uint256"
        }
      ],
      "name": "tokenURI",
      "outputs": [
        {
          "internalType": "string",
          "name": "",
          "type": "string"
        }
      ],
      "stateMutability": "view",
      "type": "function"
    },
    {
      "inputs": [
        {
          "internalType": "address",
          "name": "from",
          "type": "address"
        },
        {
          "internalType": "address",
          "name": "to",
          "type": "address"
        },
        {
          "internalType": "uint256",
          "name": "tokenId",
          "type": "uint256"
        }
      ],
      "name": "transferFrom",
      "outputs": [],
      "stateMutability": "nonpayable",
      "type": "function"
    },
    {
      "inputs": [
        {
          "internalType": "uint256",
          "name": "_listingPrice",
          "type": "uint256"
        }
      ],
      "name": "updateListingPrice",
      "outputs": [],
      "stateMutability": "payable",
      "type": "function"
    }
  ],
  "bytecode": "0x60806040526608e1bc9bf04000600a553480156200001c57600080fd5b506040518060400160405280601181526020017f536f6b726174204e4654204d61726b65740000000000000000000000000000008152506040518060400160405280600481526020017f534e46540000000000000000000000000000000000000000000000000000000081525081600090816200009a919062000355565b508060019081620000ac919062000355565b5050503373ffffffffffffffffffffffffffffffffffffffff16600960009054906101000a905050506200043c565b600081519050919050565b7f4e487b7100000000000000000000000000000000000000000000000000000000600052604160045260246000fd5b7f4e487b7100000000000000000000000000000000000000000000000000000000600052602260045260246000fd5b600060028204905060018216806200015d57607f821691505b60208210810362000173576200017262000115565b5b50919050565b60008190508160005260206000209050919050565b60006020601f8301049050919050565b600082821b905092915050565b600060088302620001dd7fffffffffffffffffffffffffffffffffffffffffffffffffffffffffffffffff826200019e565b620001e986836200019e565b95508019841693508086168417925050509392505050565b6000819050919050565b6000819050919050565b600062000236620002306200022a8462000201565b6200020b565b62000201565b9050919050565b6000819050919050565b620002528362000215565b6200026a62000261826200023d565b848454620001ab565b825550505050565b600090565b6200028162000272565b6200028e81848462000247565b505050565b5b81811015620002b657620002aa60008262000277565b60018101905062000294565b5050565b601f8211156200030557620002cf8162000179565b620002da846200018e565b81016020851015620002ea578190505b62000302620002f9856200018e565b83018262000293565b50505b505050565b600082821c905092915050565b60006200032a600019846008026200030a565b1980831691505092915050565b600062000345838362000317565b9150826002028217905092915050565b6200036082620000db565b67ffffffffffffffff8111156200037c576200037b620000e6565b5b62000388825462000144565b62000395828285620002ba565b600060209050601f831160018114620003cd5760008415620003b8578287015190505b620003c4858262000337565b86555062000434565b601f198416620003dd8662000179565b60005b828110156200040757848901518255600182019150602085019450602081019050620003e0565b8683101562000427578489015162000423601f89168262000317565b8355505b6001600288020188555050505b505050505050565b614407806200044c6000396000f3fe6080604052600436106101355760003560e01c806372b3b620116100ab578063ae677aa31161006f578063ae677aa314610425578063b88d4fde14610441578063be9af5361461046a578063c18763f714610486578063c87b56dd146104b1578063e985e9c5146104ee57610135565b806372b3b6201461035a57806385535b251461038a5780638fafd021146103a657806395d89b41146103d1578063a22cb465146103fc57610135565b806323b872dd116100fd57806323b872dd146102335780632b7170d01461025c57806342842e0e1461028c57806345f8fa80146102b55780636352211e146102e057806370a082311461031d57610135565b806301ffc9a71461013a57806306fdde0314610177578063081812fc146101a2578063095ea7b3146101df57806312e8558514610208575b600080fd5b34801561014657600080fd5b50610161600480360381019061015c9190612caa565b61052b565b60405161016e9190612cf2565b60405180910390f35b34801561018357600080fd5b5061018c61058c565b6040516101999190612d9d565b60405180910390f35b3480156101ae57600080fd5b506101c960048036038101906101c49190612df5565b61061e565b6040516101d69190612e63565b60405180910390f35b3480156101eb57600080fd5b5061020660048036038101906102019190612eaa565b610664565b005b34801561021457600080fd5b5061021d61077b565b60405161022a9190612ef9565b60405180910390f35b34801561023f57600080fd5b5061025a60048036038101906102559190612f14565b610785565b005b61027660048036038101906102719190612df5565b6107e5565b6040516102839190612cf2565b60405180910390f35b34801561029857600080fd5b506102b360048036038101906102ae9190612f14565b610845565b005b3480156102c157600080fd5b506102ca610865565b6040516102d791906130d0565b60405180910390f35b3480156102ec57600080fd5b5061030760048036038101906103029190612df5565b610b6a565b6040516103149190612e63565b60405180910390f35b34801561032957600080fd5b50610344600480360381019061033f91906130f2565b610bf0565b6040516103519190612ef9565b60405180910390f35b610374600480360381019061036f9190613254565b610ca7565b6040516103819190612ef9565b60405180910390f35b6103a4600480360381019061039f91906132b0565b610ce9565b005b3480156103b257600080fd5b506103bb610ede565b6040516103c891906130d0565b60405180910390f35b3480156103dd57600080fd5b506103e6611160565b6040516103f39190612d9d565b60405180910390f35b34801561040857600080fd5b50610423600480360381019061041e919061331c565b6111f2565b005b61043f600480360381019061043a9190612df5565b611208565b005b34801561044d57600080fd5b50610468600480360381019061046391906133fd565b6112a2565b005b610484600480360381019061047f9190612df5565b611304565b005b34801561049257600080fd5b5061049b61153c565b6040516104a891906130d0565b60405180910390f35b3480156104bd57600080fd5b506104d860048036038101906104d39190612df5565b611841565b6040516104e59190612d9d565b60405180910390f35b3480156104fa57600080fd5b5061051560048036038101906105109190613480565b611953565b6040516105229190612cf2565b60405180910390f35b6000634906490660e01b7bffffffffffffffffffffffffffffffffffffffffffffffffffffffff1916827bffffffffffffffffffffffffffffffffffffffffffffffffffffffff191614806105855750610584826119e7565b5b9050919050565b60606000805461059b906134ef565b80601f01602080910402602001604051908101604052809291908181526020018280546105c7906134ef565b80156106145780601f106105e957610100808354040283529160200191610614565b820191906000526020600020905b8154815290600101906020018083116105f757829003601f168201915b5050505050905090565b600061062982611ac9565b6004600083815260200190815260200160002060009054906101000a900473ffffffffffffffffffffffffffffffffffffffff169050919050565b600061066f82610b6a565b90508073ffffffffffffffffffffffffffffffffffffffff168373ffffffffffffffffffffffffffffffffffffffff16036106df576040517f08c379a00000000000000000000000000000000000000000000000000000000081526004016106d690613592565b60405180910390fd5b8073ffffffffffffffffffffffffffffffffffffffff166106fe611b14565b73ffffffffffffffffffffffffffffffffffffffff16148061072d575061072c81610727611b14565b611953565b5b61076c576040517f08c379a000000000000000000000000000000000000000000000000000000000815260040161076390613624565b60405180910390fd5b6107768383611b1c565b505050565b6000600a54905090565b610796610790611b14565b82611bd5565b6107d5576040517f08c379a00000000000000000000000000000000000000000000000000000000081526004016107cc906136b6565b60405180910390fd5b6107e0838383611c6a565b505050565b600080600b600084815260200190815260200160002090508060040160019054906101000a900460ff16158160040160016101000a81548160ff0219169083151502179055508060040160019054906101000a900460ff16915050919050565b610860838383604051806020016040528060008152506112a2565b505050565b606060006108736007611f63565b905060008060005b8381101561091a573373ffffffffffffffffffffffffffffffffffffffff16600b60006001846108ab9190613705565b815260200190815260200160002060010160009054906101000a900473ffffffffffffffffffffffffffffffffffffffff1673ffffffffffffffffffffffffffffffffffffffff160361090757828061090390613739565b9350505b808061091290613739565b91505061087b565b5060008267ffffffffffffffff81111561093757610936613129565b5b60405190808252806020026020018201604052801561097057816020015b61095d612bd8565b8152602001906001900390816109555790505b50905060005b84811015610b5f573373ffffffffffffffffffffffffffffffffffffffff16600b60006001846109a69190613705565b815260200190815260200160002060010160009054906101000a900473ffffffffffffffffffffffffffffffffffffffff1673ffffffffffffffffffffffffffffffffffffffff1603610b4c576000600182610a029190613705565b90506000600b60008381526020019081526020016000209050806040518060c0016040529081600082015481526020016001820160009054906101000a900473ffffffffffffffffffffffffffffffffffffffff1673ffffffffffffffffffffffffffffffffffffffff1673ffffffffffffffffffffffffffffffffffffffff1681526020016002820160009054906101000a900473ffffffffffffffffffffffffffffffffffffffff1673ffffffffffffffffffffffffffffffffffffffff1673ffffffffffffffffffffffffffffffffffffffff168152602001600382015481526020016004820160009054906101000a900460ff161515151581526020016004820160019054906101000a900460ff161515151581525050848681518110610b3057610b2f613781565b5b60200260200101819052508480610b4690613739565b95505050505b8080610b5790613739565b915050610976565b508094505050505090565b600080610b7683611f71565b9050600073ffffffffffffffffffffffffffffffffffffffff168173ffffffffffffffffffffffffffffffffffffffff1603610be7576040517f08c379a0000000000000000000000000000000000000000000000000000000008152600401610bde906137fc565b60405180910390fd5b80915050919050565b60008073ffffffffffffffffffffffffffffffffffffffff168273ffffffffffffffffffffffffffffffffffffffff1603610c60576040517f08c379a0000000000000000000000000000000000000000000000000000000008152600401610c579061388e565b60405180910390fd5b600360008373ffffffffffffffffffffffffffffffffffffffff1673ffffffffffffffffffffffffffffffffffffffff168152602001908152602001600020549050919050565b6000610cb36007611fae565b6000610cbf6007611f63565b9050610ccb3382611fc4565b610cd581856121e1565b610cdf8184612285565b8091505092915050565b3373ffffffffffffffffffffffffffffffffffffffff16600b600084815260200190815260200160002060020160009054906101000a900473ffffffffffffffffffffffffffffffffffffffff1673ffffffffffffffffffffffffffffffffffffffff1614610d8d576040517f08c379a0000000000000000000000000000000000000000000000000000000008152600401610d84906138fa565b60405180910390fd5b600a543414610dd1576040517f08c379a0000000000000000000000000000000000000000000000000000000008152600401610dc89061398c565b60405180910390fd5b6000600b600084815260200190815260200160002060040160006101000a81548160ff02191690831515021790555080600b60008481526020019081526020016000206003018190555033600b600084815260200190815260200160002060010160006101000a81548173ffffffffffffffffffffffffffffffffffffffff021916908373ffffffffffffffffffffffffffffffffffffffff16021790555030600b600084815260200190815260200160002060020160006101000a81548173ffffffffffffffffffffffffffffffffffffffff021916908373ffffffffffffffffffffffffffffffffffffffff160217905550610ecf60086124b3565b610eda333084611c6a565b5050565b60606000610eec6007611f63565b90506000610efa6008611f63565b610f046007611f63565b610f0e91906139ac565b90506000808267ffffffffffffffff811115610f2d57610f2c613129565b5b604051908082528060200260200182016040528015610f6657816020015b610f53612bd8565b815260200190600190039081610f4b5790505b50905060005b84811015611155573073ffffffffffffffffffffffffffffffffffffffff16600b6000600184610f9c9190613705565b815260200190815260200160002060020160009054906101000a900473ffffffffffffffffffffffffffffffffffffffff1673ffffffffffffffffffffffffffffffffffffffff1603611142576000600182610ff89190613705565b90506000600b60008381526020019081526020016000209050806040518060c0016040529081600082015481526020016001820160009054906101000a900473ffffffffffffffffffffffffffffffffffffffff1673ffffffffffffffffffffffffffffffffffffffff1673ffffffffffffffffffffffffffffffffffffffff1681526020016002820160009054906101000a900473ffffffffffffffffffffffffffffffffffffffff1673ffffffffffffffffffffffffffffffffffffffff1673ffffffffffffffffffffffffffffffffffffffff168152602001600382015481526020016004820160009054906101000a900460ff161515151581526020016004820160019054906101000a900460ff16151515158152505084868151811061112657611125613781565b5b6020026020010181905250848061113c90613739565b95505050505b808061114d90613739565b915050610f6c565b508094505050505090565b60606001805461116f906134ef565b80601f016020809104026020016040519081016040528092919081815260200182805461119b906134ef565b80156111e85780601f106111bd576101008083540402835291602001916111e8565b820191906000526020600020905b8154815290600101906020018083116111cb57829003601f168201915b5050505050905090565b6112046111fd611b14565b838361250f565b5050565b600960009054906101000a900473ffffffffffffffffffffffffffffffffffffffff1673ffffffffffffffffffffffffffffffffffffffff163373ffffffffffffffffffffffffffffffffffffffff1614611298576040517f08c379a000000000000000000000000000000000000000000000000000000000815260040161128f90613a52565b60405180910390fd5b80600a8190555050565b6112b36112ad611b14565b83611bd5565b6112f2576040517f08c379a00000000000000000000000000000000000000000000000000000000081526004016112e9906136b6565b60405180910390fd5b6112fe8484848461267b565b50505050565b6000600b6000838152602001908152602001600020600301549050803414611361576040517f08c379a000000000000000000000000000000000000000000000000000000000815260040161135890613ae4565b60405180910390fd5b33600b600084815260200190815260200160002060020160006101000a81548173ffffffffffffffffffffffffffffffffffffffff021916908373ffffffffffffffffffffffffffffffffffffffff1602179055506001600b600084815260200190815260200160002060040160006101000a81548160ff0219169083151502179055506000600b600084815260200190815260200160002060020160006101000a81548173ffffffffffffffffffffffffffffffffffffffff021916908373ffffffffffffffffffffffffffffffffffffffff1602179055506114456008611fae565b611450303384611c6a565b600960009054906101000a900473ffffffffffffffffffffffffffffffffffffffff1673ffffffffffffffffffffffffffffffffffffffff166108fc600a549081150290604051600060405180830381858888f193505050501580156114ba573d6000803e3d6000fd5b50600b600083815260200190815260200160002060010160009054906101000a900473ffffffffffffffffffffffffffffffffffffffff1673ffffffffffffffffffffffffffffffffffffffff166108fc349081150290604051600060405180830381858888f19350505050158015611537573d6000803e3d6000fd5b505050565b6060600061154a6007611f63565b905060008060005b838110156115f1573373ffffffffffffffffffffffffffffffffffffffff16600b60006001846115829190613705565b815260200190815260200160002060020160009054906101000a900473ffffffffffffffffffffffffffffffffffffffff1673ffffffffffffffffffffffffffffffffffffffff16036115de5782806115da90613739565b9350505b80806115e990613739565b915050611552565b5060008267ffffffffffffffff81111561160e5761160d613129565b5b60405190808252806020026020018201604052801561164757816020015b611634612bd8565b81526020019060019003908161162c5790505b50905060005b84811015611836573373ffffffffffffffffffffffffffffffffffffffff16600b600060018461167d9190613705565b815260200190815260200160002060020160009054906101000a900473ffffffffffffffffffffffffffffffffffffffff1673ffffffffffffffffffffffffffffffffffffffff16036118235760006001826116d99190613705565b90506000600b60008381526020019081526020016000209050806040518060c0016040529081600082015481526020016001820160009054906101000a900473ffffffffffffffffffffffffffffffffffffffff1673ffffffffffffffffffffffffffffffffffffffff1673ffffffffffffffffffffffffffffffffffffffff1681526020016002820160009054906101000a900473ffffffffffffffffffffffffffffffffffffffff1673ffffffffffffffffffffffffffffffffffffffff1673ffffffffffffffffffffffffffffffffffffffff168152602001600382015481526020016004820160009054906101000a900460ff161515151581526020016004820160019054906101000a900460ff16151515158152505084868151811061180757611806613781565b5b6020026020010181905250848061181d90613739565b95505050505b808061182e90613739565b91505061164d565b508094505050505090565b606061184c82611ac9565b600060066000848152602001908152602001600020805461186c906134ef565b80601f0160208091040260200160405190810160405280929190818152602001828054611898906134ef565b80156118e55780601f106118ba576101008083540402835291602001916118e5565b820191906000526020600020905b8154815290600101906020018083116118c857829003601f168201915b5050505050905060006118f66126d7565b9050600081510361190b57819250505061194e565b600082511115611940578082604051602001611928929190613b40565b6040516020818303038152906040529250505061194e565b611949846126ee565b925050505b919050565b6000600560008473ffffffffffffffffffffffffffffffffffffffff1673ffffffffffffffffffffffffffffffffffffffff16815260200190815260200160002060008373ffffffffffffffffffffffffffffffffffffffff1673ffffffffffffffffffffffffffffffffffffffff16815260200190815260200160002060009054906101000a900460ff16905092915050565b60007f80ac58cd000000000000000000000000000000000000000000000000000000007bffffffffffffffffffffffffffffffffffffffffffffffffffffffff1916827bffffffffffffffffffffffffffffffffffffffffffffffffffffffff19161480611ab257507f5b5e139f000000000000000000000000000000000000000000000000000000007bffffffffffffffffffffffffffffffffffffffffffffffffffffffff1916827bffffffffffffffffffffffffffffffffffffffffffffffffffffffff1916145b80611ac25750611ac182612756565b5b9050919050565b611ad2816127c0565b611b11576040517f08c379a0000000000000000000000000000000000000000000000000000000008152600401611b08906137fc565b60405180910390fd5b50565b600033905090565b816004600083815260200190815260200160002060006101000a81548173ffffffffffffffffffffffffffffffffffffffff021916908373ffffffffffffffffffffffffffffffffffffffff160217905550808273ffffffffffffffffffffffffffffffffffffffff16611b8f83610b6a565b73ffffffffffffffffffffffffffffffffffffffff167f8c5be1e5ebec7d5bd14f71427d1e84f3dd0314c0f7b2291e5b200ac8c7c3b92560405160405180910390a45050565b600080611be183610b6a565b90508073ffffffffffffffffffffffffffffffffffffffff168473ffffffffffffffffffffffffffffffffffffffff161480611c235750611c228185611953565b5b80611c6157508373ffffffffffffffffffffffffffffffffffffffff16611c498461061e565b73ffffffffffffffffffffffffffffffffffffffff16145b91505092915050565b8273ffffffffffffffffffffffffffffffffffffffff16611c8a82610b6a565b73ffffffffffffffffffffffffffffffffffffffff1614611ce0576040517f08c379a0000000000000000000000000000000000000000000000000000000008152600401611cd790613bd6565b60405180910390fd5b600073ffffffffffffffffffffffffffffffffffffffff168273ffffffffffffffffffffffffffffffffffffffff1603611d4f576040517f08c379a0000000000000000000000000000000000000000000000000000000008152600401611d4690613c68565b60405180910390fd5b611d5c8383836001612801565b8273ffffffffffffffffffffffffffffffffffffffff16611d7c82610b6a565b73ffffffffffffffffffffffffffffffffffffffff1614611dd2576040517f08c379a0000000000000000000000000000000000000000000000000000000008152600401611dc990613bd6565b60405180910390fd5b6004600082815260200190815260200160002060006101000a81549073ffffffffffffffffffffffffffffffffffffffff02191690556001600360008573ffffffffffffffffffffffffffffffffffffffff1673ffffffffffffffffffffffffffffffffffffffff168152602001908152602001600020600082825403925050819055506001600360008473ffffffffffffffffffffffffffffffffffffffff1673ffffffffffffffffffffffffffffffffffffffff16815260200190815260200160002060008282540192505081905550816002600083815260200190815260200160002060006101000a81548173ffffffffffffffffffffffffffffffffffffffff021916908373ffffffffffffffffffffffffffffffffffffffff160217905550808273ffffffffffffffffffffffffffffffffffffffff168473ffffffffffffffffffffffffffffffffffffffff167fddf252ad1be2c89b69c2b068fc378daa952ba7f163c4a11628f55a4df523b3ef60405160405180910390a4611f5e8383836001612807565b505050565b600081600001549050919050565b60006002600083815260200190815260200160002060009054906101000a900473ffffffffffffffffffffffffffffffffffffffff169050919050565b6001816000016000828254019250508190555050565b600073ffffffffffffffffffffffffffffffffffffffff168273ffffffffffffffffffffffffffffffffffffffff1603612033576040517f08c379a000000000000000000000000000000000000000000000000000000000815260040161202a90613cd4565b60405180910390fd5b61203c816127c0565b1561207c576040517f08c379a000000000000000000000000000000000000000000000000000000000815260040161207390613d40565b60405180910390fd5b61208a600083836001612801565b612093816127c0565b156120d3576040517f08c379a00000000000000000000000000000000000000000000000000000000081526004016120ca90613d40565b60405180910390fd5b6001600360008473ffffffffffffffffffffffffffffffffffffffff1673ffffffffffffffffffffffffffffffffffffffff16815260200190815260200160002060008282540192505081905550816002600083815260200190815260200160002060006101000a81548173ffffffffffffffffffffffffffffffffffffffff021916908373ffffffffffffffffffffffffffffffffffffffff160217905550808273ffffffffffffffffffffffffffffffffffffffff16600073ffffffffffffffffffffffffffffffffffffffff167fddf252ad1be2c89b69c2b068fc378daa952ba7f163c4a11628f55a4df523b3ef60405160405180910390a46121dd600083836001612807565b5050565b6121ea826127c0565b612229576040517f08c379a000000000000000000000000000000000000000000000000000000000815260040161222090613dd2565b60405180910390fd5b806006600084815260200190815260200160002090816122499190613f9e565b507ff8e1a15aba9398e019f0b49df1a4fde98ee17ae345cb5f6b5e2c27f5033e8ce7826040516122799190612ef9565b60405180910390a15050565b600081116122c8576040517f08c379a00000000000000000000000000000000000000000000000000000000081526004016122bf906140e2565b60405180910390fd5b600a54341461230c576040517f08c379a00000000000000000000000000000000000000000000000000000000081526004016123039061398c565b60405180910390fd5b6040518060c001604052808381526020013373ffffffffffffffffffffffffffffffffffffffff1681526020013073ffffffffffffffffffffffffffffffffffffffff16815260200182815260200160001515815260200160001515815250600b60008481526020019081526020016000206000820151816000015560208201518160010160006101000a81548173ffffffffffffffffffffffffffffffffffffffff021916908373ffffffffffffffffffffffffffffffffffffffff16021790555060408201518160020160006101000a81548173ffffffffffffffffffffffffffffffffffffffff021916908373ffffffffffffffffffffffffffffffffffffffff1602179055506060820151816003015560808201518160040160006101000a81548160ff02191690831515021790555060a08201518160040160016101000a81548160ff02191690831515021790555090505061246e333084611c6a565b817fb2fc2d1f388393c994222ac1b2a35b6dc387406c3dc184b956478ccec77f30303330846000806040516124a7959493929190614102565b60405180910390a25050565b600081600001549050600081116124ff576040517f08c379a00000000000000000000000000000000000000000000000000000000081526004016124f6906141a1565b60405180910390fd5b6001810382600001819055505050565b8173ffffffffffffffffffffffffffffffffffffffff168373ffffffffffffffffffffffffffffffffffffffff160361257d576040517f08c379a00000000000000000000000000000000000000000000000000000000081526004016125749061420d565b60405180910390fd5b80600560008573ffffffffffffffffffffffffffffffffffffffff1673ffffffffffffffffffffffffffffffffffffffff16815260200190815260200160002060008473ffffffffffffffffffffffffffffffffffffffff1673ffffffffffffffffffffffffffffffffffffffff16815260200190815260200160002060006101000a81548160ff0219169083151502179055508173ffffffffffffffffffffffffffffffffffffffff168373ffffffffffffffffffffffffffffffffffffffff167f17307eab39ab6107e8899845ad3d59bd9653f200f220920489ca2b5937696c318360405161266e9190612cf2565b60405180910390a3505050565b612686848484611c6a565b6126928484848461280d565b6126d1576040517f08c379a00000000000000000000000000000000000000000000000000000000081526004016126c89061429f565b60405180910390fd5b50505050565b606060405180602001604052806000815250905090565b60606126f982611ac9565b60006127036126d7565b90506000815111612723576040518060200160405280600081525061274e565b8061272d84612994565b60405160200161273e929190613b40565b6040516020818303038152906040525b915050919050565b60007f01ffc9a7000000000000000000000000000000000000000000000000000000007bffffffffffffffffffffffffffffffffffffffffffffffffffffffff1916827bffffffffffffffffffffffffffffffffffffffffffffffffffffffff1916149050919050565b60008073ffffffffffffffffffffffffffffffffffffffff166127e283611f71565b73ffffffffffffffffffffffffffffffffffffffff1614159050919050565b50505050565b50505050565b600061282e8473ffffffffffffffffffffffffffffffffffffffff16612a62565b15612987578373ffffffffffffffffffffffffffffffffffffffff1663150b7a02612857611b14565b8786866040518563ffffffff1660e01b81526004016128799493929190614314565b6020604051808303816000875af19250505080156128b557506040513d601f19601f820116820180604052508101906128b29190614375565b60015b612937573d80600081146128e5576040519150601f19603f3d011682016040523d82523d6000602084013e6128ea565b606091505b50600081510361292f576040517f08c379a00000000000000000000000000000000000000000000000000000000081526004016129269061429f565b60405180910390fd5b805181602001fd5b63150b7a0260e01b7bffffffffffffffffffffffffffffffffffffffffffffffffffffffff1916817bffffffffffffffffffffffffffffffffffffffffffffffffffffffff19161491505061298c565b600190505b949350505050565b6060600060016129a384612a85565b01905060008167ffffffffffffffff8111156129c2576129c1613129565b5b6040519080825280601f01601f1916602001820160405280156129f45781602001600182028036833780820191505090505b509050600082602001820190505b600115612a57578080600190039150507f3031323334353637383961626364656600000000000000000000000000000000600a86061a8153600a8581612a4b57612a4a6143a2565b5b04945060008503612a02575b819350505050919050565b6000808273ffffffffffffffffffffffffffffffffffffffff163b119050919050565b600080600090507a184f03e93ff9f4daa797ed6e38ed64bf6a1f0100000000000000008310612ae3577a184f03e93ff9f4daa797ed6e38ed64bf6a1f0100000000000000008381612ad957612ad86143a2565b5b0492506040810190505b6d04ee2d6d415b85acef81000000008310612b20576d04ee2d6d415b85acef81000000008381612b1657612b156143a2565b5b0492506020810190505b662386f26fc100008310612b4f57662386f26fc100008381612b4557612b446143a2565b5b0492506010810190505b6305f5e1008310612b78576305f5e1008381612b6e57612b6d6143a2565b5b0492506008810190505b6127108310612b9d576127108381612b9357612b926143a2565b5b0492506004810190505b60648310612bc05760648381612bb657612bb56143a2565b5b0492506002810190505b600a8310612bcf576001810190505b80915050919050565b6040518060c0016040528060008152602001600073ffffffffffffffffffffffffffffffffffffffff168152602001600073ffffffffffffffffffffffffffffffffffffffff168152602001600081526020016000151581526020016000151581525090565b6000604051905090565b600080fd5b600080fd5b60007fffffffff0000000000000000000000000000000000000000000000000000000082169050919050565b612c8781612c52565b8114612c9257600080fd5b50565b600081359050612ca481612c7e565b92915050565b600060208284031215612cc057612cbf612c48565b5b6000612cce84828501612c95565b91505092915050565b60008115159050919050565b612cec81612cd7565b82525050565b6000602082019050612d076000830184612ce3565b92915050565b600081519050919050565b600082825260208201905092915050565b60005b83811015612d47578082015181840152602081019050612d2c565b60008484015250505050565b6000601f19601f8301169050919050565b6000612d6f82612d0d565b612d798185612d18565b9350612d89818560208601612d29565b612d9281612d53565b840191505092915050565b60006020820190508181036000830152612db78184612d64565b905092915050565b6000819050919050565b612dd281612dbf565b8114612ddd57600080fd5b50565b600081359050612def81612dc9565b92915050565b600060208284031215612e0b57612e0a612c48565b5b6000612e1984828501612de0565b91505092915050565b600073ffffffffffffffffffffffffffffffffffffffff82169050919050565b6000612e4d82612e22565b9050919050565b612e5d81612e42565b82525050565b6000602082019050612e786000830184612e54565b92915050565b612e8781612e42565b8114612e9257600080fd5b50565b600081359050612ea481612e7e565b92915050565b60008060408385031215612ec157612ec0612c48565b5b6000612ecf85828601612e95565b9250506020612ee085828601612de0565b9150509250929050565b612ef381612dbf565b82525050565b6000602082019050612f0e6000830184612eea565b92915050565b600080600060608486031215612f2d57612f2c612c48565b5b6000612f3b86828701612e95565b9350506020612f4c86828701612e95565b9250506040612f5d86828701612de0565b9150509250925092565b600081519050919050565b600082825260208201905092915050565b6000819050602082019050919050565b612f9c81612dbf565b82525050565b6000612fad82612e22565b9050919050565b612fbd81612fa2565b82525050565b612fcc81612cd7565b82525050565b60c082016000820151612fe86000850182612f93565b506020820151612ffb6020850182612fb4565b50604082015161300e6040850182612fb4565b5060608201516130216060850182612f93565b5060808201516130346080850182612fc3565b5060a082015161304760a0850182612fc3565b50505050565b60006130598383612fd2565b60c08301905092915050565b6000602082019050919050565b600061307d82612f67565b6130878185612f72565b935061309283612f83565b8060005b838110156130c35781516130aa888261304d565b97506130b583613065565b925050600181019050613096565b5085935050505092915050565b600060208201905081810360008301526130ea8184613072565b905092915050565b60006020828403121561310857613107612c48565b5b600061311684828501612e95565b91505092915050565b600080fd5b600080fd5b7f4e487b7100000000000000000000000000000000000000000000000000000000600052604160045260246000fd5b61316182612d53565b810181811067ffffffffffffffff821117156131805761317f613129565b5b80604052505050565b6000613193612c3e565b905061319f8282613158565b919050565b600067ffffffffffffffff8211156131bf576131be613129565b5b6131c882612d53565b9050602081019050919050565b82818337600083830152505050565b60006131f76131f2846131a4565b613189565b90508281526020810184848401111561321357613212613124565b5b61321e8482856131d5565b509392505050565b600082601f83011261323b5761323a61311f565b5b813561324b8482602086016131e4565b91505092915050565b6000806040838503121561326b5761326a612c48565b5b600083013567ffffffffffffffff81111561328957613288612c4d565b5b61329585828601613226565b92505060206132a685828601612de0565b9150509250929050565b600080604083850312156132c7576132c6612c48565b5b60006132d585828601612de0565b92505060206132e685828601612de0565b9150509250929050565b6132f981612cd7565b811461330457600080fd5b50565b600081359050613316816132f0565b92915050565b6000806040838503121561333357613332612c48565b5b600061334185828601612e95565b925050602061335285828601613307565b9150509250929050565b600067ffffffffffffffff82111561337757613376613129565b5b61338082612d53565b9050602081019050919050565b60006133a061339b8461335c565b613189565b9050828152602081018484840111156133bc576133bb613124565b5b6133c78482856131d5565b509392505050565b600082601f8301126133e4576133e361311f565b5b81356133f484826020860161338d565b91505092915050565b6000806000806080858703121561341757613416612c48565b5b600061342587828801612e95565b945050602061343687828801612e95565b935050604061344787828801612de0565b925050606085013567ffffffffffffffff81111561346857613467612c4d565b5b613474878288016133cf565b91505092959194509250565b6000806040838503121561349757613496612c48565b5b60006134a585828601612e95565b92505060206134b685828601612e95565b9150509250929050565b7f4e487b7100000000000000000000000000000000000000000000000000000000600052602260045260246000fd5b6000600282049050600182168061350757607f821691505b60208210810361351a576135196134c0565b5b50919050565b7f4552433732313a20617070726f76616c20746f2063757272656e74206f776e6560008201527f7200000000000000000000000000000000000000000000000000000000000000602082015250565b600061357c602183612d18565b915061358782613520565b604082019050919050565b600060208201905081810360008301526135ab8161356f565b9050919050565b7f4552433732313a20617070726f76652063616c6c6572206973206e6f7420746f60008201527f6b656e206f776e6572206f7220617070726f76656420666f7220616c6c000000602082015250565b600061360e603d83612d18565b9150613619826135b2565b604082019050919050565b6000602082019050818103600083015261363d81613601565b9050919050565b7f4552433732313a2063616c6c6572206973206e6f7420746f6b656e206f776e6560008201527f72206f7220617070726f76656400000000000000000000000000000000000000602082015250565b60006136a0602d83612d18565b91506136ab82613644565b604082019050919050565b600060208201905081810360008301526136cf81613693565b9050919050565b7f4e487b7100000000000000000000000000000000000000000000000000000000600052601160045260246000fd5b600061371082612dbf565b915061371b83612dbf565b9250828201905080821115613733576137326136d6565b5b92915050565b600061374482612dbf565b91507fffffffffffffffffffffffffffffffffffffffffffffffffffffffffffffffff8203613776576137756136d6565b5b600182019050919050565b7f4e487b7100000000000000000000000000000000000000000000000000000000600052603260045260246000fd5b7f4552433732313a20696e76616c696420746f6b656e2049440000000000000000600082015250565b60006137e6601883612d18565b91506137f1826137b0565b602082019050919050565b60006020820190508181036000830152613815816137d9565b9050919050565b7f4552433732313a2061646472657373207a65726f206973206e6f74206120766160008201527f6c6964206f776e65720000000000000000000000000000000000000000000000602082015250565b6000613878602983612d18565b91506138838261381c565b604082019050919050565b600060208201905081810360008301526138a78161386b565b9050919050565b7f4f6e6c79206f776e65722063616e20646f207468697320736869740000000000600082015250565b60006138e4601b83612d18565b91506138ef826138ae565b602082019050919050565b60006020820190508181036000830152613913816138d7565b9050919050565b7f5072696365206d75737420626520657175616c20746f206c697374696e67207060008201527f7269636520796f75206368656174747920646972747920706572736f6e000000602082015250565b6000613976603d83612d18565b91506139818261391a565b604082019050919050565b600060208201905081810360008301526139a581613969565b9050919050565b60006139b782612dbf565b91506139c283612dbf565b92508282039050818111156139da576139d96136d6565b5b92915050565b7f4f6e6c79206f776e6572206f6620746865206d61726b6574706c61636520636160008201527f6e206368616e67652074686973206675636b696e672070726963650000000000602082015250565b6000613a3c603b83612d18565b9150613a47826139e0565b604082019050919050565b60006020820190508181036000830152613a6b81613a2f565b9050919050565b7f5375626d6974206675636b696e6720707269636520696620796f752077616e7460008201527f20746f20646f2074686973207368697400000000000000000000000000000000602082015250565b6000613ace603083612d18565b9150613ad982613a72565b604082019050919050565b60006020820190508181036000830152613afd81613ac1565b9050919050565b600081905092915050565b6000613b1a82612d0d565b613b248185613b04565b9350613b34818560208601612d29565b80840191505092915050565b6000613b4c8285613b0f565b9150613b588284613b0f565b91508190509392505050565b7f4552433732313a207472616e736665722066726f6d20696e636f72726563742060008201527f6f776e6572000000000000000000000000000000000000000000000000000000602082015250565b6000613bc0602583612d18565b9150613bcb82613b64565b604082019050919050565b60006020820190508181036000830152613bef81613bb3565b9050919050565b7f4552433732313a207472616e7366657220746f20746865207a65726f2061646460008201527f7265737300000000000000000000000000000000000000000000000000000000602082015250565b6000613c52602483612d18565b9150613c5d82613bf6565b604082019050919050565b60006020820190508181036000830152613c8181613c45565b9050919050565b7f4552433732313a206d696e7420746f20746865207a65726f2061646472657373600082015250565b6000613cbe602083612d18565b9150613cc982613c88565b602082019050919050565b60006020820190508181036000830152613ced81613cb1565b9050919050565b7f4552433732313a20746f6b656e20616c7265616479206d696e74656400000000600082015250565b6000613d2a601c83612d18565b9150613d3582613cf4565b602082019050919050565b60006020820190508181036000830152613d5981613d1d565b9050919050565b7f45524337323155524953746f726167653a2055524920736574206f66206e6f6e60008201527f6578697374656e7420746f6b656e000000000000000000000000000000000000602082015250565b6000613dbc602e83612d18565b9150613dc782613d60565b604082019050919050565b60006020820190508181036000830152613deb81613daf565b9050919050565b60008190508160005260206000209050919050565b60006020601f8301049050919050565b600082821b905092915050565b600060088302613e547fffffffffffffffffffffffffffffffffffffffffffffffffffffffffffffffff82613e17565b613e5e8683613e17565b95508019841693508086168417925050509392505050565b6000819050919050565b6000613e9b613e96613e9184612dbf565b613e76565b612dbf565b9050919050565b6000819050919050565b613eb583613e80565b613ec9613ec182613ea2565b848454613e24565b825550505050565b600090565b613ede613ed1565b613ee9818484613eac565b505050565b5b81811015613f0d57613f02600082613ed6565b600181019050613eef565b5050565b601f821115613f5257613f2381613df2565b613f2c84613e07565b81016020851015613f3b578190505b613f4f613f4785613e07565b830182613eee565b50505b505050565b600082821c905092915050565b6000613f7560001984600802613f57565b1980831691505092915050565b6000613f8e8383613f64565b9150826002028217905092915050565b613fa782612d0d565b67ffffffffffffffff811115613fc057613fbf613129565b5b613fca82546134ef565b613fd5828285613f11565b600060209050601f8311600181146140085760008415613ff6578287015190505b6140008582613f82565b865550614068565b601f19841661401686613df2565b60005b8281101561403e57848901518255600182019150602085019450602081019050614019565b8683101561405b5784890151614057601f891682613f64565b8355505b6001600288020188555050505b505050505050565b7f5072696365206d757374206265206174206c65617374203120796f752067726560008201527f6564792062616420706572736f6e000000000000000000000000000000000000602082015250565b60006140cc602e83612d18565b91506140d782614070565b604082019050919050565b600060208201905081810360008301526140fb816140bf565b9050919050565b600060a0820190506141176000830188612e54565b6141246020830187612e54565b6141316040830186612eea565b61413e6060830185612ce3565b61414b6080830184612ce3565b9695505050505050565b7f436f756e7465723a2064656372656d656e74206f766572666c6f770000000000600082015250565b600061418b601b83612d18565b915061419682614155565b602082019050919050565b600060208201905081810360008301526141ba8161417e565b9050919050565b7f4552433732313a20617070726f766520746f2063616c6c657200000000000000600082015250565b60006141f7601983612d18565b9150614202826141c1565b602082019050919050565b60006020820190508181036000830152614226816141ea565b9050919050565b7f4552433732313a207472616e7366657220746f206e6f6e20455243373231526560008201527f63656976657220696d706c656d656e7465720000000000000000000000000000602082015250565b6000614289603283612d18565b91506142948261422d565b604082019050919050565b600060208201905081810360008301526142b88161427c565b9050919050565b600081519050919050565b600082825260208201905092915050565b60006142e6826142bf565b6142f081856142ca565b9350614300818560208601612d29565b61430981612d53565b840191505092915050565b60006080820190506143296000830187612e54565b6143366020830186612e54565b6143436040830185612eea565b818103606083015261435581846142db565b905095945050505050565b60008151905061436f81612c7e565b92915050565b60006020828403121561438b5761438a612c48565b5b600061439984828501614360565b91505092915050565b7f4e487b7100000000000000000000000000000000000000000000000000000000600052601260045260246000fdfea2646970667358221220ef2561223dad10335e969fc2a49eba118529d82165a18ce29b37b374fb3bb0a964736f6c63430008130033",
  "linkReferences": {},
  "deployedLinkReferences": {}
}