{
  "_format": "hh-sol-artifact-1",
  "contractName": "SokratNFTs",
  "sourceName": "contracts/SokratNFTMarket.sol",
  "abi": [
    {
      "inputs": [],
      "stateMutability": "nonpayable",
      "type": "constructor"
    },
    {
      "anonymous": false,
      "inputs": [
        {
          "indexed": true,
          "internalType": "address",
          "name": "owner",
          "type": "address"
        },
        {
          "indexed": true,
          "internalType": "address",
          "name": "approved",
          "type": "address"
        },
        {
          "indexed": true,
          "internalType": "uint256",
          "name": "tokenId",
          "type": "uint256"
        }
      ],
      "name": "Approval",
      "type": "event"
    },
    {
      "anonymous": false,
      "inputs": [
        {
          "indexed": true,
          "internalType": "address",
          "name": "owner",
          "type": "address"
        },
        {
          "indexed": true,
          "internalType": "address",
          "name": "operator",
          "type": "address"
        },
        {
          "indexed": false,
          "internalType": "bool",
          "name": "approved",
          "type": "bool"
        }
      ],
      "name": "ApprovalForAll",
      "type": "event"
    },
    {
      "anonymous": false,
      "inputs": [
        {
          "indexed": false,
          "internalType": "uint256",
          "name": "_fromTokenId",
          "type": "uint256"
        },
        {
          "indexed": false,
          "internalType": "uint256",
          "name": "_toTokenId",
          "type": "uint256"
        }
      ],
      "name": "BatchMetadataUpdate",
      "type": "event"
    },
    {
      "anonymous": false,
      "inputs": [
        {
          "indexed": false,
          "internalType": "uint256",
          "name": "_tokenId",
          "type": "uint256"
        }
      ],
      "name": "MetadataUpdate",
      "type": "event"
    },
    {
      "anonymous": false,
      "inputs": [
        {
          "indexed": true,
          "internalType": "address",
          "name": "from",
          "type": "address"
        },
        {
          "indexed": true,
          "internalType": "address",
          "name": "to",
          "type": "address"
        },
        {
          "indexed": true,
          "internalType": "uint256",
          "name": "tokenId",
          "type": "uint256"
        }
      ],
      "name": "Transfer",
      "type": "event"
    },
    {
      "anonymous": false,
      "inputs": [
        {
          "indexed": true,
          "internalType": "uint256",
          "name": "tokenId",
          "type": "uint256"
        },
        {
          "indexed": false,
          "internalType": "address",
          "name": "seller",
          "type": "address"
        },
        {
          "indexed": false,
          "internalType": "address",
          "name": "owner",
          "type": "address"
        },
        {
          "indexed": false,
          "internalType": "uint256",
          "name": "price",
          "type": "uint256"
        },
        {
          "indexed": false,
          "internalType": "bool",
          "name": "sold",
          "type": "bool"
        },
        {
          "indexed": false,
          "internalType": "bool",
          "name": "locked",
          "type": "bool"
        }
      ],
      "name": "idMarketItemCreated",
      "type": "event"
    },
    {
      "inputs": [
        {
          "internalType": "address",
          "name": "to",
          "type": "address"
        },
        {
          "internalType": "uint256",
          "name": "tokenId",
          "type": "uint256"
        }
      ],
      "name": "approve",
      "outputs": [],
      "stateMutability": "nonpayable",
      "type": "function"
    },
    {
      "inputs": [
        {
          "internalType": "address",
          "name": "owner",
          "type": "address"
        }
      ],
      "name": "balanceOf",
      "outputs": [
        {
          "internalType": "uint256",
          "name": "",
          "type": "uint256"
        }
      ],
      "stateMutability": "view",
      "type": "function"
    },
    {
      "inputs": [
        {
          "internalType": "uint256",
          "name": "tokenId",
          "type": "uint256"
        }
      ],
      "name": "createMarketSale",
      "outputs": [],
      "stateMutability": "payable",
      "type": "function"
    },
    {
      "inputs": [
        {
          "internalType": "string",
          "name": "tokenURI",
          "type": "string"
        },
        {
          "internalType": "uint256",
          "name": "price",
          "type": "uint256"
        }
      ],
      "name": "createToken",
      "outputs": [
        {
          "internalType": "uint256",
          "name": "",
          "type": "uint256"
        }
      ],
      "stateMutability": "payable",
      "type": "function"
    },
    {
      "inputs": [],
      "name": "fetchItemsListed",
      "outputs": [
        {
          "components": [
            {
              "internalType": "uint256",
              "name": "tokenId",
              "type": "uint256"
            },
            {
              "internalType": "address payable",
              "name": "seller",
              "type": "address"
            },
            {
              "internalType": "address payable",
              "name": "owner",
              "type": "address"
            },
            {
              "internalType": "uint256",
              "name": "price",
              "type": "uint256"
            },
            {
              "internalType": "bool",
              "name": "sold",
              "type": "bool"
            },
            {
              "internalType": "bool",
              "name": "locked",
              "type": "bool"
            }
          ],
          "internalType": "struct SokratNFTs.MarketItem[]",
          "name": "",
          "type": "tuple[]"
        }
      ],
      "stateMutability": "view",
      "type": "function"
    },
    {
      "inputs": [],
      "name": "fetchMarketItem",
      "outputs": [
        {
          "components": [
            {
              "internalType": "uint256",
              "name": "tokenId",
              "type": "uint256"
            },
            {
              "internalType": "address payable",
              "name": "seller",
              "type": "address"
            },
            {
              "internalType": "address payable",
              "name": "owner",
              "type": "address"
            },
            {
              "internalType": "uint256",
              "name": "price",
              "type": "uint256"
            },
            {
              "internalType": "bool",
              "name": "sold",
              "type": "bool"
            },
            {
              "internalType": "bool",
              "name": "locked",
              "type": "bool"
            }
          ],
          "internalType": "struct SokratNFTs.MarketItem[]",
          "name": "",
          "type": "tuple[]"
        }
      ],
      "stateMutability": "view",
      "type": "function"
    },
    {
      "inputs": [],
      "name": "fetchMyNFT",
      "outputs": [
        {
          "components": [
            {
              "internalType": "uint256",
              "name": "tokenId",
              "type": "uint256"
            },
            {
              "internalType": "address payable",
              "name": "seller",
              "type": "address"
            },
            {
              "internalType": "address payable",
              "name": "owner",
              "type": "address"
            },
            {
              "internalType": "uint256",
              "name": "price",
              "type": "uint256"
            },
            {
              "internalType": "bool",
              "name": "sold",
              "type": "bool"
            },
            {
              "internalType": "bool",
              "name": "locked",
              "type": "bool"
            }
          ],
          "internalType": "struct SokratNFTs.MarketItem[]",
          "name": "",
          "type": "tuple[]"
        }
      ],
      "stateMutability": "view",
      "type": "function"
    },
    {
      "inputs": [
        {
          "internalType": "uint256",
          "name": "tokenId",
          "type": "uint256"
        }
      ],
      "name": "fetchProfileNft",
      "outputs": [
        {
          "components": [
            {
              "internalType": "uint256",
              "name": "tokenId",
              "type": "uint256"
            },
            {
              "internalType": "address payable",
              "name": "seller",
              "type": "address"
            },
            {
              "internalType": "address payable",
              "name": "owner",
              "type": "address"
            },
            {
              "internalType": "uint256",
              "name": "price",
              "type": "uint256"
            },
            {
              "internalType": "bool",
              "name": "sold",
              "type": "bool"
            },
            {
              "internalType": "bool",
              "name": "locked",
              "type": "bool"
            }
          ],
          "internalType": "struct SokratNFTs.MarketItem[]",
          "name": "",
          "type": "tuple[]"
        }
      ],
      "stateMutability": "view",
      "type": "function"
    },
    {
      "inputs": [
        {
          "internalType": "uint256",
          "name": "tokenId",
          "type": "uint256"
        }
      ],
      "name": "getApproved",
      "outputs": [
        {
          "internalType": "address",
          "name": "",
          "type": "address"
        }
      ],
      "stateMutability": "view",
      "type": "function"
    },
    {
      "inputs": [],
      "name": "getListingPrice",
      "outputs": [
        {
          "internalType": "uint256",
          "name": "",
          "type": "uint256"
        }
      ],
      "stateMutability": "view",
      "type": "function"
    },
    {
      "inputs": [
        {
          "internalType": "address",
          "name": "owner",
          "type": "address"
        },
        {
          "internalType": "address",
          "name": "operator",
          "type": "address"
        }
      ],
      "name": "isApprovedForAll",
      "outputs": [
        {
          "internalType": "bool",
          "name": "",
          "type": "bool"
        }
      ],
      "stateMutability": "view",
      "type": "function"
    },
    {
      "inputs": [
        {
          "internalType": "uint256",
          "name": "tokenId",
          "type": "uint256"
        }
      ],
      "name": "lockNFT",
      "outputs": [
        {
          "internalType": "bool",
          "name": "locked",
          "type": "bool"
        }
      ],
      "stateMutability": "payable",
      "type": "function"
    },
    {
      "inputs": [],
      "name": "name",
      "outputs": [
        {
          "internalType": "string",
          "name": "",
          "type": "string"
        }
      ],
      "stateMutability": "view",
      "type": "function"
    },
    {
      "inputs": [
        {
          "internalType": "uint256",
          "name": "tokenId",
          "type": "uint256"
        }
      ],
      "name": "ownerOf",
      "outputs": [
        {
          "internalType": "address",
          "name": "",
          "type": "address"
        }
      ],
      "stateMutability": "view",
      "type": "function"
    },
    {
      "inputs": [
        {
          "internalType": "uint256",
          "name": "tokenId",
          "type": "uint256"
        },
        {
          "internalType": "uint256",
          "name": "price",
          "type": "uint256"
        }
      ],
      "name": "reSellToken",
      "outputs": [],
      "stateMutability": "payable",
      "type": "function"
    },
    {
      "inputs": [
        {
          "internalType": "address",
          "name": "from",
          "type": "address"
        },
        {
          "internalType": "address",
          "name": "to",
          "type": "address"
        },
        {
          "internalType": "uint256",
          "name": "tokenId",
          "type": "uint256"
        }
      ],
      "name": "safeTransferFrom",
      "outputs": [],
      "stateMutability": "nonpayable",
      "type": "function"
    },
    {
      "inputs": [
        {
          "internalType": "address",
          "name": "from",
          "type": "address"
        },
        {
          "internalType": "address",
          "name": "to",
          "type": "address"
        },
        {
          "internalType": "uint256",
          "name": "tokenId",
          "type": "uint256"
        },
        {
          "internalType": "bytes",
          "name": "data",
          "type": "bytes"
        }
      ],
      "name": "safeTransferFrom",
      "outputs": [],
      "stateMutability": "nonpayable",
      "type": "function"
    },
    {
      "inputs": [
        {
          "internalType": "address",
          "name": "operator",
          "type": "address"
        },
        {
          "internalType": "bool",
          "name": "approved",
          "type": "bool"
        }
      ],
      "name": "setApprovalForAll",
      "outputs": [],
      "stateMutability": "nonpayable",
      "type": "function"
    },
    {
      "inputs": [
        {
          "internalType": "bytes4",
          "name": "interfaceId",
          "type": "bytes4"
        }
      ],
      "name": "supportsInterface",
      "outputs": [
        {
          "internalType": "bool",
          "name": "",
          "type": "bool"
        }
      ],
      "stateMutability": "view",
      "type": "function"
    },
    {
      "inputs": [],
      "name": "symbol",
      "outputs": [
        {
          "internalType": "string",
          "name": "",
          "type": "string"
        }
      ],
      "stateMutability": "view",
      "type": "function"
    },
    {
      "inputs": [
        {
          "internalType": "uint256",
          "name": "tokenId",
          "type": "uint256"
        }
      ],
      "name": "tokenURI",
      "outputs": [
        {
          "internalType": "string",
          "name": "",
          "type": "string"
        }
      ],
      "stateMutability": "view",
      "type": "function"
    },
    {
      "inputs": [
        {
          "internalType": "address",
          "name": "from",
          "type": "address"
        },
        {
          "internalType": "address",
          "name": "to",
          "type": "address"
        },
        {
          "internalType": "uint256",
          "name": "tokenId",
          "type": "uint256"
        }
      ],
      "name": "transferFrom",
      "outputs": [],
      "stateMutability": "nonpayable",
      "type": "function"
    },
    {
      "inputs": [
        {
          "internalType": "uint256",
          "name": "_listingPrice",
          "type": "uint256"
        }
      ],
      "name": "updateListingPrice",
      "outputs": [],
      "stateMutability": "payable",
      "type": "function"
    }
  ],
  "bytecode": "0x60806040526608e1bc9bf04000600a553480156200001c57600080fd5b506040518060400160405280601181526020017f536f6b726174204e4654204d61726b65740000000000000000000000000000008152506040518060400160405280600481526020017f534e46540000000000000000000000000000000000000000000000000000000081525081600090816200009a919062000355565b508060019081620000ac919062000355565b5050503373ffffffffffffffffffffffffffffffffffffffff16600960009054906101000a905050506200043c565b600081519050919050565b7f4e487b7100000000000000000000000000000000000000000000000000000000600052604160045260246000fd5b7f4e487b7100000000000000000000000000000000000000000000000000000000600052602260045260246000fd5b600060028204905060018216806200015d57607f821691505b60208210810362000173576200017262000115565b5b50919050565b60008190508160005260206000209050919050565b60006020601f8301049050919050565b600082821b905092915050565b600060088302620001dd7fffffffffffffffffffffffffffffffffffffffffffffffffffffffffffffffff826200019e565b620001e986836200019e565b95508019841693508086168417925050509392505050565b6000819050919050565b6000819050919050565b600062000236620002306200022a8462000201565b6200020b565b62000201565b9050919050565b6000819050919050565b620002528362000215565b6200026a62000261826200023d565b848454620001ab565b825550505050565b600090565b6200028162000272565b6200028e81848462000247565b505050565b5b81811015620002b657620002aa60008262000277565b60018101905062000294565b5050565b601f8211156200030557620002cf8162000179565b620002da846200018e565b81016020851015620002ea578190505b62000302620002f9856200018e565b83018262000293565b50505b505050565b600082821c905092915050565b60006200032a600019846008026200030a565b1980831691505092915050565b600062000345838362000317565b9150826002028217905092915050565b6200036082620000db565b67ffffffffffffffff8111156200037c576200037b620000e6565b5b62000388825462000144565b62000395828285620002ba565b600060209050601f831160018114620003cd5760008415620003b8578287015190505b620003c4858262000337565b86555062000434565b601f198416620003dd8662000179565b60005b828110156200040757848901518255600182019150602085019450602081019050620003e0565b8683101562000427578489015162000423601f89168262000317565b8355505b6001600288020188555050505b505050505050565b614664806200044c6000396000f3fe6080604052600436106101405760003560e01c806372b3b620116100b6578063b88d4fde1161006f578063b88d4fde1461044c578063be9af53614610475578063c18763f714610491578063c6eefa85146104bc578063c87b56dd146104f9578063e985e9c51461053657610140565b806372b3b6201461036557806385535b25146103955780638fafd021146103b157806395d89b41146103dc578063a22cb46514610407578063ae677aa31461043057610140565b806323b872dd1161010857806323b872dd1461023e5780632b7170d01461026757806342842e0e1461029757806345f8fa80146102c05780636352211e146102eb57806370a082311461032857610140565b806301ffc9a71461014557806306fdde0314610182578063081812fc146101ad578063095ea7b3146101ea57806312e8558514610213575b600080fd5b34801561015157600080fd5b5061016c60048036038101906101679190612f07565b610573565b6040516101799190612f4f565b60405180910390f35b34801561018e57600080fd5b506101976105d4565b6040516101a49190612ffa565b60405180910390f35b3480156101b957600080fd5b506101d460048036038101906101cf9190613052565b610666565b6040516101e191906130c0565b60405180910390f35b3480156101f657600080fd5b50610211600480360381019061020c9190613107565b6106ac565b005b34801561021f57600080fd5b506102286107c3565b6040516102359190613156565b60405180910390f35b34801561024a57600080fd5b5061026560048036038101906102609190613171565b6107cd565b005b610281600480360381019061027c9190613052565b61082d565b60405161028e9190612f4f565b60405180910390f35b3480156102a357600080fd5b506102be60048036038101906102b99190613171565b61088d565b005b3480156102cc57600080fd5b506102d56108ad565b6040516102e2919061332d565b60405180910390f35b3480156102f757600080fd5b50610312600480360381019061030d9190613052565b610bb2565b60405161031f91906130c0565b60405180910390f35b34801561033457600080fd5b5061034f600480360381019061034a919061334f565b610c38565b60405161035c9190613156565b60405180910390f35b61037f600480360381019061037a91906134b1565b610cef565b60405161038c9190613156565b60405180910390f35b6103af60048036038101906103aa919061350d565b610d31565b005b3480156103bd57600080fd5b506103c6610f26565b6040516103d3919061332d565b60405180910390f35b3480156103e857600080fd5b506103f16111a8565b6040516103fe9190612ffa565b60405180910390f35b34801561041357600080fd5b5061042e60048036038101906104299190613579565b61123a565b005b61044a60048036038101906104459190613052565b611250565b005b34801561045857600080fd5b50610473600480360381019061046e919061365a565b6112ea565b005b61048f600480360381019061048a9190613052565b61134c565b005b34801561049d57600080fd5b506104a6611584565b6040516104b3919061332d565b60405180910390f35b3480156104c857600080fd5b506104e360048036038101906104de9190613052565b611889565b6040516104f0919061332d565b60405180910390f35b34801561050557600080fd5b50610520600480360381019061051b9190613052565b611a9e565b60405161052d9190612ffa565b60405180910390f35b34801561054257600080fd5b5061055d600480360381019061055891906136dd565b611bb0565b60405161056a9190612f4f565b60405180910390f35b6000634906490660e01b7bffffffffffffffffffffffffffffffffffffffffffffffffffffffff1916827bffffffffffffffffffffffffffffffffffffffffffffffffffffffff191614806105cd57506105cc82611c44565b5b9050919050565b6060600080546105e39061374c565b80601f016020809104026020016040519081016040528092919081815260200182805461060f9061374c565b801561065c5780601f106106315761010080835404028352916020019161065c565b820191906000526020600020905b81548152906001019060200180831161063f57829003601f168201915b5050505050905090565b600061067182611d26565b6004600083815260200190815260200160002060009054906101000a900473ffffffffffffffffffffffffffffffffffffffff169050919050565b60006106b782610bb2565b90508073ffffffffffffffffffffffffffffffffffffffff168373ffffffffffffffffffffffffffffffffffffffff1603610727576040517f08c379a000000000000000000000000000000000000000000000000000000000815260040161071e906137ef565b60405180910390fd5b8073ffffffffffffffffffffffffffffffffffffffff16610746611d71565b73ffffffffffffffffffffffffffffffffffffffff16148061077557506107748161076f611d71565b611bb0565b5b6107b4576040517f08c379a00000000000000000000000000000000000000000000000000000000081526004016107ab90613881565b60405180910390fd5b6107be8383611d79565b505050565b6000600a54905090565b6107de6107d8611d71565b82611e32565b61081d576040517f08c379a000000000000000000000000000000000000000000000000000000000815260040161081490613913565b60405180910390fd5b610828838383611ec7565b505050565b600080600b600084815260200190815260200160002090508060040160019054906101000a900460ff16158160040160016101000a81548160ff0219169083151502179055508060040160019054906101000a900460ff16915050919050565b6108a8838383604051806020016040528060008152506112ea565b505050565b606060006108bb60076121c0565b905060008060005b83811015610962573373ffffffffffffffffffffffffffffffffffffffff16600b60006001846108f39190613962565b815260200190815260200160002060010160009054906101000a900473ffffffffffffffffffffffffffffffffffffffff1673ffffffffffffffffffffffffffffffffffffffff160361094f57828061094b90613996565b9350505b808061095a90613996565b9150506108c3565b5060008267ffffffffffffffff81111561097f5761097e613386565b5b6040519080825280602002602001820160405280156109b857816020015b6109a5612e35565b81526020019060019003908161099d5790505b50905060005b84811015610ba7573373ffffffffffffffffffffffffffffffffffffffff16600b60006001846109ee9190613962565b815260200190815260200160002060010160009054906101000a900473ffffffffffffffffffffffffffffffffffffffff1673ffffffffffffffffffffffffffffffffffffffff1603610b94576000600182610a4a9190613962565b90506000600b60008381526020019081526020016000209050806040518060c0016040529081600082015481526020016001820160009054906101000a900473ffffffffffffffffffffffffffffffffffffffff1673ffffffffffffffffffffffffffffffffffffffff1673ffffffffffffffffffffffffffffffffffffffff1681526020016002820160009054906101000a900473ffffffffffffffffffffffffffffffffffffffff1673ffffffffffffffffffffffffffffffffffffffff1673ffffffffffffffffffffffffffffffffffffffff168152602001600382015481526020016004820160009054906101000a900460ff161515151581526020016004820160019054906101000a900460ff161515151581525050848681518110610b7857610b776139de565b5b60200260200101819052508480610b8e90613996565b95505050505b8080610b9f90613996565b9150506109be565b508094505050505090565b600080610bbe836121ce565b9050600073ffffffffffffffffffffffffffffffffffffffff168173ffffffffffffffffffffffffffffffffffffffff1603610c2f576040517f08c379a0000000000000000000000000000000000000000000000000000000008152600401610c2690613a59565b60405180910390fd5b80915050919050565b60008073ffffffffffffffffffffffffffffffffffffffff168273ffffffffffffffffffffffffffffffffffffffff1603610ca8576040517f08c379a0000000000000000000000000000000000000000000000000000000008152600401610c9f90613aeb565b60405180910390fd5b600360008373ffffffffffffffffffffffffffffffffffffffff1673ffffffffffffffffffffffffffffffffffffffff168152602001908152602001600020549050919050565b6000610cfb600761220b565b6000610d0760076121c0565b9050610d133382612221565b610d1d818561243e565b610d2781846124e2565b8091505092915050565b3373ffffffffffffffffffffffffffffffffffffffff16600b600084815260200190815260200160002060020160009054906101000a900473ffffffffffffffffffffffffffffffffffffffff1673ffffffffffffffffffffffffffffffffffffffff1614610dd5576040517f08c379a0000000000000000000000000000000000000000000000000000000008152600401610dcc90613b57565b60405180910390fd5b600a543414610e19576040517f08c379a0000000000000000000000000000000000000000000000000000000008152600401610e1090613be9565b60405180910390fd5b6000600b600084815260200190815260200160002060040160006101000a81548160ff02191690831515021790555080600b60008481526020019081526020016000206003018190555033600b600084815260200190815260200160002060010160006101000a81548173ffffffffffffffffffffffffffffffffffffffff021916908373ffffffffffffffffffffffffffffffffffffffff16021790555030600b600084815260200190815260200160002060020160006101000a81548173ffffffffffffffffffffffffffffffffffffffff021916908373ffffffffffffffffffffffffffffffffffffffff160217905550610f176008612710565b610f22333084611ec7565b5050565b60606000610f3460076121c0565b90506000610f4260086121c0565b610f4c60076121c0565b610f569190613c09565b90506000808267ffffffffffffffff811115610f7557610f74613386565b5b604051908082528060200260200182016040528015610fae57816020015b610f9b612e35565b815260200190600190039081610f935790505b50905060005b8481101561119d573073ffffffffffffffffffffffffffffffffffffffff16600b6000600184610fe49190613962565b815260200190815260200160002060020160009054906101000a900473ffffffffffffffffffffffffffffffffffffffff1673ffffffffffffffffffffffffffffffffffffffff160361118a5760006001826110409190613962565b90506000600b60008381526020019081526020016000209050806040518060c0016040529081600082015481526020016001820160009054906101000a900473ffffffffffffffffffffffffffffffffffffffff1673ffffffffffffffffffffffffffffffffffffffff1673ffffffffffffffffffffffffffffffffffffffff1681526020016002820160009054906101000a900473ffffffffffffffffffffffffffffffffffffffff1673ffffffffffffffffffffffffffffffffffffffff1673ffffffffffffffffffffffffffffffffffffffff168152602001600382015481526020016004820160009054906101000a900460ff161515151581526020016004820160019054906101000a900460ff16151515158152505084868151811061116e5761116d6139de565b5b6020026020010181905250848061118490613996565b95505050505b808061119590613996565b915050610fb4565b508094505050505090565b6060600180546111b79061374c565b80601f01602080910402602001604051908101604052809291908181526020018280546111e39061374c565b80156112305780601f1061120557610100808354040283529160200191611230565b820191906000526020600020905b81548152906001019060200180831161121357829003601f168201915b5050505050905090565b61124c611245611d71565b838361276c565b5050565b600960009054906101000a900473ffffffffffffffffffffffffffffffffffffffff1673ffffffffffffffffffffffffffffffffffffffff163373ffffffffffffffffffffffffffffffffffffffff16146112e0576040517f08c379a00000000000000000000000000000000000000000000000000000000081526004016112d790613caf565b60405180910390fd5b80600a8190555050565b6112fb6112f5611d71565b83611e32565b61133a576040517f08c379a000000000000000000000000000000000000000000000000000000000815260040161133190613913565b60405180910390fd5b611346848484846128d8565b50505050565b6000600b60008381526020019081526020016000206003015490508034146113a9576040517f08c379a00000000000000000000000000000000000000000000000000000000081526004016113a090613d41565b60405180910390fd5b33600b600084815260200190815260200160002060020160006101000a81548173ffffffffffffffffffffffffffffffffffffffff021916908373ffffffffffffffffffffffffffffffffffffffff1602179055506001600b600084815260200190815260200160002060040160006101000a81548160ff0219169083151502179055506000600b600084815260200190815260200160002060020160006101000a81548173ffffffffffffffffffffffffffffffffffffffff021916908373ffffffffffffffffffffffffffffffffffffffff16021790555061148d600861220b565b611498303384611ec7565b600960009054906101000a900473ffffffffffffffffffffffffffffffffffffffff1673ffffffffffffffffffffffffffffffffffffffff166108fc600a549081150290604051600060405180830381858888f19350505050158015611502573d6000803e3d6000fd5b50600b600083815260200190815260200160002060010160009054906101000a900473ffffffffffffffffffffffffffffffffffffffff1673ffffffffffffffffffffffffffffffffffffffff166108fc349081150290604051600060405180830381858888f1935050505015801561157f573d6000803e3d6000fd5b505050565b6060600061159260076121c0565b905060008060005b83811015611639573373ffffffffffffffffffffffffffffffffffffffff16600b60006001846115ca9190613962565b815260200190815260200160002060020160009054906101000a900473ffffffffffffffffffffffffffffffffffffffff1673ffffffffffffffffffffffffffffffffffffffff160361162657828061162290613996565b9350505b808061163190613996565b91505061159a565b5060008267ffffffffffffffff81111561165657611655613386565b5b60405190808252806020026020018201604052801561168f57816020015b61167c612e35565b8152602001906001900390816116745790505b50905060005b8481101561187e573373ffffffffffffffffffffffffffffffffffffffff16600b60006001846116c59190613962565b815260200190815260200160002060020160009054906101000a900473ffffffffffffffffffffffffffffffffffffffff1673ffffffffffffffffffffffffffffffffffffffff160361186b5760006001826117219190613962565b90506000600b60008381526020019081526020016000209050806040518060c0016040529081600082015481526020016001820160009054906101000a900473ffffffffffffffffffffffffffffffffffffffff1673ffffffffffffffffffffffffffffffffffffffff1673ffffffffffffffffffffffffffffffffffffffff1681526020016002820160009054906101000a900473ffffffffffffffffffffffffffffffffffffffff1673ffffffffffffffffffffffffffffffffffffffff1673ffffffffffffffffffffffffffffffffffffffff168152602001600382015481526020016004820160009054906101000a900460ff161515151581526020016004820160019054906101000a900460ff16151515158152505084868151811061184f5761184e6139de565b5b6020026020010181905250848061186590613996565b95505050505b808061187690613996565b915050611695565b508094505050505090565b6060600061189760076121c0565b905060008167ffffffffffffffff8111156118b5576118b4613386565b5b6040519080825280602002602001820160405280156118ee57816020015b6118db612e35565b8152602001906001900390816118d35790505b5090503073ffffffffffffffffffffffffffffffffffffffff16600b600086815260200190815260200160002060020160009054906101000a900473ffffffffffffffffffffffffffffffffffffffff1673ffffffffffffffffffffffffffffffffffffffff1603611a94576000600b60008681526020019081526020016000209050806040518060c0016040529081600082015481526020016001820160009054906101000a900473ffffffffffffffffffffffffffffffffffffffff1673ffffffffffffffffffffffffffffffffffffffff1673ffffffffffffffffffffffffffffffffffffffff1681526020016002820160009054906101000a900473ffffffffffffffffffffffffffffffffffffffff1673ffffffffffffffffffffffffffffffffffffffff1673ffffffffffffffffffffffffffffffffffffffff168152602001600382015481526020016004820160009054906101000a900460ff161515151581526020016004820160019054906101000a900460ff16151515158152505082600081518110611a8757611a866139de565b5b6020026020010181905250505b8092505050919050565b6060611aa982611d26565b6000600660008481526020019081526020016000208054611ac99061374c565b80601f0160208091040260200160405190810160405280929190818152602001828054611af59061374c565b8015611b425780601f10611b1757610100808354040283529160200191611b42565b820191906000526020600020905b815481529060010190602001808311611b2557829003601f168201915b505050505090506000611b53612934565b90506000815103611b68578192505050611bab565b600082511115611b9d578082604051602001611b85929190613d9d565b60405160208183030381529060405292505050611bab565b611ba68461294b565b925050505b919050565b6000600560008473ffffffffffffffffffffffffffffffffffffffff1673ffffffffffffffffffffffffffffffffffffffff16815260200190815260200160002060008373ffffffffffffffffffffffffffffffffffffffff1673ffffffffffffffffffffffffffffffffffffffff16815260200190815260200160002060009054906101000a900460ff16905092915050565b60007f80ac58cd000000000000000000000000000000000000000000000000000000007bffffffffffffffffffffffffffffffffffffffffffffffffffffffff1916827bffffffffffffffffffffffffffffffffffffffffffffffffffffffff19161480611d0f57507f5b5e139f000000000000000000000000000000000000000000000000000000007bffffffffffffffffffffffffffffffffffffffffffffffffffffffff1916827bffffffffffffffffffffffffffffffffffffffffffffffffffffffff1916145b80611d1f5750611d1e826129b3565b5b9050919050565b611d2f81612a1d565b611d6e576040517f08c379a0000000000000000000000000000000000000000000000000000000008152600401611d6590613a59565b60405180910390fd5b50565b600033905090565b816004600083815260200190815260200160002060006101000a81548173ffffffffffffffffffffffffffffffffffffffff021916908373ffffffffffffffffffffffffffffffffffffffff160217905550808273ffffffffffffffffffffffffffffffffffffffff16611dec83610bb2565b73ffffffffffffffffffffffffffffffffffffffff167f8c5be1e5ebec7d5bd14f71427d1e84f3dd0314c0f7b2291e5b200ac8c7c3b92560405160405180910390a45050565b600080611e3e83610bb2565b90508073ffffffffffffffffffffffffffffffffffffffff168473ffffffffffffffffffffffffffffffffffffffff161480611e805750611e7f8185611bb0565b5b80611ebe57508373ffffffffffffffffffffffffffffffffffffffff16611ea684610666565b73ffffffffffffffffffffffffffffffffffffffff16145b91505092915050565b8273ffffffffffffffffffffffffffffffffffffffff16611ee782610bb2565b73ffffffffffffffffffffffffffffffffffffffff1614611f3d576040517f08c379a0000000000000000000000000000000000000000000000000000000008152600401611f3490613e33565b60405180910390fd5b600073ffffffffffffffffffffffffffffffffffffffff168273ffffffffffffffffffffffffffffffffffffffff1603611fac576040517f08c379a0000000000000000000000000000000000000000000000000000000008152600401611fa390613ec5565b60405180910390fd5b611fb98383836001612a5e565b8273ffffffffffffffffffffffffffffffffffffffff16611fd982610bb2565b73ffffffffffffffffffffffffffffffffffffffff161461202f576040517f08c379a000000000000000000000000000000000000000000000000000000000815260040161202690613e33565b60405180910390fd5b6004600082815260200190815260200160002060006101000a81549073ffffffffffffffffffffffffffffffffffffffff02191690556001600360008573ffffffffffffffffffffffffffffffffffffffff1673ffffffffffffffffffffffffffffffffffffffff168152602001908152602001600020600082825403925050819055506001600360008473ffffffffffffffffffffffffffffffffffffffff1673ffffffffffffffffffffffffffffffffffffffff16815260200190815260200160002060008282540192505081905550816002600083815260200190815260200160002060006101000a81548173ffffffffffffffffffffffffffffffffffffffff021916908373ffffffffffffffffffffffffffffffffffffffff160217905550808273ffffffffffffffffffffffffffffffffffffffff168473ffffffffffffffffffffffffffffffffffffffff167fddf252ad1be2c89b69c2b068fc378daa952ba7f163c4a11628f55a4df523b3ef60405160405180910390a46121bb8383836001612a64565b505050565b600081600001549050919050565b60006002600083815260200190815260200160002060009054906101000a900473ffffffffffffffffffffffffffffffffffffffff169050919050565b6001816000016000828254019250508190555050565b600073ffffffffffffffffffffffffffffffffffffffff168273ffffffffffffffffffffffffffffffffffffffff1603612290576040517f08c379a000000000000000000000000000000000000000000000000000000000815260040161228790613f31565b60405180910390fd5b61229981612a1d565b156122d9576040517f08c379a00000000000000000000000000000000000000000000000000000000081526004016122d090613f9d565b60405180910390fd5b6122e7600083836001612a5e565b6122f081612a1d565b15612330576040517f08c379a000000000000000000000000000000000000000000000000000000000815260040161232790613f9d565b60405180910390fd5b6001600360008473ffffffffffffffffffffffffffffffffffffffff1673ffffffffffffffffffffffffffffffffffffffff16815260200190815260200160002060008282540192505081905550816002600083815260200190815260200160002060006101000a81548173ffffffffffffffffffffffffffffffffffffffff021916908373ffffffffffffffffffffffffffffffffffffffff160217905550808273ffffffffffffffffffffffffffffffffffffffff16600073ffffffffffffffffffffffffffffffffffffffff167fddf252ad1be2c89b69c2b068fc378daa952ba7f163c4a11628f55a4df523b3ef60405160405180910390a461243a600083836001612a64565b5050565b61244782612a1d565b612486576040517f08c379a000000000000000000000000000000000000000000000000000000000815260040161247d9061402f565b60405180910390fd5b806006600084815260200190815260200160002090816124a691906141fb565b507ff8e1a15aba9398e019f0b49df1a4fde98ee17ae345cb5f6b5e2c27f5033e8ce7826040516124d69190613156565b60405180910390a15050565b60008111612525576040517f08c379a000000000000000000000000000000000000000000000000000000000815260040161251c9061433f565b60405180910390fd5b600a543414612569576040517f08c379a000000000000000000000000000000000000000000000000000000000815260040161256090613be9565b60405180910390fd5b6040518060c001604052808381526020013373ffffffffffffffffffffffffffffffffffffffff1681526020013073ffffffffffffffffffffffffffffffffffffffff16815260200182815260200160001515815260200160001515815250600b60008481526020019081526020016000206000820151816000015560208201518160010160006101000a81548173ffffffffffffffffffffffffffffffffffffffff021916908373ffffffffffffffffffffffffffffffffffffffff16021790555060408201518160020160006101000a81548173ffffffffffffffffffffffffffffffffffffffff021916908373ffffffffffffffffffffffffffffffffffffffff1602179055506060820151816003015560808201518160040160006101000a81548160ff02191690831515021790555060a08201518160040160016101000a81548160ff0219169083151502179055509050506126cb333084611ec7565b817fb2fc2d1f388393c994222ac1b2a35b6dc387406c3dc184b956478ccec77f303033308460008060405161270495949392919061435f565b60405180910390a25050565b6000816000015490506000811161275c576040517f08c379a0000000000000000000000000000000000000000000000000000000008152600401612753906143fe565b60405180910390fd5b6001810382600001819055505050565b8173ffffffffffffffffffffffffffffffffffffffff168373ffffffffffffffffffffffffffffffffffffffff16036127da576040517f08c379a00000000000000000000000000000000000000000000000000000000081526004016127d19061446a565b60405180910390fd5b80600560008573ffffffffffffffffffffffffffffffffffffffff1673ffffffffffffffffffffffffffffffffffffffff16815260200190815260200160002060008473ffffffffffffffffffffffffffffffffffffffff1673ffffffffffffffffffffffffffffffffffffffff16815260200190815260200160002060006101000a81548160ff0219169083151502179055508173ffffffffffffffffffffffffffffffffffffffff168373ffffffffffffffffffffffffffffffffffffffff167f17307eab39ab6107e8899845ad3d59bd9653f200f220920489ca2b5937696c31836040516128cb9190612f4f565b60405180910390a3505050565b6128e3848484611ec7565b6128ef84848484612a6a565b61292e576040517f08c379a0000000000000000000000000000000000000000000000000000000008152600401612925906144fc565b60405180910390fd5b50505050565b606060405180602001604052806000815250905090565b606061295682611d26565b6000612960612934565b9050600081511161298057604051806020016040528060008152506129ab565b8061298a84612bf1565b60405160200161299b929190613d9d565b6040516020818303038152906040525b915050919050565b60007f01ffc9a7000000000000000000000000000000000000000000000000000000007bffffffffffffffffffffffffffffffffffffffffffffffffffffffff1916827bffffffffffffffffffffffffffffffffffffffffffffffffffffffff1916149050919050565b60008073ffffffffffffffffffffffffffffffffffffffff16612a3f836121ce565b73ffffffffffffffffffffffffffffffffffffffff1614159050919050565b50505050565b50505050565b6000612a8b8473ffffffffffffffffffffffffffffffffffffffff16612cbf565b15612be4578373ffffffffffffffffffffffffffffffffffffffff1663150b7a02612ab4611d71565b8786866040518563ffffffff1660e01b8152600401612ad69493929190614571565b6020604051808303816000875af1925050508015612b1257506040513d601f19601f82011682018060405250810190612b0f91906145d2565b60015b612b94573d8060008114612b42576040519150601f19603f3d011682016040523d82523d6000602084013e612b47565b606091505b506000815103612b8c576040517f08c379a0000000000000000000000000000000000000000000000000000000008152600401612b83906144fc565b60405180910390fd5b805181602001fd5b63150b7a0260e01b7bffffffffffffffffffffffffffffffffffffffffffffffffffffffff1916817bffffffffffffffffffffffffffffffffffffffffffffffffffffffff191614915050612be9565b600190505b949350505050565b606060006001612c0084612ce2565b01905060008167ffffffffffffffff811115612c1f57612c1e613386565b5b6040519080825280601f01601f191660200182016040528015612c515781602001600182028036833780820191505090505b509050600082602001820190505b600115612cb4578080600190039150507f3031323334353637383961626364656600000000000000000000000000000000600a86061a8153600a8581612ca857612ca76145ff565b5b04945060008503612c5f575b819350505050919050565b6000808273ffffffffffffffffffffffffffffffffffffffff163b119050919050565b600080600090507a184f03e93ff9f4daa797ed6e38ed64bf6a1f0100000000000000008310612d40577a184f03e93ff9f4daa797ed6e38ed64bf6a1f0100000000000000008381612d3657612d356145ff565b5b0492506040810190505b6d04ee2d6d415b85acef81000000008310612d7d576d04ee2d6d415b85acef81000000008381612d7357612d726145ff565b5b0492506020810190505b662386f26fc100008310612dac57662386f26fc100008381612da257612da16145ff565b5b0492506010810190505b6305f5e1008310612dd5576305f5e1008381612dcb57612dca6145ff565b5b0492506008810190505b6127108310612dfa576127108381612df057612def6145ff565b5b0492506004810190505b60648310612e1d5760648381612e1357612e126145ff565b5b0492506002810190505b600a8310612e2c576001810190505b80915050919050565b6040518060c0016040528060008152602001600073ffffffffffffffffffffffffffffffffffffffff168152602001600073ffffffffffffffffffffffffffffffffffffffff168152602001600081526020016000151581526020016000151581525090565b6000604051905090565b600080fd5b600080fd5b60007fffffffff0000000000000000000000000000000000000000000000000000000082169050919050565b612ee481612eaf565b8114612eef57600080fd5b50565b600081359050612f0181612edb565b92915050565b600060208284031215612f1d57612f1c612ea5565b5b6000612f2b84828501612ef2565b91505092915050565b60008115159050919050565b612f4981612f34565b82525050565b6000602082019050612f646000830184612f40565b92915050565b600081519050919050565b600082825260208201905092915050565b60005b83811015612fa4578082015181840152602081019050612f89565b60008484015250505050565b6000601f19601f8301169050919050565b6000612fcc82612f6a565b612fd68185612f75565b9350612fe6818560208601612f86565b612fef81612fb0565b840191505092915050565b600060208201905081810360008301526130148184612fc1565b905092915050565b6000819050919050565b61302f8161301c565b811461303a57600080fd5b50565b60008135905061304c81613026565b92915050565b60006020828403121561306857613067612ea5565b5b60006130768482850161303d565b91505092915050565b600073ffffffffffffffffffffffffffffffffffffffff82169050919050565b60006130aa8261307f565b9050919050565b6130ba8161309f565b82525050565b60006020820190506130d560008301846130b1565b92915050565b6130e48161309f565b81146130ef57600080fd5b50565b600081359050613101816130db565b92915050565b6000806040838503121561311e5761311d612ea5565b5b600061312c858286016130f2565b925050602061313d8582860161303d565b9150509250929050565b6131508161301c565b82525050565b600060208201905061316b6000830184613147565b92915050565b60008060006060848603121561318a57613189612ea5565b5b6000613198868287016130f2565b93505060206131a9868287016130f2565b92505060406131ba8682870161303d565b9150509250925092565b600081519050919050565b600082825260208201905092915050565b6000819050602082019050919050565b6131f98161301c565b82525050565b600061320a8261307f565b9050919050565b61321a816131ff565b82525050565b61322981612f34565b82525050565b60c08201600082015161324560008501826131f0565b5060208201516132586020850182613211565b50604082015161326b6040850182613211565b50606082015161327e60608501826131f0565b5060808201516132916080850182613220565b5060a08201516132a460a0850182613220565b50505050565b60006132b6838361322f565b60c08301905092915050565b6000602082019050919050565b60006132da826131c4565b6132e481856131cf565b93506132ef836131e0565b8060005b8381101561332057815161330788826132aa565b9750613312836132c2565b9250506001810190506132f3565b5085935050505092915050565b6000602082019050818103600083015261334781846132cf565b905092915050565b60006020828403121561336557613364612ea5565b5b6000613373848285016130f2565b91505092915050565b600080fd5b600080fd5b7f4e487b7100000000000000000000000000000000000000000000000000000000600052604160045260246000fd5b6133be82612fb0565b810181811067ffffffffffffffff821117156133dd576133dc613386565b5b80604052505050565b60006133f0612e9b565b90506133fc82826133b5565b919050565b600067ffffffffffffffff82111561341c5761341b613386565b5b61342582612fb0565b9050602081019050919050565b82818337600083830152505050565b600061345461344f84613401565b6133e6565b9050828152602081018484840111156134705761346f613381565b5b61347b848285613432565b509392505050565b600082601f8301126134985761349761337c565b5b81356134a8848260208601613441565b91505092915050565b600080604083850312156134c8576134c7612ea5565b5b600083013567ffffffffffffffff8111156134e6576134e5612eaa565b5b6134f285828601613483565b92505060206135038582860161303d565b9150509250929050565b6000806040838503121561352457613523612ea5565b5b60006135328582860161303d565b92505060206135438582860161303d565b9150509250929050565b61355681612f34565b811461356157600080fd5b50565b6000813590506135738161354d565b92915050565b600080604083850312156135905761358f612ea5565b5b600061359e858286016130f2565b92505060206135af85828601613564565b9150509250929050565b600067ffffffffffffffff8211156135d4576135d3613386565b5b6135dd82612fb0565b9050602081019050919050565b60006135fd6135f8846135b9565b6133e6565b90508281526020810184848401111561361957613618613381565b5b613624848285613432565b509392505050565b600082601f8301126136415761364061337c565b5b81356136518482602086016135ea565b91505092915050565b6000806000806080858703121561367457613673612ea5565b5b6000613682878288016130f2565b9450506020613693878288016130f2565b93505060406136a48782880161303d565b925050606085013567ffffffffffffffff8111156136c5576136c4612eaa565b5b6136d18782880161362c565b91505092959194509250565b600080604083850312156136f4576136f3612ea5565b5b6000613702858286016130f2565b9250506020613713858286016130f2565b9150509250929050565b7f4e487b7100000000000000000000000000000000000000000000000000000000600052602260045260246000fd5b6000600282049050600182168061376457607f821691505b6020821081036137775761377661371d565b5b50919050565b7f4552433732313a20617070726f76616c20746f2063757272656e74206f776e6560008201527f7200000000000000000000000000000000000000000000000000000000000000602082015250565b60006137d9602183612f75565b91506137e48261377d565b604082019050919050565b60006020820190508181036000830152613808816137cc565b9050919050565b7f4552433732313a20617070726f76652063616c6c6572206973206e6f7420746f60008201527f6b656e206f776e6572206f7220617070726f76656420666f7220616c6c000000602082015250565b600061386b603d83612f75565b91506138768261380f565b604082019050919050565b6000602082019050818103600083015261389a8161385e565b9050919050565b7f4552433732313a2063616c6c6572206973206e6f7420746f6b656e206f776e6560008201527f72206f7220617070726f76656400000000000000000000000000000000000000602082015250565b60006138fd602d83612f75565b9150613908826138a1565b604082019050919050565b6000602082019050818103600083015261392c816138f0565b9050919050565b7f4e487b7100000000000000000000000000000000000000000000000000000000600052601160045260246000fd5b600061396d8261301c565b91506139788361301c565b92508282019050808211156139905761398f613933565b5b92915050565b60006139a18261301c565b91507fffffffffffffffffffffffffffffffffffffffffffffffffffffffffffffffff82036139d3576139d2613933565b5b600182019050919050565b7f4e487b7100000000000000000000000000000000000000000000000000000000600052603260045260246000fd5b7f4552433732313a20696e76616c696420746f6b656e2049440000000000000000600082015250565b6000613a43601883612f75565b9150613a4e82613a0d565b602082019050919050565b60006020820190508181036000830152613a7281613a36565b9050919050565b7f4552433732313a2061646472657373207a65726f206973206e6f74206120766160008201527f6c6964206f776e65720000000000000000000000000000000000000000000000602082015250565b6000613ad5602983612f75565b9150613ae082613a79565b604082019050919050565b60006020820190508181036000830152613b0481613ac8565b9050919050565b7f4f6e6c79206f776e65722063616e20646f207468697320736869740000000000600082015250565b6000613b41601b83612f75565b9150613b4c82613b0b565b602082019050919050565b60006020820190508181036000830152613b7081613b34565b9050919050565b7f5072696365206d75737420626520657175616c20746f206c697374696e67207060008201527f7269636520796f75206368656174747920646972747920706572736f6e000000602082015250565b6000613bd3603d83612f75565b9150613bde82613b77565b604082019050919050565b60006020820190508181036000830152613c0281613bc6565b9050919050565b6000613c148261301c565b9150613c1f8361301c565b9250828203905081811115613c3757613c36613933565b5b92915050565b7f4f6e6c79206f776e6572206f6620746865206d61726b6574706c61636520636160008201527f6e206368616e67652074686973206675636b696e672070726963650000000000602082015250565b6000613c99603b83612f75565b9150613ca482613c3d565b604082019050919050565b60006020820190508181036000830152613cc881613c8c565b9050919050565b7f5375626d6974206675636b696e6720707269636520696620796f752077616e7460008201527f20746f20646f2074686973207368697400000000000000000000000000000000602082015250565b6000613d2b603083612f75565b9150613d3682613ccf565b604082019050919050565b60006020820190508181036000830152613d5a81613d1e565b9050919050565b600081905092915050565b6000613d7782612f6a565b613d818185613d61565b9350613d91818560208601612f86565b80840191505092915050565b6000613da98285613d6c565b9150613db58284613d6c565b91508190509392505050565b7f4552433732313a207472616e736665722066726f6d20696e636f72726563742060008201527f6f776e6572000000000000000000000000000000000000000000000000000000602082015250565b6000613e1d602583612f75565b9150613e2882613dc1565b604082019050919050565b60006020820190508181036000830152613e4c81613e10565b9050919050565b7f4552433732313a207472616e7366657220746f20746865207a65726f2061646460008201527f7265737300000000000000000000000000000000000000000000000000000000602082015250565b6000613eaf602483612f75565b9150613eba82613e53565b604082019050919050565b60006020820190508181036000830152613ede81613ea2565b9050919050565b7f4552433732313a206d696e7420746f20746865207a65726f2061646472657373600082015250565b6000613f1b602083612f75565b9150613f2682613ee5565b602082019050919050565b60006020820190508181036000830152613f4a81613f0e565b9050919050565b7f4552433732313a20746f6b656e20616c7265616479206d696e74656400000000600082015250565b6000613f87601c83612f75565b9150613f9282613f51565b602082019050919050565b60006020820190508181036000830152613fb681613f7a565b9050919050565b7f45524337323155524953746f726167653a2055524920736574206f66206e6f6e60008201527f6578697374656e7420746f6b656e000000000000000000000000000000000000602082015250565b6000614019602e83612f75565b915061402482613fbd565b604082019050919050565b600060208201905081810360008301526140488161400c565b9050919050565b60008190508160005260206000209050919050565b60006020601f8301049050919050565b600082821b905092915050565b6000600883026140b17fffffffffffffffffffffffffffffffffffffffffffffffffffffffffffffffff82614074565b6140bb8683614074565b95508019841693508086168417925050509392505050565b6000819050919050565b60006140f86140f36140ee8461301c565b6140d3565b61301c565b9050919050565b6000819050919050565b614112836140dd565b61412661411e826140ff565b848454614081565b825550505050565b600090565b61413b61412e565b614146818484614109565b505050565b5b8181101561416a5761415f600082614133565b60018101905061414c565b5050565b601f8211156141af576141808161404f565b61418984614064565b81016020851015614198578190505b6141ac6141a485614064565b83018261414b565b50505b505050565b600082821c905092915050565b60006141d2600019846008026141b4565b1980831691505092915050565b60006141eb83836141c1565b9150826002028217905092915050565b61420482612f6a565b67ffffffffffffffff81111561421d5761421c613386565b5b614227825461374c565b61423282828561416e565b600060209050601f8311600181146142655760008415614253578287015190505b61425d85826141df565b8655506142c5565b601f1984166142738661404f565b60005b8281101561429b57848901518255600182019150602085019450602081019050614276565b868310156142b857848901516142b4601f8916826141c1565b8355505b6001600288020188555050505b505050505050565b7f5072696365206d757374206265206174206c65617374203120796f752067726560008201527f6564792062616420706572736f6e000000000000000000000000000000000000602082015250565b6000614329602e83612f75565b9150614334826142cd565b604082019050919050565b600060208201905081810360008301526143588161431c565b9050919050565b600060a08201905061437460008301886130b1565b61438160208301876130b1565b61438e6040830186613147565b61439b6060830185612f40565b6143a86080830184612f40565b9695505050505050565b7f436f756e7465723a2064656372656d656e74206f766572666c6f770000000000600082015250565b60006143e8601b83612f75565b91506143f3826143b2565b602082019050919050565b60006020820190508181036000830152614417816143db565b9050919050565b7f4552433732313a20617070726f766520746f2063616c6c657200000000000000600082015250565b6000614454601983612f75565b915061445f8261441e565b602082019050919050565b6000602082019050818103600083015261448381614447565b9050919050565b7f4552433732313a207472616e7366657220746f206e6f6e20455243373231526560008201527f63656976657220696d706c656d656e7465720000000000000000000000000000602082015250565b60006144e6603283612f75565b91506144f18261448a565b604082019050919050565b60006020820190508181036000830152614515816144d9565b9050919050565b600081519050919050565b600082825260208201905092915050565b60006145438261451c565b61454d8185614527565b935061455d818560208601612f86565b61456681612fb0565b840191505092915050565b600060808201905061458660008301876130b1565b61459360208301866130b1565b6145a06040830185613147565b81810360608301526145b28184614538565b905095945050505050565b6000815190506145cc81612edb565b92915050565b6000602082840312156145e8576145e7612ea5565b5b60006145f6848285016145bd565b91505092915050565b7f4e487b7100000000000000000000000000000000000000000000000000000000600052601260045260246000fdfea26469706673582212206ebf0f16f992f05fd243a5d6bbe69d93f341aff6edfae2c7a3d6e4ec32f6460064736f6c63430008130033",
  "linkReferences": {},
  "deployedLinkReferences": {}
}