{
  "_format": "hh-sol-artifact-1",
  "contractName": "SokratNFT",
  "sourceName": "contracts/SokratNFTMarket.sol",
  "abi": [
    {
      "inputs": [],
      "stateMutability": "nonpayable",
      "type": "constructor"
    },
    {
      "anonymous": false,
      "inputs": [
        {
          "indexed": true,
          "internalType": "address",
          "name": "owner",
          "type": "address"
        },
        {
          "indexed": true,
          "internalType": "address",
          "name": "approved",
          "type": "address"
        },
        {
          "indexed": true,
          "internalType": "uint256",
          "name": "tokenId",
          "type": "uint256"
        }
      ],
      "name": "Approval",
      "type": "event"
    },
    {
      "anonymous": false,
      "inputs": [
        {
          "indexed": true,
          "internalType": "address",
          "name": "owner",
          "type": "address"
        },
        {
          "indexed": true,
          "internalType": "address",
          "name": "operator",
          "type": "address"
        },
        {
          "indexed": false,
          "internalType": "bool",
          "name": "approved",
          "type": "bool"
        }
      ],
      "name": "ApprovalForAll",
      "type": "event"
    },
    {
      "anonymous": false,
      "inputs": [
        {
          "indexed": false,
          "internalType": "uint256",
          "name": "_fromTokenId",
          "type": "uint256"
        },
        {
          "indexed": false,
          "internalType": "uint256",
          "name": "_toTokenId",
          "type": "uint256"
        }
      ],
      "name": "BatchMetadataUpdate",
      "type": "event"
    },
    {
      "anonymous": false,
      "inputs": [
        {
          "indexed": false,
          "internalType": "uint256",
          "name": "_tokenId",
          "type": "uint256"
        }
      ],
      "name": "MetadataUpdate",
      "type": "event"
    },
    {
      "anonymous": false,
      "inputs": [
        {
          "indexed": true,
          "internalType": "address",
          "name": "from",
          "type": "address"
        },
        {
          "indexed": true,
          "internalType": "address",
          "name": "to",
          "type": "address"
        },
        {
          "indexed": true,
          "internalType": "uint256",
          "name": "tokenId",
          "type": "uint256"
        }
      ],
      "name": "Transfer",
      "type": "event"
    },
    {
      "anonymous": false,
      "inputs": [
        {
          "indexed": true,
          "internalType": "uint256",
          "name": "tokenId",
          "type": "uint256"
        },
        {
          "indexed": false,
          "internalType": "address",
          "name": "seller",
          "type": "address"
        },
        {
          "indexed": false,
          "internalType": "address",
          "name": "owner",
          "type": "address"
        },
        {
          "indexed": false,
          "internalType": "uint256",
          "name": "price",
          "type": "uint256"
        },
        {
          "indexed": false,
          "internalType": "bool",
          "name": "sold",
          "type": "bool"
        },
        {
          "indexed": false,
          "internalType": "bool",
          "name": "locked",
          "type": "bool"
        }
      ],
      "name": "idMarketItemCreated",
      "type": "event"
    },
    {
      "inputs": [
        {
          "internalType": "address",
          "name": "to",
          "type": "address"
        },
        {
          "internalType": "uint256",
          "name": "tokenId",
          "type": "uint256"
        }
      ],
      "name": "approve",
      "outputs": [],
      "stateMutability": "nonpayable",
      "type": "function"
    },
    {
      "inputs": [
        {
          "internalType": "address",
          "name": "owner",
          "type": "address"
        }
      ],
      "name": "balanceOf",
      "outputs": [
        {
          "internalType": "uint256",
          "name": "",
          "type": "uint256"
        }
      ],
      "stateMutability": "view",
      "type": "function"
    },
    {
      "inputs": [
        {
          "internalType": "uint256",
          "name": "tokenId",
          "type": "uint256"
        }
      ],
      "name": "createMarketSale",
      "outputs": [],
      "stateMutability": "payable",
      "type": "function"
    },
    {
      "inputs": [
        {
          "internalType": "string",
          "name": "tokenURI",
          "type": "string"
        },
        {
          "internalType": "uint256",
          "name": "price",
          "type": "uint256"
        }
      ],
      "name": "createToken",
      "outputs": [
        {
          "internalType": "uint256",
          "name": "",
          "type": "uint256"
        }
      ],
      "stateMutability": "payable",
      "type": "function"
    },
    {
      "inputs": [],
      "name": "fetchItemsListed",
      "outputs": [
        {
          "components": [
            {
              "internalType": "uint256",
              "name": "tokenId",
              "type": "uint256"
            },
            {
              "internalType": "address payable",
              "name": "seller",
              "type": "address"
            },
            {
              "internalType": "address payable",
              "name": "owner",
              "type": "address"
            },
            {
              "internalType": "uint256",
              "name": "price",
              "type": "uint256"
            },
            {
              "internalType": "bool",
              "name": "sold",
              "type": "bool"
            },
            {
              "internalType": "bool",
              "name": "locked",
              "type": "bool"
            }
          ],
          "internalType": "struct SokratNFT.MarketItem[]",
          "name": "",
          "type": "tuple[]"
        }
      ],
      "stateMutability": "view",
      "type": "function"
    },
    {
      "inputs": [],
      "name": "fetchMarketItem",
      "outputs": [
        {
          "components": [
            {
              "internalType": "uint256",
              "name": "tokenId",
              "type": "uint256"
            },
            {
              "internalType": "address payable",
              "name": "seller",
              "type": "address"
            },
            {
              "internalType": "address payable",
              "name": "owner",
              "type": "address"
            },
            {
              "internalType": "uint256",
              "name": "price",
              "type": "uint256"
            },
            {
              "internalType": "bool",
              "name": "sold",
              "type": "bool"
            },
            {
              "internalType": "bool",
              "name": "locked",
              "type": "bool"
            }
          ],
          "internalType": "struct SokratNFT.MarketItem[]",
          "name": "",
          "type": "tuple[]"
        }
      ],
      "stateMutability": "view",
      "type": "function"
    },
    {
      "inputs": [],
      "name": "fetchMyNFT",
      "outputs": [
        {
          "components": [
            {
              "internalType": "uint256",
              "name": "tokenId",
              "type": "uint256"
            },
            {
              "internalType": "address payable",
              "name": "seller",
              "type": "address"
            },
            {
              "internalType": "address payable",
              "name": "owner",
              "type": "address"
            },
            {
              "internalType": "uint256",
              "name": "price",
              "type": "uint256"
            },
            {
              "internalType": "bool",
              "name": "sold",
              "type": "bool"
            },
            {
              "internalType": "bool",
              "name": "locked",
              "type": "bool"
            }
          ],
          "internalType": "struct SokratNFT.MarketItem[]",
          "name": "",
          "type": "tuple[]"
        }
      ],
      "stateMutability": "view",
      "type": "function"
    },
    {
      "inputs": [
        {
          "internalType": "uint256",
          "name": "tokenId",
          "type": "uint256"
        }
      ],
      "name": "getApproved",
      "outputs": [
        {
          "internalType": "address",
          "name": "",
          "type": "address"
        }
      ],
      "stateMutability": "view",
      "type": "function"
    },
    {
      "inputs": [],
      "name": "getListingPrice",
      "outputs": [
        {
          "internalType": "uint256",
          "name": "",
          "type": "uint256"
        }
      ],
      "stateMutability": "view",
      "type": "function"
    },
    {
      "inputs": [
        {
          "internalType": "address",
          "name": "owner",
          "type": "address"
        },
        {
          "internalType": "address",
          "name": "operator",
          "type": "address"
        }
      ],
      "name": "isApprovedForAll",
      "outputs": [
        {
          "internalType": "bool",
          "name": "",
          "type": "bool"
        }
      ],
      "stateMutability": "view",
      "type": "function"
    },
    {
      "inputs": [
        {
          "internalType": "uint256",
          "name": "tokenId",
          "type": "uint256"
        }
      ],
      "name": "lockNFT",
      "outputs": [],
      "stateMutability": "payable",
      "type": "function"
    },
    {
      "inputs": [],
      "name": "name",
      "outputs": [
        {
          "internalType": "string",
          "name": "",
          "type": "string"
        }
      ],
      "stateMutability": "view",
      "type": "function"
    },
    {
      "inputs": [
        {
          "internalType": "uint256",
          "name": "tokenId",
          "type": "uint256"
        }
      ],
      "name": "ownerOf",
      "outputs": [
        {
          "internalType": "address",
          "name": "",
          "type": "address"
        }
      ],
      "stateMutability": "view",
      "type": "function"
    },
    {
      "inputs": [
        {
          "internalType": "uint256",
          "name": "tokenId",
          "type": "uint256"
        },
        {
          "internalType": "uint256",
          "name": "price",
          "type": "uint256"
        }
      ],
      "name": "reSellToken",
      "outputs": [],
      "stateMutability": "payable",
      "type": "function"
    },
    {
      "inputs": [
        {
          "internalType": "address",
          "name": "from",
          "type": "address"
        },
        {
          "internalType": "address",
          "name": "to",
          "type": "address"
        },
        {
          "internalType": "uint256",
          "name": "tokenId",
          "type": "uint256"
        }
      ],
      "name": "safeTransferFrom",
      "outputs": [],
      "stateMutability": "nonpayable",
      "type": "function"
    },
    {
      "inputs": [
        {
          "internalType": "address",
          "name": "from",
          "type": "address"
        },
        {
          "internalType": "address",
          "name": "to",
          "type": "address"
        },
        {
          "internalType": "uint256",
          "name": "tokenId",
          "type": "uint256"
        },
        {
          "internalType": "bytes",
          "name": "data",
          "type": "bytes"
        }
      ],
      "name": "safeTransferFrom",
      "outputs": [],
      "stateMutability": "nonpayable",
      "type": "function"
    },
    {
      "inputs": [
        {
          "internalType": "address",
          "name": "operator",
          "type": "address"
        },
        {
          "internalType": "bool",
          "name": "approved",
          "type": "bool"
        }
      ],
      "name": "setApprovalForAll",
      "outputs": [],
      "stateMutability": "nonpayable",
      "type": "function"
    },
    {
      "inputs": [
        {
          "internalType": "bytes4",
          "name": "interfaceId",
          "type": "bytes4"
        }
      ],
      "name": "supportsInterface",
      "outputs": [
        {
          "internalType": "bool",
          "name": "",
          "type": "bool"
        }
      ],
      "stateMutability": "view",
      "type": "function"
    },
    {
      "inputs": [],
      "name": "symbol",
      "outputs": [
        {
          "internalType": "string",
          "name": "",
          "type": "string"
        }
      ],
      "stateMutability": "view",
      "type": "function"
    },
    {
      "inputs": [
        {
          "internalType": "uint256",
          "name": "tokenId",
          "type": "uint256"
        }
      ],
      "name": "tokenURI",
      "outputs": [
        {
          "internalType": "string",
          "name": "",
          "type": "string"
        }
      ],
      "stateMutability": "view",
      "type": "function"
    },
    {
      "inputs": [
        {
          "internalType": "address",
          "name": "from",
          "type": "address"
        },
        {
          "internalType": "address",
          "name": "to",
          "type": "address"
        },
        {
          "internalType": "uint256",
          "name": "tokenId",
          "type": "uint256"
        }
      ],
      "name": "transferFrom",
      "outputs": [],
      "stateMutability": "nonpayable",
      "type": "function"
    },
    {
      "inputs": [
        {
          "internalType": "uint256",
          "name": "_listingPrice",
          "type": "uint256"
        }
      ],
      "name": "updateListingPrice",
      "outputs": [],
      "stateMutability": "payable",
      "type": "function"
    }
  ],
  "bytecode": "0x60806040526608e1bc9bf04000600a553480156200001c57600080fd5b506040518060400160405280601181526020017f536f6b726174204e4654204d61726b65740000000000000000000000000000008152506040518060400160405280600481526020017f534e46540000000000000000000000000000000000000000000000000000000081525081600090816200009a919062000355565b508060019081620000ac919062000355565b5050503373ffffffffffffffffffffffffffffffffffffffff16600960009054906101000a905050506200043c565b600081519050919050565b7f4e487b7100000000000000000000000000000000000000000000000000000000600052604160045260246000fd5b7f4e487b7100000000000000000000000000000000000000000000000000000000600052602260045260246000fd5b600060028204905060018216806200015d57607f821691505b60208210810362000173576200017262000115565b5b50919050565b60008190508160005260206000209050919050565b60006020601f8301049050919050565b600082821b905092915050565b600060088302620001dd7fffffffffffffffffffffffffffffffffffffffffffffffffffffffffffffffff826200019e565b620001e986836200019e565b95508019841693508086168417925050509392505050565b6000819050919050565b6000819050919050565b600062000236620002306200022a8462000201565b6200020b565b62000201565b9050919050565b6000819050919050565b620002528362000215565b6200026a62000261826200023d565b848454620001ab565b825550505050565b600090565b6200028162000272565b6200028e81848462000247565b505050565b5b81811015620002b657620002aa60008262000277565b60018101905062000294565b5050565b601f8211156200030557620002cf8162000179565b620002da846200018e565b81016020851015620002ea578190505b62000302620002f9856200018e565b83018262000293565b50505b505050565b600082821c905092915050565b60006200032a600019846008026200030a565b1980831691505092915050565b600062000345838362000317565b9150826002028217905092915050565b6200036082620000db565b67ffffffffffffffff8111156200037c576200037b620000e6565b5b62000388825462000144565b62000395828285620002ba565b600060209050601f831160018114620003cd5760008415620003b8578287015190505b620003c4858262000337565b86555062000434565b601f198416620003dd8662000179565b60005b828110156200040757848901518255600182019150602085019450602081019050620003e0565b8683101562000427578489015162000423601f89168262000317565b8355505b6001600288020188555050505b505050505050565b6143dc806200044c6000396000f3fe6080604052600436106101355760003560e01c806372b3b620116100ab578063ae677aa31161006f578063ae677aa314610411578063b88d4fde1461042d578063be9af53614610456578063c18763f714610472578063c87b56dd1461049d578063e985e9c5146104da57610135565b806372b3b6201461034657806385535b25146103765780638fafd0211461039257806395d89b41146103bd578063a22cb465146103e857610135565b806323b872dd116100fd57806323b872dd146102335780632b7170d01461025c57806342842e0e1461027857806345f8fa80146102a15780636352211e146102cc57806370a082311461030957610135565b806301ffc9a71461013a57806306fdde0314610177578063081812fc146101a2578063095ea7b3146101df57806312e8558514610208575b600080fd5b34801561014657600080fd5b50610161600480360381019061015c9190612c7f565b610517565b60405161016e9190612cc7565b60405180910390f35b34801561018357600080fd5b5061018c610578565b6040516101999190612d72565b60405180910390f35b3480156101ae57600080fd5b506101c960048036038101906101c49190612dca565b61060a565b6040516101d69190612e38565b60405180910390f35b3480156101eb57600080fd5b5061020660048036038101906102019190612e7f565b610650565b005b34801561021457600080fd5b5061021d610767565b60405161022a9190612ece565b60405180910390f35b34801561023f57600080fd5b5061025a60048036038101906102559190612ee9565b610771565b005b61027660048036038101906102719190612dca565b6107d1565b005b34801561028457600080fd5b5061029f600480360381019061029a9190612ee9565b61081a565b005b3480156102ad57600080fd5b506102b661083a565b6040516102c391906130a5565b60405180910390f35b3480156102d857600080fd5b506102f360048036038101906102ee9190612dca565b610b3f565b6040516103009190612e38565b60405180910390f35b34801561031557600080fd5b50610330600480360381019061032b91906130c7565b610bc5565b60405161033d9190612ece565b60405180910390f35b610360600480360381019061035b9190613229565b610c7c565b60405161036d9190612ece565b60405180910390f35b610390600480360381019061038b9190613285565b610cbe565b005b34801561039e57600080fd5b506103a7610eb3565b6040516103b491906130a5565b60405180910390f35b3480156103c957600080fd5b506103d2611135565b6040516103df9190612d72565b60405180910390f35b3480156103f457600080fd5b5061040f600480360381019061040a91906132f1565b6111c7565b005b61042b60048036038101906104269190612dca565b6111dd565b005b34801561043957600080fd5b50610454600480360381019061044f91906133d2565b611277565b005b610470600480360381019061046b9190612dca565b6112d9565b005b34801561047e57600080fd5b50610487611511565b60405161049491906130a5565b60405180910390f35b3480156104a957600080fd5b506104c460048036038101906104bf9190612dca565b611816565b6040516104d19190612d72565b60405180910390f35b3480156104e657600080fd5b5061050160048036038101906104fc9190613455565b611928565b60405161050e9190612cc7565b60405180910390f35b6000634906490660e01b7bffffffffffffffffffffffffffffffffffffffffffffffffffffffff1916827bffffffffffffffffffffffffffffffffffffffffffffffffffffffff191614806105715750610570826119bc565b5b9050919050565b606060008054610587906134c4565b80601f01602080910402602001604051908101604052809291908181526020018280546105b3906134c4565b80156106005780601f106105d557610100808354040283529160200191610600565b820191906000526020600020905b8154815290600101906020018083116105e357829003601f168201915b5050505050905090565b600061061582611a9e565b6004600083815260200190815260200160002060009054906101000a900473ffffffffffffffffffffffffffffffffffffffff169050919050565b600061065b82610b3f565b90508073ffffffffffffffffffffffffffffffffffffffff168373ffffffffffffffffffffffffffffffffffffffff16036106cb576040517f08c379a00000000000000000000000000000000000000000000000000000000081526004016106c290613567565b60405180910390fd5b8073ffffffffffffffffffffffffffffffffffffffff166106ea611ae9565b73ffffffffffffffffffffffffffffffffffffffff161480610719575061071881610713611ae9565b611928565b5b610758576040517f08c379a000000000000000000000000000000000000000000000000000000000815260040161074f906135f9565b60405180910390fd5b6107628383611af1565b505050565b6000600a54905090565b61078261077c611ae9565b82611baa565b6107c1576040517f08c379a00000000000000000000000000000000000000000000000000000000081526004016107b89061368b565b60405180910390fd5b6107cc838383611c3f565b505050565b6000600b600083815260200190815260200160002090508060040160019054906101000a900460ff16158160040160016101000a81548160ff0219169083151502179055505050565b61083583838360405180602001604052806000815250611277565b505050565b606060006108486007611f38565b905060008060005b838110156108ef573373ffffffffffffffffffffffffffffffffffffffff16600b600060018461088091906136da565b815260200190815260200160002060010160009054906101000a900473ffffffffffffffffffffffffffffffffffffffff1673ffffffffffffffffffffffffffffffffffffffff16036108dc5782806108d89061370e565b9350505b80806108e79061370e565b915050610850565b5060008267ffffffffffffffff81111561090c5761090b6130fe565b5b60405190808252806020026020018201604052801561094557816020015b610932612bad565b81526020019060019003908161092a5790505b50905060005b84811015610b34573373ffffffffffffffffffffffffffffffffffffffff16600b600060018461097b91906136da565b815260200190815260200160002060010160009054906101000a900473ffffffffffffffffffffffffffffffffffffffff1673ffffffffffffffffffffffffffffffffffffffff1603610b215760006001826109d791906136da565b90506000600b60008381526020019081526020016000209050806040518060c0016040529081600082015481526020016001820160009054906101000a900473ffffffffffffffffffffffffffffffffffffffff1673ffffffffffffffffffffffffffffffffffffffff1673ffffffffffffffffffffffffffffffffffffffff1681526020016002820160009054906101000a900473ffffffffffffffffffffffffffffffffffffffff1673ffffffffffffffffffffffffffffffffffffffff1673ffffffffffffffffffffffffffffffffffffffff168152602001600382015481526020016004820160009054906101000a900460ff161515151581526020016004820160019054906101000a900460ff161515151581525050848681518110610b0557610b04613756565b5b60200260200101819052508480610b1b9061370e565b95505050505b8080610b2c9061370e565b91505061094b565b508094505050505090565b600080610b4b83611f46565b9050600073ffffffffffffffffffffffffffffffffffffffff168173ffffffffffffffffffffffffffffffffffffffff1603610bbc576040517f08c379a0000000000000000000000000000000000000000000000000000000008152600401610bb3906137d1565b60405180910390fd5b80915050919050565b60008073ffffffffffffffffffffffffffffffffffffffff168273ffffffffffffffffffffffffffffffffffffffff1603610c35576040517f08c379a0000000000000000000000000000000000000000000000000000000008152600401610c2c90613863565b60405180910390fd5b600360008373ffffffffffffffffffffffffffffffffffffffff1673ffffffffffffffffffffffffffffffffffffffff168152602001908152602001600020549050919050565b6000610c886007611f83565b6000610c946007611f38565b9050610ca03382611f99565b610caa81856121b6565b610cb4818461225a565b8091505092915050565b3373ffffffffffffffffffffffffffffffffffffffff16600b600084815260200190815260200160002060020160009054906101000a900473ffffffffffffffffffffffffffffffffffffffff1673ffffffffffffffffffffffffffffffffffffffff1614610d62576040517f08c379a0000000000000000000000000000000000000000000000000000000008152600401610d59906138cf565b60405180910390fd5b600a543414610da6576040517f08c379a0000000000000000000000000000000000000000000000000000000008152600401610d9d90613961565b60405180910390fd5b6000600b600084815260200190815260200160002060040160006101000a81548160ff02191690831515021790555080600b60008481526020019081526020016000206003018190555033600b600084815260200190815260200160002060010160006101000a81548173ffffffffffffffffffffffffffffffffffffffff021916908373ffffffffffffffffffffffffffffffffffffffff16021790555030600b600084815260200190815260200160002060020160006101000a81548173ffffffffffffffffffffffffffffffffffffffff021916908373ffffffffffffffffffffffffffffffffffffffff160217905550610ea46008612488565b610eaf333084611c3f565b5050565b60606000610ec16007611f38565b90506000610ecf6008611f38565b610ed96007611f38565b610ee39190613981565b90506000808267ffffffffffffffff811115610f0257610f016130fe565b5b604051908082528060200260200182016040528015610f3b57816020015b610f28612bad565b815260200190600190039081610f205790505b50905060005b8481101561112a573073ffffffffffffffffffffffffffffffffffffffff16600b6000600184610f7191906136da565b815260200190815260200160002060020160009054906101000a900473ffffffffffffffffffffffffffffffffffffffff1673ffffffffffffffffffffffffffffffffffffffff1603611117576000600182610fcd91906136da565b90506000600b60008381526020019081526020016000209050806040518060c0016040529081600082015481526020016001820160009054906101000a900473ffffffffffffffffffffffffffffffffffffffff1673ffffffffffffffffffffffffffffffffffffffff1673ffffffffffffffffffffffffffffffffffffffff1681526020016002820160009054906101000a900473ffffffffffffffffffffffffffffffffffffffff1673ffffffffffffffffffffffffffffffffffffffff1673ffffffffffffffffffffffffffffffffffffffff168152602001600382015481526020016004820160009054906101000a900460ff161515151581526020016004820160019054906101000a900460ff1615151515815250508486815181106110fb576110fa613756565b5b602002602001018190525084806111119061370e565b95505050505b80806111229061370e565b915050610f41565b508094505050505090565b606060018054611144906134c4565b80601f0160208091040260200160405190810160405280929190818152602001828054611170906134c4565b80156111bd5780601f10611192576101008083540402835291602001916111bd565b820191906000526020600020905b8154815290600101906020018083116111a057829003601f168201915b5050505050905090565b6111d96111d2611ae9565b83836124e4565b5050565b600960009054906101000a900473ffffffffffffffffffffffffffffffffffffffff1673ffffffffffffffffffffffffffffffffffffffff163373ffffffffffffffffffffffffffffffffffffffff161461126d576040517f08c379a000000000000000000000000000000000000000000000000000000000815260040161126490613a27565b60405180910390fd5b80600a8190555050565b611288611282611ae9565b83611baa565b6112c7576040517f08c379a00000000000000000000000000000000000000000000000000000000081526004016112be9061368b565b60405180910390fd5b6112d384848484612650565b50505050565b6000600b6000838152602001908152602001600020600301549050803414611336576040517f08c379a000000000000000000000000000000000000000000000000000000000815260040161132d90613ab9565b60405180910390fd5b33600b600084815260200190815260200160002060020160006101000a81548173ffffffffffffffffffffffffffffffffffffffff021916908373ffffffffffffffffffffffffffffffffffffffff1602179055506001600b600084815260200190815260200160002060040160006101000a81548160ff0219169083151502179055506000600b600084815260200190815260200160002060020160006101000a81548173ffffffffffffffffffffffffffffffffffffffff021916908373ffffffffffffffffffffffffffffffffffffffff16021790555061141a6008611f83565b611425303384611c3f565b600960009054906101000a900473ffffffffffffffffffffffffffffffffffffffff1673ffffffffffffffffffffffffffffffffffffffff166108fc600a549081150290604051600060405180830381858888f1935050505015801561148f573d6000803e3d6000fd5b50600b600083815260200190815260200160002060010160009054906101000a900473ffffffffffffffffffffffffffffffffffffffff1673ffffffffffffffffffffffffffffffffffffffff166108fc349081150290604051600060405180830381858888f1935050505015801561150c573d6000803e3d6000fd5b505050565b6060600061151f6007611f38565b905060008060005b838110156115c6573373ffffffffffffffffffffffffffffffffffffffff16600b600060018461155791906136da565b815260200190815260200160002060020160009054906101000a900473ffffffffffffffffffffffffffffffffffffffff1673ffffffffffffffffffffffffffffffffffffffff16036115b35782806115af9061370e565b9350505b80806115be9061370e565b915050611527565b5060008267ffffffffffffffff8111156115e3576115e26130fe565b5b60405190808252806020026020018201604052801561161c57816020015b611609612bad565b8152602001906001900390816116015790505b50905060005b8481101561180b573373ffffffffffffffffffffffffffffffffffffffff16600b600060018461165291906136da565b815260200190815260200160002060020160009054906101000a900473ffffffffffffffffffffffffffffffffffffffff1673ffffffffffffffffffffffffffffffffffffffff16036117f85760006001826116ae91906136da565b90506000600b60008381526020019081526020016000209050806040518060c0016040529081600082015481526020016001820160009054906101000a900473ffffffffffffffffffffffffffffffffffffffff1673ffffffffffffffffffffffffffffffffffffffff1673ffffffffffffffffffffffffffffffffffffffff1681526020016002820160009054906101000a900473ffffffffffffffffffffffffffffffffffffffff1673ffffffffffffffffffffffffffffffffffffffff1673ffffffffffffffffffffffffffffffffffffffff168152602001600382015481526020016004820160009054906101000a900460ff161515151581526020016004820160019054906101000a900460ff1615151515815250508486815181106117dc576117db613756565b5b602002602001018190525084806117f29061370e565b95505050505b80806118039061370e565b915050611622565b508094505050505090565b606061182182611a9e565b6000600660008481526020019081526020016000208054611841906134c4565b80601f016020809104026020016040519081016040528092919081815260200182805461186d906134c4565b80156118ba5780601f1061188f576101008083540402835291602001916118ba565b820191906000526020600020905b81548152906001019060200180831161189d57829003601f168201915b5050505050905060006118cb6126ac565b905060008151036118e0578192505050611923565b6000825111156119155780826040516020016118fd929190613b15565b60405160208183030381529060405292505050611923565b61191e846126c3565b925050505b919050565b6000600560008473ffffffffffffffffffffffffffffffffffffffff1673ffffffffffffffffffffffffffffffffffffffff16815260200190815260200160002060008373ffffffffffffffffffffffffffffffffffffffff1673ffffffffffffffffffffffffffffffffffffffff16815260200190815260200160002060009054906101000a900460ff16905092915050565b60007f80ac58cd000000000000000000000000000000000000000000000000000000007bffffffffffffffffffffffffffffffffffffffffffffffffffffffff1916827bffffffffffffffffffffffffffffffffffffffffffffffffffffffff19161480611a8757507f5b5e139f000000000000000000000000000000000000000000000000000000007bffffffffffffffffffffffffffffffffffffffffffffffffffffffff1916827bffffffffffffffffffffffffffffffffffffffffffffffffffffffff1916145b80611a975750611a968261272b565b5b9050919050565b611aa781612795565b611ae6576040517f08c379a0000000000000000000000000000000000000000000000000000000008152600401611add906137d1565b60405180910390fd5b50565b600033905090565b816004600083815260200190815260200160002060006101000a81548173ffffffffffffffffffffffffffffffffffffffff021916908373ffffffffffffffffffffffffffffffffffffffff160217905550808273ffffffffffffffffffffffffffffffffffffffff16611b6483610b3f565b73ffffffffffffffffffffffffffffffffffffffff167f8c5be1e5ebec7d5bd14f71427d1e84f3dd0314c0f7b2291e5b200ac8c7c3b92560405160405180910390a45050565b600080611bb683610b3f565b90508073ffffffffffffffffffffffffffffffffffffffff168473ffffffffffffffffffffffffffffffffffffffff161480611bf85750611bf78185611928565b5b80611c3657508373ffffffffffffffffffffffffffffffffffffffff16611c1e8461060a565b73ffffffffffffffffffffffffffffffffffffffff16145b91505092915050565b8273ffffffffffffffffffffffffffffffffffffffff16611c5f82610b3f565b73ffffffffffffffffffffffffffffffffffffffff1614611cb5576040517f08c379a0000000000000000000000000000000000000000000000000000000008152600401611cac90613bab565b60405180910390fd5b600073ffffffffffffffffffffffffffffffffffffffff168273ffffffffffffffffffffffffffffffffffffffff1603611d24576040517f08c379a0000000000000000000000000000000000000000000000000000000008152600401611d1b90613c3d565b60405180910390fd5b611d3183838360016127d6565b8273ffffffffffffffffffffffffffffffffffffffff16611d5182610b3f565b73ffffffffffffffffffffffffffffffffffffffff1614611da7576040517f08c379a0000000000000000000000000000000000000000000000000000000008152600401611d9e90613bab565b60405180910390fd5b6004600082815260200190815260200160002060006101000a81549073ffffffffffffffffffffffffffffffffffffffff02191690556001600360008573ffffffffffffffffffffffffffffffffffffffff1673ffffffffffffffffffffffffffffffffffffffff168152602001908152602001600020600082825403925050819055506001600360008473ffffffffffffffffffffffffffffffffffffffff1673ffffffffffffffffffffffffffffffffffffffff16815260200190815260200160002060008282540192505081905550816002600083815260200190815260200160002060006101000a81548173ffffffffffffffffffffffffffffffffffffffff021916908373ffffffffffffffffffffffffffffffffffffffff160217905550808273ffffffffffffffffffffffffffffffffffffffff168473ffffffffffffffffffffffffffffffffffffffff167fddf252ad1be2c89b69c2b068fc378daa952ba7f163c4a11628f55a4df523b3ef60405160405180910390a4611f3383838360016127dc565b505050565b600081600001549050919050565b60006002600083815260200190815260200160002060009054906101000a900473ffffffffffffffffffffffffffffffffffffffff169050919050565b6001816000016000828254019250508190555050565b600073ffffffffffffffffffffffffffffffffffffffff168273ffffffffffffffffffffffffffffffffffffffff1603612008576040517f08c379a0000000000000000000000000000000000000000000000000000000008152600401611fff90613ca9565b60405180910390fd5b61201181612795565b15612051576040517f08c379a000000000000000000000000000000000000000000000000000000000815260040161204890613d15565b60405180910390fd5b61205f6000838360016127d6565b61206881612795565b156120a8576040517f08c379a000000000000000000000000000000000000000000000000000000000815260040161209f90613d15565b60405180910390fd5b6001600360008473ffffffffffffffffffffffffffffffffffffffff1673ffffffffffffffffffffffffffffffffffffffff16815260200190815260200160002060008282540192505081905550816002600083815260200190815260200160002060006101000a81548173ffffffffffffffffffffffffffffffffffffffff021916908373ffffffffffffffffffffffffffffffffffffffff160217905550808273ffffffffffffffffffffffffffffffffffffffff16600073ffffffffffffffffffffffffffffffffffffffff167fddf252ad1be2c89b69c2b068fc378daa952ba7f163c4a11628f55a4df523b3ef60405160405180910390a46121b26000838360016127dc565b5050565b6121bf82612795565b6121fe576040517f08c379a00000000000000000000000000000000000000000000000000000000081526004016121f590613da7565b60405180910390fd5b8060066000848152602001908152602001600020908161221e9190613f73565b507ff8e1a15aba9398e019f0b49df1a4fde98ee17ae345cb5f6b5e2c27f5033e8ce78260405161224e9190612ece565b60405180910390a15050565b6000811161229d576040517f08c379a0000000000000000000000000000000000000000000000000000000008152600401612294906140b7565b60405180910390fd5b600a5434146122e1576040517f08c379a00000000000000000000000000000000000000000000000000000000081526004016122d890613961565b60405180910390fd5b6040518060c001604052808381526020013373ffffffffffffffffffffffffffffffffffffffff1681526020013073ffffffffffffffffffffffffffffffffffffffff16815260200182815260200160001515815260200160001515815250600b60008481526020019081526020016000206000820151816000015560208201518160010160006101000a81548173ffffffffffffffffffffffffffffffffffffffff021916908373ffffffffffffffffffffffffffffffffffffffff16021790555060408201518160020160006101000a81548173ffffffffffffffffffffffffffffffffffffffff021916908373ffffffffffffffffffffffffffffffffffffffff1602179055506060820151816003015560808201518160040160006101000a81548160ff02191690831515021790555060a08201518160040160016101000a81548160ff021916908315150217905550905050612443333084611c3f565b817fb2fc2d1f388393c994222ac1b2a35b6dc387406c3dc184b956478ccec77f303033308460008060405161247c9594939291906140d7565b60405180910390a25050565b600081600001549050600081116124d4576040517f08c379a00000000000000000000000000000000000000000000000000000000081526004016124cb90614176565b60405180910390fd5b6001810382600001819055505050565b8173ffffffffffffffffffffffffffffffffffffffff168373ffffffffffffffffffffffffffffffffffffffff1603612552576040517f08c379a0000000000000000000000000000000000000000000000000000000008152600401612549906141e2565b60405180910390fd5b80600560008573ffffffffffffffffffffffffffffffffffffffff1673ffffffffffffffffffffffffffffffffffffffff16815260200190815260200160002060008473ffffffffffffffffffffffffffffffffffffffff1673ffffffffffffffffffffffffffffffffffffffff16815260200190815260200160002060006101000a81548160ff0219169083151502179055508173ffffffffffffffffffffffffffffffffffffffff168373ffffffffffffffffffffffffffffffffffffffff167f17307eab39ab6107e8899845ad3d59bd9653f200f220920489ca2b5937696c31836040516126439190612cc7565b60405180910390a3505050565b61265b848484611c3f565b612667848484846127e2565b6126a6576040517f08c379a000000000000000000000000000000000000000000000000000000000815260040161269d90614274565b60405180910390fd5b50505050565b606060405180602001604052806000815250905090565b60606126ce82611a9e565b60006126d86126ac565b905060008151116126f85760405180602001604052806000815250612723565b8061270284612969565b604051602001612713929190613b15565b6040516020818303038152906040525b915050919050565b60007f01ffc9a7000000000000000000000000000000000000000000000000000000007bffffffffffffffffffffffffffffffffffffffffffffffffffffffff1916827bffffffffffffffffffffffffffffffffffffffffffffffffffffffff1916149050919050565b60008073ffffffffffffffffffffffffffffffffffffffff166127b783611f46565b73ffffffffffffffffffffffffffffffffffffffff1614159050919050565b50505050565b50505050565b60006128038473ffffffffffffffffffffffffffffffffffffffff16612a37565b1561295c578373ffffffffffffffffffffffffffffffffffffffff1663150b7a0261282c611ae9565b8786866040518563ffffffff1660e01b815260040161284e94939291906142e9565b6020604051808303816000875af192505050801561288a57506040513d601f19601f82011682018060405250810190612887919061434a565b60015b61290c573d80600081146128ba576040519150601f19603f3d011682016040523d82523d6000602084013e6128bf565b606091505b506000815103612904576040517f08c379a00000000000000000000000000000000000000000000000000000000081526004016128fb90614274565b60405180910390fd5b805181602001fd5b63150b7a0260e01b7bffffffffffffffffffffffffffffffffffffffffffffffffffffffff1916817bffffffffffffffffffffffffffffffffffffffffffffffffffffffff191614915050612961565b600190505b949350505050565b60606000600161297884612a5a565b01905060008167ffffffffffffffff811115612997576129966130fe565b5b6040519080825280601f01601f1916602001820160405280156129c95781602001600182028036833780820191505090505b509050600082602001820190505b600115612a2c578080600190039150507f3031323334353637383961626364656600000000000000000000000000000000600a86061a8153600a8581612a2057612a1f614377565b5b049450600085036129d7575b819350505050919050565b6000808273ffffffffffffffffffffffffffffffffffffffff163b119050919050565b600080600090507a184f03e93ff9f4daa797ed6e38ed64bf6a1f0100000000000000008310612ab8577a184f03e93ff9f4daa797ed6e38ed64bf6a1f0100000000000000008381612aae57612aad614377565b5b0492506040810190505b6d04ee2d6d415b85acef81000000008310612af5576d04ee2d6d415b85acef81000000008381612aeb57612aea614377565b5b0492506020810190505b662386f26fc100008310612b2457662386f26fc100008381612b1a57612b19614377565b5b0492506010810190505b6305f5e1008310612b4d576305f5e1008381612b4357612b42614377565b5b0492506008810190505b6127108310612b72576127108381612b6857612b67614377565b5b0492506004810190505b60648310612b955760648381612b8b57612b8a614377565b5b0492506002810190505b600a8310612ba4576001810190505b80915050919050565b6040518060c0016040528060008152602001600073ffffffffffffffffffffffffffffffffffffffff168152602001600073ffffffffffffffffffffffffffffffffffffffff168152602001600081526020016000151581526020016000151581525090565b6000604051905090565b600080fd5b600080fd5b60007fffffffff0000000000000000000000000000000000000000000000000000000082169050919050565b612c5c81612c27565b8114612c6757600080fd5b50565b600081359050612c7981612c53565b92915050565b600060208284031215612c9557612c94612c1d565b5b6000612ca384828501612c6a565b91505092915050565b60008115159050919050565b612cc181612cac565b82525050565b6000602082019050612cdc6000830184612cb8565b92915050565b600081519050919050565b600082825260208201905092915050565b60005b83811015612d1c578082015181840152602081019050612d01565b60008484015250505050565b6000601f19601f8301169050919050565b6000612d4482612ce2565b612d4e8185612ced565b9350612d5e818560208601612cfe565b612d6781612d28565b840191505092915050565b60006020820190508181036000830152612d8c8184612d39565b905092915050565b6000819050919050565b612da781612d94565b8114612db257600080fd5b50565b600081359050612dc481612d9e565b92915050565b600060208284031215612de057612ddf612c1d565b5b6000612dee84828501612db5565b91505092915050565b600073ffffffffffffffffffffffffffffffffffffffff82169050919050565b6000612e2282612df7565b9050919050565b612e3281612e17565b82525050565b6000602082019050612e4d6000830184612e29565b92915050565b612e5c81612e17565b8114612e6757600080fd5b50565b600081359050612e7981612e53565b92915050565b60008060408385031215612e9657612e95612c1d565b5b6000612ea485828601612e6a565b9250506020612eb585828601612db5565b9150509250929050565b612ec881612d94565b82525050565b6000602082019050612ee36000830184612ebf565b92915050565b600080600060608486031215612f0257612f01612c1d565b5b6000612f1086828701612e6a565b9350506020612f2186828701612e6a565b9250506040612f3286828701612db5565b9150509250925092565b600081519050919050565b600082825260208201905092915050565b6000819050602082019050919050565b612f7181612d94565b82525050565b6000612f8282612df7565b9050919050565b612f9281612f77565b82525050565b612fa181612cac565b82525050565b60c082016000820151612fbd6000850182612f68565b506020820151612fd06020850182612f89565b506040820151612fe36040850182612f89565b506060820151612ff66060850182612f68565b5060808201516130096080850182612f98565b5060a082015161301c60a0850182612f98565b50505050565b600061302e8383612fa7565b60c08301905092915050565b6000602082019050919050565b600061305282612f3c565b61305c8185612f47565b935061306783612f58565b8060005b8381101561309857815161307f8882613022565b975061308a8361303a565b92505060018101905061306b565b5085935050505092915050565b600060208201905081810360008301526130bf8184613047565b905092915050565b6000602082840312156130dd576130dc612c1d565b5b60006130eb84828501612e6a565b91505092915050565b600080fd5b600080fd5b7f4e487b7100000000000000000000000000000000000000000000000000000000600052604160045260246000fd5b61313682612d28565b810181811067ffffffffffffffff82111715613155576131546130fe565b5b80604052505050565b6000613168612c13565b9050613174828261312d565b919050565b600067ffffffffffffffff821115613194576131936130fe565b5b61319d82612d28565b9050602081019050919050565b82818337600083830152505050565b60006131cc6131c784613179565b61315e565b9050828152602081018484840111156131e8576131e76130f9565b5b6131f38482856131aa565b509392505050565b600082601f8301126132105761320f6130f4565b5b81356132208482602086016131b9565b91505092915050565b600080604083850312156132405761323f612c1d565b5b600083013567ffffffffffffffff81111561325e5761325d612c22565b5b61326a858286016131fb565b925050602061327b85828601612db5565b9150509250929050565b6000806040838503121561329c5761329b612c1d565b5b60006132aa85828601612db5565b92505060206132bb85828601612db5565b9150509250929050565b6132ce81612cac565b81146132d957600080fd5b50565b6000813590506132eb816132c5565b92915050565b6000806040838503121561330857613307612c1d565b5b600061331685828601612e6a565b9250506020613327858286016132dc565b9150509250929050565b600067ffffffffffffffff82111561334c5761334b6130fe565b5b61335582612d28565b9050602081019050919050565b600061337561337084613331565b61315e565b905082815260208101848484011115613391576133906130f9565b5b61339c8482856131aa565b509392505050565b600082601f8301126133b9576133b86130f4565b5b81356133c9848260208601613362565b91505092915050565b600080600080608085870312156133ec576133eb612c1d565b5b60006133fa87828801612e6a565b945050602061340b87828801612e6a565b935050604061341c87828801612db5565b925050606085013567ffffffffffffffff81111561343d5761343c612c22565b5b613449878288016133a4565b91505092959194509250565b6000806040838503121561346c5761346b612c1d565b5b600061347a85828601612e6a565b925050602061348b85828601612e6a565b9150509250929050565b7f4e487b7100000000000000000000000000000000000000000000000000000000600052602260045260246000fd5b600060028204905060018216806134dc57607f821691505b6020821081036134ef576134ee613495565b5b50919050565b7f4552433732313a20617070726f76616c20746f2063757272656e74206f776e6560008201527f7200000000000000000000000000000000000000000000000000000000000000602082015250565b6000613551602183612ced565b915061355c826134f5565b604082019050919050565b6000602082019050818103600083015261358081613544565b9050919050565b7f4552433732313a20617070726f76652063616c6c6572206973206e6f7420746f60008201527f6b656e206f776e6572206f7220617070726f76656420666f7220616c6c000000602082015250565b60006135e3603d83612ced565b91506135ee82613587565b604082019050919050565b60006020820190508181036000830152613612816135d6565b9050919050565b7f4552433732313a2063616c6c6572206973206e6f7420746f6b656e206f776e6560008201527f72206f7220617070726f76656400000000000000000000000000000000000000602082015250565b6000613675602d83612ced565b915061368082613619565b604082019050919050565b600060208201905081810360008301526136a481613668565b9050919050565b7f4e487b7100000000000000000000000000000000000000000000000000000000600052601160045260246000fd5b60006136e582612d94565b91506136f083612d94565b9250828201905080821115613708576137076136ab565b5b92915050565b600061371982612d94565b91507fffffffffffffffffffffffffffffffffffffffffffffffffffffffffffffffff820361374b5761374a6136ab565b5b600182019050919050565b7f4e487b7100000000000000000000000000000000000000000000000000000000600052603260045260246000fd5b7f4552433732313a20696e76616c696420746f6b656e2049440000000000000000600082015250565b60006137bb601883612ced565b91506137c682613785565b602082019050919050565b600060208201905081810360008301526137ea816137ae565b9050919050565b7f4552433732313a2061646472657373207a65726f206973206e6f74206120766160008201527f6c6964206f776e65720000000000000000000000000000000000000000000000602082015250565b600061384d602983612ced565b9150613858826137f1565b604082019050919050565b6000602082019050818103600083015261387c81613840565b9050919050565b7f4f6e6c79206f776e65722063616e20646f207468697320736869740000000000600082015250565b60006138b9601b83612ced565b91506138c482613883565b602082019050919050565b600060208201905081810360008301526138e8816138ac565b9050919050565b7f5072696365206d75737420626520657175616c20746f206c697374696e67207060008201527f7269636520796f75206368656174747920646972747920706572736f6e000000602082015250565b600061394b603d83612ced565b9150613956826138ef565b604082019050919050565b6000602082019050818103600083015261397a8161393e565b9050919050565b600061398c82612d94565b915061399783612d94565b92508282039050818111156139af576139ae6136ab565b5b92915050565b7f4f6e6c79206f776e6572206f6620746865206d61726b6574706c61636520636160008201527f6e206368616e67652074686973206675636b696e672070726963650000000000602082015250565b6000613a11603b83612ced565b9150613a1c826139b5565b604082019050919050565b60006020820190508181036000830152613a4081613a04565b9050919050565b7f5375626d6974206675636b696e6720707269636520696620796f752077616e7460008201527f20746f20646f2074686973207368697400000000000000000000000000000000602082015250565b6000613aa3603083612ced565b9150613aae82613a47565b604082019050919050565b60006020820190508181036000830152613ad281613a96565b9050919050565b600081905092915050565b6000613aef82612ce2565b613af98185613ad9565b9350613b09818560208601612cfe565b80840191505092915050565b6000613b218285613ae4565b9150613b2d8284613ae4565b91508190509392505050565b7f4552433732313a207472616e736665722066726f6d20696e636f72726563742060008201527f6f776e6572000000000000000000000000000000000000000000000000000000602082015250565b6000613b95602583612ced565b9150613ba082613b39565b604082019050919050565b60006020820190508181036000830152613bc481613b88565b9050919050565b7f4552433732313a207472616e7366657220746f20746865207a65726f2061646460008201527f7265737300000000000000000000000000000000000000000000000000000000602082015250565b6000613c27602483612ced565b9150613c3282613bcb565b604082019050919050565b60006020820190508181036000830152613c5681613c1a565b9050919050565b7f4552433732313a206d696e7420746f20746865207a65726f2061646472657373600082015250565b6000613c93602083612ced565b9150613c9e82613c5d565b602082019050919050565b60006020820190508181036000830152613cc281613c86565b9050919050565b7f4552433732313a20746f6b656e20616c7265616479206d696e74656400000000600082015250565b6000613cff601c83612ced565b9150613d0a82613cc9565b602082019050919050565b60006020820190508181036000830152613d2e81613cf2565b9050919050565b7f45524337323155524953746f726167653a2055524920736574206f66206e6f6e60008201527f6578697374656e7420746f6b656e000000000000000000000000000000000000602082015250565b6000613d91602e83612ced565b9150613d9c82613d35565b604082019050919050565b60006020820190508181036000830152613dc081613d84565b9050919050565b60008190508160005260206000209050919050565b60006020601f8301049050919050565b600082821b905092915050565b600060088302613e297fffffffffffffffffffffffffffffffffffffffffffffffffffffffffffffffff82613dec565b613e338683613dec565b95508019841693508086168417925050509392505050565b6000819050919050565b6000613e70613e6b613e6684612d94565b613e4b565b612d94565b9050919050565b6000819050919050565b613e8a83613e55565b613e9e613e9682613e77565b848454613df9565b825550505050565b600090565b613eb3613ea6565b613ebe818484613e81565b505050565b5b81811015613ee257613ed7600082613eab565b600181019050613ec4565b5050565b601f821115613f2757613ef881613dc7565b613f0184613ddc565b81016020851015613f10578190505b613f24613f1c85613ddc565b830182613ec3565b50505b505050565b600082821c905092915050565b6000613f4a60001984600802613f2c565b1980831691505092915050565b6000613f638383613f39565b9150826002028217905092915050565b613f7c82612ce2565b67ffffffffffffffff811115613f9557613f946130fe565b5b613f9f82546134c4565b613faa828285613ee6565b600060209050601f831160018114613fdd5760008415613fcb578287015190505b613fd58582613f57565b86555061403d565b601f198416613feb86613dc7565b60005b8281101561401357848901518255600182019150602085019450602081019050613fee565b86831015614030578489015161402c601f891682613f39565b8355505b6001600288020188555050505b505050505050565b7f5072696365206d757374206265206174206c65617374203120796f752067726560008201527f6564792062616420706572736f6e000000000000000000000000000000000000602082015250565b60006140a1602e83612ced565b91506140ac82614045565b604082019050919050565b600060208201905081810360008301526140d081614094565b9050919050565b600060a0820190506140ec6000830188612e29565b6140f96020830187612e29565b6141066040830186612ebf565b6141136060830185612cb8565b6141206080830184612cb8565b9695505050505050565b7f436f756e7465723a2064656372656d656e74206f766572666c6f770000000000600082015250565b6000614160601b83612ced565b915061416b8261412a565b602082019050919050565b6000602082019050818103600083015261418f81614153565b9050919050565b7f4552433732313a20617070726f766520746f2063616c6c657200000000000000600082015250565b60006141cc601983612ced565b91506141d782614196565b602082019050919050565b600060208201905081810360008301526141fb816141bf565b9050919050565b7f4552433732313a207472616e7366657220746f206e6f6e20455243373231526560008201527f63656976657220696d706c656d656e7465720000000000000000000000000000602082015250565b600061425e603283612ced565b915061426982614202565b604082019050919050565b6000602082019050818103600083015261428d81614251565b9050919050565b600081519050919050565b600082825260208201905092915050565b60006142bb82614294565b6142c5818561429f565b93506142d5818560208601612cfe565b6142de81612d28565b840191505092915050565b60006080820190506142fe6000830187612e29565b61430b6020830186612e29565b6143186040830185612ebf565b818103606083015261432a81846142b0565b905095945050505050565b60008151905061434481612c53565b92915050565b6000602082840312156143605761435f612c1d565b5b600061436e84828501614335565b91505092915050565b7f4e487b7100000000000000000000000000000000000000000000000000000000600052601260045260246000fdfea2646970667358221220be7f970b3b0442d126c226379405e008dbcc7add0adeeccbf8848983aa0b357664736f6c63430008130033",
  "linkReferences": {},
  "deployedLinkReferences": {}
}