{
  "_format": "hh-sol-artifact-1",
  "contractName": "SokratNFTMarket",
  "sourceName": "contracts/SokratNFTMarket.sol",
  "abi": [
    {
      "inputs": [],
      "stateMutability": "nonpayable",
      "type": "constructor"
    },
    {
      "anonymous": false,
      "inputs": [
        {
          "indexed": true,
          "internalType": "address",
          "name": "owner",
          "type": "address"
        },
        {
          "indexed": true,
          "internalType": "address",
          "name": "approved",
          "type": "address"
        },
        {
          "indexed": true,
          "internalType": "uint256",
          "name": "tokenId",
          "type": "uint256"
        }
      ],
      "name": "Approval",
      "type": "event"
    },
    {
      "anonymous": false,
      "inputs": [
        {
          "indexed": true,
          "internalType": "address",
          "name": "owner",
          "type": "address"
        },
        {
          "indexed": true,
          "internalType": "address",
          "name": "operator",
          "type": "address"
        },
        {
          "indexed": false,
          "internalType": "bool",
          "name": "approved",
          "type": "bool"
        }
      ],
      "name": "ApprovalForAll",
      "type": "event"
    },
    {
      "anonymous": false,
      "inputs": [
        {
          "indexed": false,
          "internalType": "uint256",
          "name": "_fromTokenId",
          "type": "uint256"
        },
        {
          "indexed": false,
          "internalType": "uint256",
          "name": "_toTokenId",
          "type": "uint256"
        }
      ],
      "name": "BatchMetadataUpdate",
      "type": "event"
    },
    {
      "anonymous": false,
      "inputs": [
        {
          "indexed": false,
          "internalType": "uint256",
          "name": "_tokenId",
          "type": "uint256"
        }
      ],
      "name": "MetadataUpdate",
      "type": "event"
    },
    {
      "anonymous": false,
      "inputs": [
        {
          "indexed": true,
          "internalType": "address",
          "name": "from",
          "type": "address"
        },
        {
          "indexed": true,
          "internalType": "address",
          "name": "to",
          "type": "address"
        },
        {
          "indexed": true,
          "internalType": "uint256",
          "name": "tokenId",
          "type": "uint256"
        }
      ],
      "name": "Transfer",
      "type": "event"
    },
    {
      "anonymous": false,
      "inputs": [
        {
          "indexed": true,
          "internalType": "uint256",
          "name": "tokenId",
          "type": "uint256"
        },
        {
          "indexed": false,
          "internalType": "address",
          "name": "seller",
          "type": "address"
        },
        {
          "indexed": false,
          "internalType": "address",
          "name": "owner",
          "type": "address"
        },
        {
          "indexed": false,
          "internalType": "uint256",
          "name": "price",
          "type": "uint256"
        },
        {
          "indexed": false,
          "internalType": "bool",
          "name": "sold",
          "type": "bool"
        }
      ],
      "name": "idMarketItemCreated",
      "type": "event"
    },
    {
      "inputs": [
        {
          "internalType": "address",
          "name": "to",
          "type": "address"
        },
        {
          "internalType": "uint256",
          "name": "tokenId",
          "type": "uint256"
        }
      ],
      "name": "approve",
      "outputs": [],
      "stateMutability": "nonpayable",
      "type": "function"
    },
    {
      "inputs": [
        {
          "internalType": "address",
          "name": "owner",
          "type": "address"
        }
      ],
      "name": "balanceOf",
      "outputs": [
        {
          "internalType": "uint256",
          "name": "",
          "type": "uint256"
        }
      ],
      "stateMutability": "view",
      "type": "function"
    },
    {
      "inputs": [
        {
          "internalType": "uint256",
          "name": "tokenId",
          "type": "uint256"
        }
      ],
      "name": "createMarketSale",
      "outputs": [],
      "stateMutability": "payable",
      "type": "function"
    },
    {
      "inputs": [
        {
          "internalType": "string",
          "name": "tokenURI",
          "type": "string"
        },
        {
          "internalType": "uint256",
          "name": "price",
          "type": "uint256"
        }
      ],
      "name": "createToken",
      "outputs": [
        {
          "internalType": "uint256",
          "name": "",
          "type": "uint256"
        }
      ],
      "stateMutability": "payable",
      "type": "function"
    },
    {
      "inputs": [],
      "name": "fetchItemsListed",
      "outputs": [
        {
          "components": [
            {
              "internalType": "uint256",
              "name": "tokenId",
              "type": "uint256"
            },
            {
              "internalType": "address payable",
              "name": "seller",
              "type": "address"
            },
            {
              "internalType": "address payable",
              "name": "owner",
              "type": "address"
            },
            {
              "internalType": "uint256",
              "name": "price",
              "type": "uint256"
            },
            {
              "internalType": "bool",
              "name": "sold",
              "type": "bool"
            }
          ],
          "internalType": "struct SokratNFTMarket.MarketItem[]",
          "name": "",
          "type": "tuple[]"
        }
      ],
      "stateMutability": "view",
      "type": "function"
    },
    {
      "inputs": [],
      "name": "fetchMarketItem",
      "outputs": [
        {
          "components": [
            {
              "internalType": "uint256",
              "name": "tokenId",
              "type": "uint256"
            },
            {
              "internalType": "address payable",
              "name": "seller",
              "type": "address"
            },
            {
              "internalType": "address payable",
              "name": "owner",
              "type": "address"
            },
            {
              "internalType": "uint256",
              "name": "price",
              "type": "uint256"
            },
            {
              "internalType": "bool",
              "name": "sold",
              "type": "bool"
            }
          ],
          "internalType": "struct SokratNFTMarket.MarketItem[]",
          "name": "",
          "type": "tuple[]"
        }
      ],
      "stateMutability": "view",
      "type": "function"
    },
    {
      "inputs": [],
      "name": "fetchNFT",
      "outputs": [
        {
          "components": [
            {
              "internalType": "uint256",
              "name": "tokenId",
              "type": "uint256"
            },
            {
              "internalType": "address payable",
              "name": "seller",
              "type": "address"
            },
            {
              "internalType": "address payable",
              "name": "owner",
              "type": "address"
            },
            {
              "internalType": "uint256",
              "name": "price",
              "type": "uint256"
            },
            {
              "internalType": "bool",
              "name": "sold",
              "type": "bool"
            }
          ],
          "internalType": "struct SokratNFTMarket.MarketItem[]",
          "name": "",
          "type": "tuple[]"
        }
      ],
      "stateMutability": "view",
      "type": "function"
    },
    {
      "inputs": [
        {
          "internalType": "uint256",
          "name": "tokenId",
          "type": "uint256"
        }
      ],
      "name": "getApproved",
      "outputs": [
        {
          "internalType": "address",
          "name": "",
          "type": "address"
        }
      ],
      "stateMutability": "view",
      "type": "function"
    },
    {
      "inputs": [],
      "name": "getListingPrice",
      "outputs": [
        {
          "internalType": "uint256",
          "name": "",
          "type": "uint256"
        }
      ],
      "stateMutability": "view",
      "type": "function"
    },
    {
      "inputs": [
        {
          "internalType": "address",
          "name": "owner",
          "type": "address"
        },
        {
          "internalType": "address",
          "name": "operator",
          "type": "address"
        }
      ],
      "name": "isApprovedForAll",
      "outputs": [
        {
          "internalType": "bool",
          "name": "",
          "type": "bool"
        }
      ],
      "stateMutability": "view",
      "type": "function"
    },
    {
      "inputs": [],
      "name": "name",
      "outputs": [
        {
          "internalType": "string",
          "name": "",
          "type": "string"
        }
      ],
      "stateMutability": "view",
      "type": "function"
    },
    {
      "inputs": [
        {
          "internalType": "uint256",
          "name": "tokenId",
          "type": "uint256"
        }
      ],
      "name": "ownerOf",
      "outputs": [
        {
          "internalType": "address",
          "name": "",
          "type": "address"
        }
      ],
      "stateMutability": "view",
      "type": "function"
    },
    {
      "inputs": [
        {
          "internalType": "uint256",
          "name": "tokenId",
          "type": "uint256"
        },
        {
          "internalType": "uint256",
          "name": "price",
          "type": "uint256"
        }
      ],
      "name": "reSellToken",
      "outputs": [],
      "stateMutability": "payable",
      "type": "function"
    },
    {
      "inputs": [
        {
          "internalType": "address",
          "name": "from",
          "type": "address"
        },
        {
          "internalType": "address",
          "name": "to",
          "type": "address"
        },
        {
          "internalType": "uint256",
          "name": "tokenId",
          "type": "uint256"
        }
      ],
      "name": "safeTransferFrom",
      "outputs": [],
      "stateMutability": "nonpayable",
      "type": "function"
    },
    {
      "inputs": [
        {
          "internalType": "address",
          "name": "from",
          "type": "address"
        },
        {
          "internalType": "address",
          "name": "to",
          "type": "address"
        },
        {
          "internalType": "uint256",
          "name": "tokenId",
          "type": "uint256"
        },
        {
          "internalType": "bytes",
          "name": "data",
          "type": "bytes"
        }
      ],
      "name": "safeTransferFrom",
      "outputs": [],
      "stateMutability": "nonpayable",
      "type": "function"
    },
    {
      "inputs": [
        {
          "internalType": "address",
          "name": "operator",
          "type": "address"
        },
        {
          "internalType": "bool",
          "name": "approved",
          "type": "bool"
        }
      ],
      "name": "setApprovalForAll",
      "outputs": [],
      "stateMutability": "nonpayable",
      "type": "function"
    },
    {
      "inputs": [
        {
          "internalType": "bytes4",
          "name": "interfaceId",
          "type": "bytes4"
        }
      ],
      "name": "supportsInterface",
      "outputs": [
        {
          "internalType": "bool",
          "name": "",
          "type": "bool"
        }
      ],
      "stateMutability": "view",
      "type": "function"
    },
    {
      "inputs": [],
      "name": "symbol",
      "outputs": [
        {
          "internalType": "string",
          "name": "",
          "type": "string"
        }
      ],
      "stateMutability": "view",
      "type": "function"
    },
    {
      "inputs": [
        {
          "internalType": "uint256",
          "name": "tokenId",
          "type": "uint256"
        }
      ],
      "name": "tokenURI",
      "outputs": [
        {
          "internalType": "string",
          "name": "",
          "type": "string"
        }
      ],
      "stateMutability": "view",
      "type": "function"
    },
    {
      "inputs": [
        {
          "internalType": "address",
          "name": "from",
          "type": "address"
        },
        {
          "internalType": "address",
          "name": "to",
          "type": "address"
        },
        {
          "internalType": "uint256",
          "name": "tokenId",
          "type": "uint256"
        }
      ],
      "name": "transferFrom",
      "outputs": [],
      "stateMutability": "nonpayable",
      "type": "function"
    },
    {
      "inputs": [
        {
          "internalType": "uint256",
          "name": "_listingPrice",
          "type": "uint256"
        }
      ],
      "name": "updateListingPrice",
      "outputs": [],
      "stateMutability": "payable",
      "type": "function"
    }
  ],
  "bytecode": "0x60806040526608e1bc9bf04000600a553480156200001c57600080fd5b506040518060400160405280601181526020017f536f6b726174204e4654204d61726b65740000000000000000000000000000008152506040518060400160405280600481526020017f534e46540000000000000000000000000000000000000000000000000000000081525081600090816200009a919062000355565b508060019081620000ac919062000355565b5050503373ffffffffffffffffffffffffffffffffffffffff16600960009054906101000a905050506200043c565b600081519050919050565b7f4e487b7100000000000000000000000000000000000000000000000000000000600052604160045260246000fd5b7f4e487b7100000000000000000000000000000000000000000000000000000000600052602260045260246000fd5b600060028204905060018216806200015d57607f821691505b60208210810362000173576200017262000115565b5b50919050565b60008190508160005260206000209050919050565b60006020601f8301049050919050565b600082821b905092915050565b600060088302620001dd7fffffffffffffffffffffffffffffffffffffffffffffffffffffffffffffffff826200019e565b620001e986836200019e565b95508019841693508086168417925050509392505050565b6000819050919050565b6000819050919050565b600062000236620002306200022a8462000201565b6200020b565b62000201565b9050919050565b6000819050919050565b620002528362000215565b6200026a62000261826200023d565b848454620001ab565b825550505050565b600090565b6200028162000272565b6200028e81848462000247565b505050565b5b81811015620002b657620002aa60008262000277565b60018101905062000294565b5050565b601f8211156200030557620002cf8162000179565b620002da846200018e565b81016020851015620002ea578190505b62000302620002f9856200018e565b83018262000293565b50505b505050565b600082821c905092915050565b60006200032a600019846008026200030a565b1980831691505092915050565b600062000345838362000317565b9150826002028217905092915050565b6200036082620000db565b67ffffffffffffffff8111156200037c576200037b620000e6565b5b62000388825462000144565b62000395828285620002ba565b600060209050601f831160018114620003cd5760008415620003b8578287015190505b620003c4858262000337565b86555062000434565b601f198416620003dd8662000179565b60005b828110156200040757848901518255600182019150602085019450602081019050620003e0565b8683101562000427578489015162000423601f89168262000317565b8355505b6001600288020188555050505b505050505050565b614282806200044c6000396000f3fe60806040526004361061012a5760003560e01c806370a08231116100ab578063a22cb4651161006f578063a22cb465146103ec578063ae677aa314610415578063b88d4fde14610431578063be9af5361461045a578063c87b56dd14610476578063e985e9c5146104b35761012a565b806370a082311461030d57806372b3b6201461034a57806385535b251461037a5780638fafd0211461039657806395d89b41146103c15761012a565b806315f150bc116100f257806315f150bc1461022857806323b872dd1461025357806342842e0e1461027c57806345f8fa80146102a55780636352211e146102d05761012a565b806301ffc9a71461012f57806306fdde031461016c578063081812fc14610197578063095ea7b3146101d457806312e85585146101fd575b600080fd5b34801561013b57600080fd5b5061015660048036038101906101519190612b46565b6104f0565b6040516101639190612b8e565b60405180910390f35b34801561017857600080fd5b50610181610551565b60405161018e9190612c39565b60405180910390f35b3480156101a357600080fd5b506101be60048036038101906101b99190612c91565b6105e3565b6040516101cb9190612cff565b60405180910390f35b3480156101e057600080fd5b506101fb60048036038101906101f69190612d46565b610629565b005b34801561020957600080fd5b50610212610740565b60405161021f9190612d95565b60405180910390f35b34801561023457600080fd5b5061023d61074a565b60405161024a9190612f06565b60405180910390f35b34801561025f57600080fd5b5061027a60048036038101906102759190612f28565b610a34565b005b34801561028857600080fd5b506102a3600480360381019061029e9190612f28565b610a94565b005b3480156102b157600080fd5b506102ba610ab4565b6040516102c79190612f06565b60405180910390f35b3480156102dc57600080fd5b506102f760048036038101906102f29190612c91565b610d9e565b6040516103049190612cff565b60405180910390f35b34801561031957600080fd5b50610334600480360381019061032f9190612f7b565b610e24565b6040516103419190612d95565b60405180910390f35b610364600480360381019061035f91906130dd565b610edb565b6040516103719190612d95565b60405180910390f35b610394600480360381019061038f9190613139565b610f1d565b005b3480156103a257600080fd5b506103ab611112565b6040516103b89190612f06565b60405180910390f35b3480156103cd57600080fd5b506103d6611379565b6040516103e39190612c39565b60405180910390f35b3480156103f857600080fd5b50610413600480360381019061040e91906131a5565b61140b565b005b61042f600480360381019061042a9190612c91565b611421565b005b34801561043d57600080fd5b5061045860048036038101906104539190613286565b6114bb565b005b610474600480360381019061046f9190612c91565b61151d565b005b34801561048257600080fd5b5061049d60048036038101906104989190612c91565b611755565b6040516104aa9190612c39565b60405180910390f35b3480156104bf57600080fd5b506104da60048036038101906104d59190613309565b611867565b6040516104e79190612b8e565b60405180910390f35b6000634906490660e01b7bffffffffffffffffffffffffffffffffffffffffffffffffffffffff1916827bffffffffffffffffffffffffffffffffffffffffffffffffffffffff1916148061054a5750610549826118fb565b5b9050919050565b60606000805461056090613378565b80601f016020809104026020016040519081016040528092919081815260200182805461058c90613378565b80156105d95780601f106105ae576101008083540402835291602001916105d9565b820191906000526020600020905b8154815290600101906020018083116105bc57829003601f168201915b5050505050905090565b60006105ee826119dd565b6004600083815260200190815260200160002060009054906101000a900473ffffffffffffffffffffffffffffffffffffffff169050919050565b600061063482610d9e565b90508073ffffffffffffffffffffffffffffffffffffffff168373ffffffffffffffffffffffffffffffffffffffff16036106a4576040517f08c379a000000000000000000000000000000000000000000000000000000000815260040161069b9061341b565b60405180910390fd5b8073ffffffffffffffffffffffffffffffffffffffff166106c3611a28565b73ffffffffffffffffffffffffffffffffffffffff1614806106f257506106f1816106ec611a28565b611867565b5b610731576040517f08c379a0000000000000000000000000000000000000000000000000000000008152600401610728906134ad565b60405180910390fd5b61073b8383611a30565b505050565b6000600a54905090565b606060006107586007611ae9565b905060008060005b838110156107ff573373ffffffffffffffffffffffffffffffffffffffff16600b600060018461079091906134fc565b815260200190815260200160002060020160009054906101000a900473ffffffffffffffffffffffffffffffffffffffff1673ffffffffffffffffffffffffffffffffffffffff16036107ec5782806107e890613530565b9350505b80806107f790613530565b915050610760565b5060008267ffffffffffffffff81111561081c5761081b612fb2565b5b60405190808252806020026020018201604052801561085557816020015b610842612a7d565b81526020019060019003908161083a5790505b50905060005b84811015610a29573373ffffffffffffffffffffffffffffffffffffffff16600b600060018461088b91906134fc565b815260200190815260200160002060020160009054906101000a900473ffffffffffffffffffffffffffffffffffffffff1673ffffffffffffffffffffffffffffffffffffffff1603610a165760006001826108e791906134fc565b90506000600b60008381526020019081526020016000209050806040518060a0016040529081600082015481526020016001820160009054906101000a900473ffffffffffffffffffffffffffffffffffffffff1673ffffffffffffffffffffffffffffffffffffffff1673ffffffffffffffffffffffffffffffffffffffff1681526020016002820160009054906101000a900473ffffffffffffffffffffffffffffffffffffffff1673ffffffffffffffffffffffffffffffffffffffff1673ffffffffffffffffffffffffffffffffffffffff168152602001600382015481526020016004820160009054906101000a900460ff1615151515815250508486815181106109fa576109f9613578565b5b60200260200101819052508480610a1090613530565b95505050505b8080610a2190613530565b91505061085b565b508094505050505090565b610a45610a3f611a28565b82611af7565b610a84576040517f08c379a0000000000000000000000000000000000000000000000000000000008152600401610a7b90613619565b60405180910390fd5b610a8f838383611b8c565b505050565b610aaf838383604051806020016040528060008152506114bb565b505050565b60606000610ac26007611ae9565b905060008060005b83811015610b69573373ffffffffffffffffffffffffffffffffffffffff16600b6000600184610afa91906134fc565b815260200190815260200160002060010160009054906101000a900473ffffffffffffffffffffffffffffffffffffffff1673ffffffffffffffffffffffffffffffffffffffff1603610b56578280610b5290613530565b9350505b8080610b6190613530565b915050610aca565b5060008267ffffffffffffffff811115610b8657610b85612fb2565b5b604051908082528060200260200182016040528015610bbf57816020015b610bac612a7d565b815260200190600190039081610ba45790505b50905060005b84811015610d93573373ffffffffffffffffffffffffffffffffffffffff16600b6000600184610bf591906134fc565b815260200190815260200160002060010160009054906101000a900473ffffffffffffffffffffffffffffffffffffffff1673ffffffffffffffffffffffffffffffffffffffff1603610d80576000600182610c5191906134fc565b90506000600b60008381526020019081526020016000209050806040518060a0016040529081600082015481526020016001820160009054906101000a900473ffffffffffffffffffffffffffffffffffffffff1673ffffffffffffffffffffffffffffffffffffffff1673ffffffffffffffffffffffffffffffffffffffff1681526020016002820160009054906101000a900473ffffffffffffffffffffffffffffffffffffffff1673ffffffffffffffffffffffffffffffffffffffff1673ffffffffffffffffffffffffffffffffffffffff168152602001600382015481526020016004820160009054906101000a900460ff161515151581525050848681518110610d6457610d63613578565b5b60200260200101819052508480610d7a90613530565b95505050505b8080610d8b90613530565b915050610bc5565b508094505050505090565b600080610daa83611e85565b9050600073ffffffffffffffffffffffffffffffffffffffff168173ffffffffffffffffffffffffffffffffffffffff1603610e1b576040517f08c379a0000000000000000000000000000000000000000000000000000000008152600401610e1290613685565b60405180910390fd5b80915050919050565b60008073ffffffffffffffffffffffffffffffffffffffff168273ffffffffffffffffffffffffffffffffffffffff1603610e94576040517f08c379a0000000000000000000000000000000000000000000000000000000008152600401610e8b90613717565b60405180910390fd5b600360008373ffffffffffffffffffffffffffffffffffffffff1673ffffffffffffffffffffffffffffffffffffffff168152602001908152602001600020549050919050565b6000610ee76007611ec2565b6000610ef36007611ae9565b9050610eff3382611ed8565b610f0981856120f5565b610f138184612199565b8091505092915050565b3373ffffffffffffffffffffffffffffffffffffffff16600b600084815260200190815260200160002060020160009054906101000a900473ffffffffffffffffffffffffffffffffffffffff1673ffffffffffffffffffffffffffffffffffffffff1614610fc1576040517f08c379a0000000000000000000000000000000000000000000000000000000008152600401610fb890613783565b60405180910390fd5b600a543414611005576040517f08c379a0000000000000000000000000000000000000000000000000000000008152600401610ffc90613815565b60405180910390fd5b6000600b600084815260200190815260200160002060040160006101000a81548160ff02191690831515021790555080600b60008481526020019081526020016000206003018190555033600b600084815260200190815260200160002060010160006101000a81548173ffffffffffffffffffffffffffffffffffffffff021916908373ffffffffffffffffffffffffffffffffffffffff16021790555030600b600084815260200190815260200160002060020160006101000a81548173ffffffffffffffffffffffffffffffffffffffff021916908373ffffffffffffffffffffffffffffffffffffffff1602179055506111036008612358565b61110e333084611b8c565b5050565b606060006111206007611ae9565b9050600061112e6008611ae9565b6111386007611ae9565b6111429190613835565b90506000808267ffffffffffffffff81111561116157611160612fb2565b5b60405190808252806020026020018201604052801561119a57816020015b611187612a7d565b81526020019060019003908161117f5790505b50905060005b8481101561136e573073ffffffffffffffffffffffffffffffffffffffff16600b60006001846111d091906134fc565b815260200190815260200160002060020160009054906101000a900473ffffffffffffffffffffffffffffffffffffffff1673ffffffffffffffffffffffffffffffffffffffff160361135b57600060018261122c91906134fc565b90506000600b60008381526020019081526020016000209050806040518060a0016040529081600082015481526020016001820160009054906101000a900473ffffffffffffffffffffffffffffffffffffffff1673ffffffffffffffffffffffffffffffffffffffff1673ffffffffffffffffffffffffffffffffffffffff1681526020016002820160009054906101000a900473ffffffffffffffffffffffffffffffffffffffff1673ffffffffffffffffffffffffffffffffffffffff1673ffffffffffffffffffffffffffffffffffffffff168152602001600382015481526020016004820160009054906101000a900460ff16151515158152505084868151811061133f5761133e613578565b5b6020026020010181905250848061135590613530565b95505050505b808061136690613530565b9150506111a0565b508094505050505090565b60606001805461138890613378565b80601f01602080910402602001604051908101604052809291908181526020018280546113b490613378565b80156114015780601f106113d657610100808354040283529160200191611401565b820191906000526020600020905b8154815290600101906020018083116113e457829003601f168201915b5050505050905090565b61141d611416611a28565b83836123b4565b5050565b600960009054906101000a900473ffffffffffffffffffffffffffffffffffffffff1673ffffffffffffffffffffffffffffffffffffffff163373ffffffffffffffffffffffffffffffffffffffff16146114b1576040517f08c379a00000000000000000000000000000000000000000000000000000000081526004016114a8906138db565b60405180910390fd5b80600a8190555050565b6114cc6114c6611a28565b83611af7565b61150b576040517f08c379a000000000000000000000000000000000000000000000000000000000815260040161150290613619565b60405180910390fd5b61151784848484612520565b50505050565b6000600b600083815260200190815260200160002060030154905080341461157a576040517f08c379a00000000000000000000000000000000000000000000000000000000081526004016115719061396d565b60405180910390fd5b33600b600084815260200190815260200160002060020160006101000a81548173ffffffffffffffffffffffffffffffffffffffff021916908373ffffffffffffffffffffffffffffffffffffffff1602179055506001600b600084815260200190815260200160002060040160006101000a81548160ff0219169083151502179055506000600b600084815260200190815260200160002060020160006101000a81548173ffffffffffffffffffffffffffffffffffffffff021916908373ffffffffffffffffffffffffffffffffffffffff16021790555061165e6008611ec2565b611669303384611b8c565b600960009054906101000a900473ffffffffffffffffffffffffffffffffffffffff1673ffffffffffffffffffffffffffffffffffffffff166108fc600a549081150290604051600060405180830381858888f193505050501580156116d3573d6000803e3d6000fd5b50600b600083815260200190815260200160002060010160009054906101000a900473ffffffffffffffffffffffffffffffffffffffff1673ffffffffffffffffffffffffffffffffffffffff166108fc349081150290604051600060405180830381858888f19350505050158015611750573d6000803e3d6000fd5b505050565b6060611760826119dd565b600060066000848152602001908152602001600020805461178090613378565b80601f01602080910402602001604051908101604052809291908181526020018280546117ac90613378565b80156117f95780601f106117ce576101008083540402835291602001916117f9565b820191906000526020600020905b8154815290600101906020018083116117dc57829003601f168201915b50505050509050600061180a61257c565b9050600081510361181f578192505050611862565b60008251111561185457808260405160200161183c9291906139c9565b60405160208183030381529060405292505050611862565b61185d84612593565b925050505b919050565b6000600560008473ffffffffffffffffffffffffffffffffffffffff1673ffffffffffffffffffffffffffffffffffffffff16815260200190815260200160002060008373ffffffffffffffffffffffffffffffffffffffff1673ffffffffffffffffffffffffffffffffffffffff16815260200190815260200160002060009054906101000a900460ff16905092915050565b60007f80ac58cd000000000000000000000000000000000000000000000000000000007bffffffffffffffffffffffffffffffffffffffffffffffffffffffff1916827bffffffffffffffffffffffffffffffffffffffffffffffffffffffff191614806119c657507f5b5e139f000000000000000000000000000000000000000000000000000000007bffffffffffffffffffffffffffffffffffffffffffffffffffffffff1916827bffffffffffffffffffffffffffffffffffffffffffffffffffffffff1916145b806119d657506119d5826125fb565b5b9050919050565b6119e681612665565b611a25576040517f08c379a0000000000000000000000000000000000000000000000000000000008152600401611a1c90613685565b60405180910390fd5b50565b600033905090565b816004600083815260200190815260200160002060006101000a81548173ffffffffffffffffffffffffffffffffffffffff021916908373ffffffffffffffffffffffffffffffffffffffff160217905550808273ffffffffffffffffffffffffffffffffffffffff16611aa383610d9e565b73ffffffffffffffffffffffffffffffffffffffff167f8c5be1e5ebec7d5bd14f71427d1e84f3dd0314c0f7b2291e5b200ac8c7c3b92560405160405180910390a45050565b600081600001549050919050565b600080611b0383610d9e565b90508073ffffffffffffffffffffffffffffffffffffffff168473ffffffffffffffffffffffffffffffffffffffff161480611b455750611b448185611867565b5b80611b8357508373ffffffffffffffffffffffffffffffffffffffff16611b6b846105e3565b73ffffffffffffffffffffffffffffffffffffffff16145b91505092915050565b8273ffffffffffffffffffffffffffffffffffffffff16611bac82610d9e565b73ffffffffffffffffffffffffffffffffffffffff1614611c02576040517f08c379a0000000000000000000000000000000000000000000000000000000008152600401611bf990613a5f565b60405180910390fd5b600073ffffffffffffffffffffffffffffffffffffffff168273ffffffffffffffffffffffffffffffffffffffff1603611c71576040517f08c379a0000000000000000000000000000000000000000000000000000000008152600401611c6890613af1565b60405180910390fd5b611c7e83838360016126a6565b8273ffffffffffffffffffffffffffffffffffffffff16611c9e82610d9e565b73ffffffffffffffffffffffffffffffffffffffff1614611cf4576040517f08c379a0000000000000000000000000000000000000000000000000000000008152600401611ceb90613a5f565b60405180910390fd5b6004600082815260200190815260200160002060006101000a81549073ffffffffffffffffffffffffffffffffffffffff02191690556001600360008573ffffffffffffffffffffffffffffffffffffffff1673ffffffffffffffffffffffffffffffffffffffff168152602001908152602001600020600082825403925050819055506001600360008473ffffffffffffffffffffffffffffffffffffffff1673ffffffffffffffffffffffffffffffffffffffff16815260200190815260200160002060008282540192505081905550816002600083815260200190815260200160002060006101000a81548173ffffffffffffffffffffffffffffffffffffffff021916908373ffffffffffffffffffffffffffffffffffffffff160217905550808273ffffffffffffffffffffffffffffffffffffffff168473ffffffffffffffffffffffffffffffffffffffff167fddf252ad1be2c89b69c2b068fc378daa952ba7f163c4a11628f55a4df523b3ef60405160405180910390a4611e8083838360016126ac565b505050565b60006002600083815260200190815260200160002060009054906101000a900473ffffffffffffffffffffffffffffffffffffffff169050919050565b6001816000016000828254019250508190555050565b600073ffffffffffffffffffffffffffffffffffffffff168273ffffffffffffffffffffffffffffffffffffffff1603611f47576040517f08c379a0000000000000000000000000000000000000000000000000000000008152600401611f3e90613b5d565b60405180910390fd5b611f5081612665565b15611f90576040517f08c379a0000000000000000000000000000000000000000000000000000000008152600401611f8790613bc9565b60405180910390fd5b611f9e6000838360016126a6565b611fa781612665565b15611fe7576040517f08c379a0000000000000000000000000000000000000000000000000000000008152600401611fde90613bc9565b60405180910390fd5b6001600360008473ffffffffffffffffffffffffffffffffffffffff1673ffffffffffffffffffffffffffffffffffffffff16815260200190815260200160002060008282540192505081905550816002600083815260200190815260200160002060006101000a81548173ffffffffffffffffffffffffffffffffffffffff021916908373ffffffffffffffffffffffffffffffffffffffff160217905550808273ffffffffffffffffffffffffffffffffffffffff16600073ffffffffffffffffffffffffffffffffffffffff167fddf252ad1be2c89b69c2b068fc378daa952ba7f163c4a11628f55a4df523b3ef60405160405180910390a46120f16000838360016126ac565b5050565b6120fe82612665565b61213d576040517f08c379a000000000000000000000000000000000000000000000000000000000815260040161213490613c5b565b60405180910390fd5b8060066000848152602001908152602001600020908161215d9190613e27565b507ff8e1a15aba9398e019f0b49df1a4fde98ee17ae345cb5f6b5e2c27f5033e8ce78260405161218d9190612d95565b60405180910390a15050565b600081116121dc576040517f08c379a00000000000000000000000000000000000000000000000000000000081526004016121d390613f6b565b60405180910390fd5b6040518060a001604052808381526020013373ffffffffffffffffffffffffffffffffffffffff1681526020013073ffffffffffffffffffffffffffffffffffffffff16815260200182815260200160001515815250600b60008481526020019081526020016000206000820151816000015560208201518160010160006101000a81548173ffffffffffffffffffffffffffffffffffffffff021916908373ffffffffffffffffffffffffffffffffffffffff16021790555060408201518160020160006101000a81548173ffffffffffffffffffffffffffffffffffffffff021916908373ffffffffffffffffffffffffffffffffffffffff1602179055506060820151816003015560808201518160040160006101000a81548160ff021916908315150217905550905050612315333084611b8c565b817fdebdb32cb5230ab727c9c361b16fdb2015df225c10e6a3e7f60ecd5dc5be4516333084600060405161234c9493929190613f8b565b60405180910390a25050565b600081600001549050600081116123a4576040517f08c379a000000000000000000000000000000000000000000000000000000000815260040161239b9061401c565b60405180910390fd5b6001810382600001819055505050565b8173ffffffffffffffffffffffffffffffffffffffff168373ffffffffffffffffffffffffffffffffffffffff1603612422576040517f08c379a000000000000000000000000000000000000000000000000000000000815260040161241990614088565b60405180910390fd5b80600560008573ffffffffffffffffffffffffffffffffffffffff1673ffffffffffffffffffffffffffffffffffffffff16815260200190815260200160002060008473ffffffffffffffffffffffffffffffffffffffff1673ffffffffffffffffffffffffffffffffffffffff16815260200190815260200160002060006101000a81548160ff0219169083151502179055508173ffffffffffffffffffffffffffffffffffffffff168373ffffffffffffffffffffffffffffffffffffffff167f17307eab39ab6107e8899845ad3d59bd9653f200f220920489ca2b5937696c31836040516125139190612b8e565b60405180910390a3505050565b61252b848484611b8c565b612537848484846126b2565b612576576040517f08c379a000000000000000000000000000000000000000000000000000000000815260040161256d9061411a565b60405180910390fd5b50505050565b606060405180602001604052806000815250905090565b606061259e826119dd565b60006125a861257c565b905060008151116125c857604051806020016040528060008152506125f3565b806125d284612839565b6040516020016125e39291906139c9565b6040516020818303038152906040525b915050919050565b60007f01ffc9a7000000000000000000000000000000000000000000000000000000007bffffffffffffffffffffffffffffffffffffffffffffffffffffffff1916827bffffffffffffffffffffffffffffffffffffffffffffffffffffffff1916149050919050565b60008073ffffffffffffffffffffffffffffffffffffffff1661268783611e85565b73ffffffffffffffffffffffffffffffffffffffff1614159050919050565b50505050565b50505050565b60006126d38473ffffffffffffffffffffffffffffffffffffffff16612907565b1561282c578373ffffffffffffffffffffffffffffffffffffffff1663150b7a026126fc611a28565b8786866040518563ffffffff1660e01b815260040161271e949392919061418f565b6020604051808303816000875af192505050801561275a57506040513d601f19601f8201168201806040525081019061275791906141f0565b60015b6127dc573d806000811461278a576040519150601f19603f3d011682016040523d82523d6000602084013e61278f565b606091505b5060008151036127d4576040517f08c379a00000000000000000000000000000000000000000000000000000000081526004016127cb9061411a565b60405180910390fd5b805181602001fd5b63150b7a0260e01b7bffffffffffffffffffffffffffffffffffffffffffffffffffffffff1916817bffffffffffffffffffffffffffffffffffffffffffffffffffffffff191614915050612831565b600190505b949350505050565b6060600060016128488461292a565b01905060008167ffffffffffffffff81111561286757612866612fb2565b5b6040519080825280601f01601f1916602001820160405280156128995781602001600182028036833780820191505090505b509050600082602001820190505b6001156128fc578080600190039150507f3031323334353637383961626364656600000000000000000000000000000000600a86061a8153600a85816128f0576128ef61421d565b5b049450600085036128a7575b819350505050919050565b6000808273ffffffffffffffffffffffffffffffffffffffff163b119050919050565b600080600090507a184f03e93ff9f4daa797ed6e38ed64bf6a1f0100000000000000008310612988577a184f03e93ff9f4daa797ed6e38ed64bf6a1f010000000000000000838161297e5761297d61421d565b5b0492506040810190505b6d04ee2d6d415b85acef810000000083106129c5576d04ee2d6d415b85acef810000000083816129bb576129ba61421d565b5b0492506020810190505b662386f26fc1000083106129f457662386f26fc1000083816129ea576129e961421d565b5b0492506010810190505b6305f5e1008310612a1d576305f5e1008381612a1357612a1261421d565b5b0492506008810190505b6127108310612a42576127108381612a3857612a3761421d565b5b0492506004810190505b60648310612a655760648381612a5b57612a5a61421d565b5b0492506002810190505b600a8310612a74576001810190505b80915050919050565b6040518060a0016040528060008152602001600073ffffffffffffffffffffffffffffffffffffffff168152602001600073ffffffffffffffffffffffffffffffffffffffff168152602001600081526020016000151581525090565b6000604051905090565b600080fd5b600080fd5b60007fffffffff0000000000000000000000000000000000000000000000000000000082169050919050565b612b2381612aee565b8114612b2e57600080fd5b50565b600081359050612b4081612b1a565b92915050565b600060208284031215612b5c57612b5b612ae4565b5b6000612b6a84828501612b31565b91505092915050565b60008115159050919050565b612b8881612b73565b82525050565b6000602082019050612ba36000830184612b7f565b92915050565b600081519050919050565b600082825260208201905092915050565b60005b83811015612be3578082015181840152602081019050612bc8565b60008484015250505050565b6000601f19601f8301169050919050565b6000612c0b82612ba9565b612c158185612bb4565b9350612c25818560208601612bc5565b612c2e81612bef565b840191505092915050565b60006020820190508181036000830152612c538184612c00565b905092915050565b6000819050919050565b612c6e81612c5b565b8114612c7957600080fd5b50565b600081359050612c8b81612c65565b92915050565b600060208284031215612ca757612ca6612ae4565b5b6000612cb584828501612c7c565b91505092915050565b600073ffffffffffffffffffffffffffffffffffffffff82169050919050565b6000612ce982612cbe565b9050919050565b612cf981612cde565b82525050565b6000602082019050612d146000830184612cf0565b92915050565b612d2381612cde565b8114612d2e57600080fd5b50565b600081359050612d4081612d1a565b92915050565b60008060408385031215612d5d57612d5c612ae4565b5b6000612d6b85828601612d31565b9250506020612d7c85828601612c7c565b9150509250929050565b612d8f81612c5b565b82525050565b6000602082019050612daa6000830184612d86565b92915050565b600081519050919050565b600082825260208201905092915050565b6000819050602082019050919050565b612de581612c5b565b82525050565b6000612df682612cbe565b9050919050565b612e0681612deb565b82525050565b612e1581612b73565b82525050565b60a082016000820151612e316000850182612ddc565b506020820151612e446020850182612dfd565b506040820151612e576040850182612dfd565b506060820151612e6a6060850182612ddc565b506080820151612e7d6080850182612e0c565b50505050565b6000612e8f8383612e1b565b60a08301905092915050565b6000602082019050919050565b6000612eb382612db0565b612ebd8185612dbb565b9350612ec883612dcc565b8060005b83811015612ef9578151612ee08882612e83565b9750612eeb83612e9b565b925050600181019050612ecc565b5085935050505092915050565b60006020820190508181036000830152612f208184612ea8565b905092915050565b600080600060608486031215612f4157612f40612ae4565b5b6000612f4f86828701612d31565b9350506020612f6086828701612d31565b9250506040612f7186828701612c7c565b9150509250925092565b600060208284031215612f9157612f90612ae4565b5b6000612f9f84828501612d31565b91505092915050565b600080fd5b600080fd5b7f4e487b7100000000000000000000000000000000000000000000000000000000600052604160045260246000fd5b612fea82612bef565b810181811067ffffffffffffffff8211171561300957613008612fb2565b5b80604052505050565b600061301c612ada565b90506130288282612fe1565b919050565b600067ffffffffffffffff82111561304857613047612fb2565b5b61305182612bef565b9050602081019050919050565b82818337600083830152505050565b600061308061307b8461302d565b613012565b90508281526020810184848401111561309c5761309b612fad565b5b6130a784828561305e565b509392505050565b600082601f8301126130c4576130c3612fa8565b5b81356130d484826020860161306d565b91505092915050565b600080604083850312156130f4576130f3612ae4565b5b600083013567ffffffffffffffff81111561311257613111612ae9565b5b61311e858286016130af565b925050602061312f85828601612c7c565b9150509250929050565b600080604083850312156131505761314f612ae4565b5b600061315e85828601612c7c565b925050602061316f85828601612c7c565b9150509250929050565b61318281612b73565b811461318d57600080fd5b50565b60008135905061319f81613179565b92915050565b600080604083850312156131bc576131bb612ae4565b5b60006131ca85828601612d31565b92505060206131db85828601613190565b9150509250929050565b600067ffffffffffffffff821115613200576131ff612fb2565b5b61320982612bef565b9050602081019050919050565b6000613229613224846131e5565b613012565b90508281526020810184848401111561324557613244612fad565b5b61325084828561305e565b509392505050565b600082601f83011261326d5761326c612fa8565b5b813561327d848260208601613216565b91505092915050565b600080600080608085870312156132a05761329f612ae4565b5b60006132ae87828801612d31565b94505060206132bf87828801612d31565b93505060406132d087828801612c7c565b925050606085013567ffffffffffffffff8111156132f1576132f0612ae9565b5b6132fd87828801613258565b91505092959194509250565b600080604083850312156133205761331f612ae4565b5b600061332e85828601612d31565b925050602061333f85828601612d31565b9150509250929050565b7f4e487b7100000000000000000000000000000000000000000000000000000000600052602260045260246000fd5b6000600282049050600182168061339057607f821691505b6020821081036133a3576133a2613349565b5b50919050565b7f4552433732313a20617070726f76616c20746f2063757272656e74206f776e6560008201527f7200000000000000000000000000000000000000000000000000000000000000602082015250565b6000613405602183612bb4565b9150613410826133a9565b604082019050919050565b60006020820190508181036000830152613434816133f8565b9050919050565b7f4552433732313a20617070726f76652063616c6c6572206973206e6f7420746f60008201527f6b656e206f776e6572206f7220617070726f76656420666f7220616c6c000000602082015250565b6000613497603d83612bb4565b91506134a28261343b565b604082019050919050565b600060208201905081810360008301526134c68161348a565b9050919050565b7f4e487b7100000000000000000000000000000000000000000000000000000000600052601160045260246000fd5b600061350782612c5b565b915061351283612c5b565b925082820190508082111561352a576135296134cd565b5b92915050565b600061353b82612c5b565b91507fffffffffffffffffffffffffffffffffffffffffffffffffffffffffffffffff820361356d5761356c6134cd565b5b600182019050919050565b7f4e487b7100000000000000000000000000000000000000000000000000000000600052603260045260246000fd5b7f4552433732313a2063616c6c6572206973206e6f7420746f6b656e206f776e6560008201527f72206f7220617070726f76656400000000000000000000000000000000000000602082015250565b6000613603602d83612bb4565b915061360e826135a7565b604082019050919050565b60006020820190508181036000830152613632816135f6565b9050919050565b7f4552433732313a20696e76616c696420746f6b656e2049440000000000000000600082015250565b600061366f601883612bb4565b915061367a82613639565b602082019050919050565b6000602082019050818103600083015261369e81613662565b9050919050565b7f4552433732313a2061646472657373207a65726f206973206e6f74206120766160008201527f6c6964206f776e65720000000000000000000000000000000000000000000000602082015250565b6000613701602983612bb4565b915061370c826136a5565b604082019050919050565b60006020820190508181036000830152613730816136f4565b9050919050565b7f4f6e6c79206f776e65722063616e20646f207468697320736869740000000000600082015250565b600061376d601b83612bb4565b915061377882613737565b602082019050919050565b6000602082019050818103600083015261379c81613760565b9050919050565b7f5072696365206d75737420626520657175616c20746f206c697374696e67207060008201527f7269636520796f75206368656174747920646972747920706572736f6e000000602082015250565b60006137ff603d83612bb4565b915061380a826137a3565b604082019050919050565b6000602082019050818103600083015261382e816137f2565b9050919050565b600061384082612c5b565b915061384b83612c5b565b9250828203905081811115613863576138626134cd565b5b92915050565b7f4f6e6c79206f776e6572206f6620746865206d61726b6574706c61636520636160008201527f6e206368616e67652074686973206675636b696e672070726963650000000000602082015250565b60006138c5603b83612bb4565b91506138d082613869565b604082019050919050565b600060208201905081810360008301526138f4816138b8565b9050919050565b7f5375626d6974206675636b696e6720707269636520696620796f752077616e7460008201527f20746f20646f2074686973207368697400000000000000000000000000000000602082015250565b6000613957603083612bb4565b9150613962826138fb565b604082019050919050565b600060208201905081810360008301526139868161394a565b9050919050565b600081905092915050565b60006139a382612ba9565b6139ad818561398d565b93506139bd818560208601612bc5565b80840191505092915050565b60006139d58285613998565b91506139e18284613998565b91508190509392505050565b7f4552433732313a207472616e736665722066726f6d20696e636f72726563742060008201527f6f776e6572000000000000000000000000000000000000000000000000000000602082015250565b6000613a49602583612bb4565b9150613a54826139ed565b604082019050919050565b60006020820190508181036000830152613a7881613a3c565b9050919050565b7f4552433732313a207472616e7366657220746f20746865207a65726f2061646460008201527f7265737300000000000000000000000000000000000000000000000000000000602082015250565b6000613adb602483612bb4565b9150613ae682613a7f565b604082019050919050565b60006020820190508181036000830152613b0a81613ace565b9050919050565b7f4552433732313a206d696e7420746f20746865207a65726f2061646472657373600082015250565b6000613b47602083612bb4565b9150613b5282613b11565b602082019050919050565b60006020820190508181036000830152613b7681613b3a565b9050919050565b7f4552433732313a20746f6b656e20616c7265616479206d696e74656400000000600082015250565b6000613bb3601c83612bb4565b9150613bbe82613b7d565b602082019050919050565b60006020820190508181036000830152613be281613ba6565b9050919050565b7f45524337323155524953746f726167653a2055524920736574206f66206e6f6e60008201527f6578697374656e7420746f6b656e000000000000000000000000000000000000602082015250565b6000613c45602e83612bb4565b9150613c5082613be9565b604082019050919050565b60006020820190508181036000830152613c7481613c38565b9050919050565b60008190508160005260206000209050919050565b60006020601f8301049050919050565b600082821b905092915050565b600060088302613cdd7fffffffffffffffffffffffffffffffffffffffffffffffffffffffffffffffff82613ca0565b613ce78683613ca0565b95508019841693508086168417925050509392505050565b6000819050919050565b6000613d24613d1f613d1a84612c5b565b613cff565b612c5b565b9050919050565b6000819050919050565b613d3e83613d09565b613d52613d4a82613d2b565b848454613cad565b825550505050565b600090565b613d67613d5a565b613d72818484613d35565b505050565b5b81811015613d9657613d8b600082613d5f565b600181019050613d78565b5050565b601f821115613ddb57613dac81613c7b565b613db584613c90565b81016020851015613dc4578190505b613dd8613dd085613c90565b830182613d77565b50505b505050565b600082821c905092915050565b6000613dfe60001984600802613de0565b1980831691505092915050565b6000613e178383613ded565b9150826002028217905092915050565b613e3082612ba9565b67ffffffffffffffff811115613e4957613e48612fb2565b5b613e538254613378565b613e5e828285613d9a565b600060209050601f831160018114613e915760008415613e7f578287015190505b613e898582613e0b565b865550613ef1565b601f198416613e9f86613c7b565b60005b82811015613ec757848901518255600182019150602085019450602081019050613ea2565b86831015613ee45784890151613ee0601f891682613ded565b8355505b6001600288020188555050505b505050505050565b7f5072696365206d757374206265206174206c65617374203120796f752067726560008201527f6564792062616420706572736f6e000000000000000000000000000000000000602082015250565b6000613f55602e83612bb4565b9150613f6082613ef9565b604082019050919050565b60006020820190508181036000830152613f8481613f48565b9050919050565b6000608082019050613fa06000830187612cf0565b613fad6020830186612cf0565b613fba6040830185612d86565b613fc76060830184612b7f565b95945050505050565b7f436f756e7465723a2064656372656d656e74206f766572666c6f770000000000600082015250565b6000614006601b83612bb4565b915061401182613fd0565b602082019050919050565b6000602082019050818103600083015261403581613ff9565b9050919050565b7f4552433732313a20617070726f766520746f2063616c6c657200000000000000600082015250565b6000614072601983612bb4565b915061407d8261403c565b602082019050919050565b600060208201905081810360008301526140a181614065565b9050919050565b7f4552433732313a207472616e7366657220746f206e6f6e20455243373231526560008201527f63656976657220696d706c656d656e7465720000000000000000000000000000602082015250565b6000614104603283612bb4565b915061410f826140a8565b604082019050919050565b60006020820190508181036000830152614133816140f7565b9050919050565b600081519050919050565b600082825260208201905092915050565b60006141618261413a565b61416b8185614145565b935061417b818560208601612bc5565b61418481612bef565b840191505092915050565b60006080820190506141a46000830187612cf0565b6141b16020830186612cf0565b6141be6040830185612d86565b81810360608301526141d08184614156565b905095945050505050565b6000815190506141ea81612b1a565b92915050565b60006020828403121561420657614205612ae4565b5b6000614214848285016141db565b91505092915050565b7f4e487b7100000000000000000000000000000000000000000000000000000000600052601260045260246000fdfea2646970667358221220c82430a9e16ee26d813da01182157d50eb6d1b52c3de1cd2ee18c0c44b4f971764736f6c63430008130033",
  "linkReferences": {},
  "deployedLinkReferences": {}
}