{
  "_format": "hh-sol-artifact-1",
  "contractName": "SokratNFTMarket",
  "sourceName": "contracts/SokratNFTMarket.sol",
  "abi": [
    {
      "inputs": [],
      "stateMutability": "nonpayable",
      "type": "constructor"
    },
    {
      "anonymous": false,
      "inputs": [
        {
          "indexed": true,
          "internalType": "address",
          "name": "owner",
          "type": "address"
        },
        {
          "indexed": true,
          "internalType": "address",
          "name": "approved",
          "type": "address"
        },
        {
          "indexed": true,
          "internalType": "uint256",
          "name": "tokenId",
          "type": "uint256"
        }
      ],
      "name": "Approval",
      "type": "event"
    },
    {
      "anonymous": false,
      "inputs": [
        {
          "indexed": true,
          "internalType": "address",
          "name": "owner",
          "type": "address"
        },
        {
          "indexed": true,
          "internalType": "address",
          "name": "operator",
          "type": "address"
        },
        {
          "indexed": false,
          "internalType": "bool",
          "name": "approved",
          "type": "bool"
        }
      ],
      "name": "ApprovalForAll",
      "type": "event"
    },
    {
      "anonymous": false,
      "inputs": [
        {
          "indexed": false,
          "internalType": "uint256",
          "name": "_fromTokenId",
          "type": "uint256"
        },
        {
          "indexed": false,
          "internalType": "uint256",
          "name": "_toTokenId",
          "type": "uint256"
        }
      ],
      "name": "BatchMetadataUpdate",
      "type": "event"
    },
    {
      "anonymous": false,
      "inputs": [
        {
          "indexed": false,
          "internalType": "uint256",
          "name": "_tokenId",
          "type": "uint256"
        }
      ],
      "name": "MetadataUpdate",
      "type": "event"
    },
    {
      "anonymous": false,
      "inputs": [
        {
          "indexed": true,
          "internalType": "address",
          "name": "from",
          "type": "address"
        },
        {
          "indexed": true,
          "internalType": "address",
          "name": "to",
          "type": "address"
        },
        {
          "indexed": true,
          "internalType": "uint256",
          "name": "tokenId",
          "type": "uint256"
        }
      ],
      "name": "Transfer",
      "type": "event"
    },
    {
      "anonymous": false,
      "inputs": [
        {
          "indexed": true,
          "internalType": "uint256",
          "name": "tokenId",
          "type": "uint256"
        },
        {
          "indexed": false,
          "internalType": "address",
          "name": "seller",
          "type": "address"
        },
        {
          "indexed": false,
          "internalType": "address",
          "name": "owner",
          "type": "address"
        },
        {
          "indexed": false,
          "internalType": "uint256",
          "name": "price",
          "type": "uint256"
        },
        {
          "indexed": false,
          "internalType": "bool",
          "name": "sold",
          "type": "bool"
        }
      ],
      "name": "idMarketItemCreated",
      "type": "event"
    },
    {
      "inputs": [
        {
          "internalType": "address",
          "name": "to",
          "type": "address"
        },
        {
          "internalType": "uint256",
          "name": "tokenId",
          "type": "uint256"
        }
      ],
      "name": "approve",
      "outputs": [],
      "stateMutability": "nonpayable",
      "type": "function"
    },
    {
      "inputs": [
        {
          "internalType": "address",
          "name": "owner",
          "type": "address"
        }
      ],
      "name": "balanceOf",
      "outputs": [
        {
          "internalType": "uint256",
          "name": "",
          "type": "uint256"
        }
      ],
      "stateMutability": "view",
      "type": "function"
    },
    {
      "inputs": [
        {
          "internalType": "uint256",
          "name": "tokenId",
          "type": "uint256"
        }
      ],
      "name": "createMarketSale",
      "outputs": [],
      "stateMutability": "payable",
      "type": "function"
    },
    {
      "inputs": [
        {
          "internalType": "string",
          "name": "tokenURI",
          "type": "string"
        },
        {
          "internalType": "uint256",
          "name": "price",
          "type": "uint256"
        }
      ],
      "name": "createToken",
      "outputs": [
        {
          "internalType": "uint256",
          "name": "",
          "type": "uint256"
        }
      ],
      "stateMutability": "payable",
      "type": "function"
    },
    {
      "inputs": [],
      "name": "fetchItemsListed",
      "outputs": [
        {
          "components": [
            {
              "internalType": "uint256",
              "name": "tokenId",
              "type": "uint256"
            },
            {
              "internalType": "address payable",
              "name": "seller",
              "type": "address"
            },
            {
              "internalType": "address payable",
              "name": "owner",
              "type": "address"
            },
            {
              "internalType": "uint256",
              "name": "price",
              "type": "uint256"
            },
            {
              "internalType": "bool",
              "name": "sold",
              "type": "bool"
            }
          ],
          "internalType": "struct SokratNFTMarket.MarketItem[]",
          "name": "",
          "type": "tuple[]"
        }
      ],
      "stateMutability": "view",
      "type": "function"
    },
    {
      "inputs": [],
      "name": "fetchMarketItem",
      "outputs": [
        {
          "components": [
            {
              "internalType": "uint256",
              "name": "tokenId",
              "type": "uint256"
            },
            {
              "internalType": "address payable",
              "name": "seller",
              "type": "address"
            },
            {
              "internalType": "address payable",
              "name": "owner",
              "type": "address"
            },
            {
              "internalType": "uint256",
              "name": "price",
              "type": "uint256"
            },
            {
              "internalType": "bool",
              "name": "sold",
              "type": "bool"
            }
          ],
          "internalType": "struct SokratNFTMarket.MarketItem[]",
          "name": "",
          "type": "tuple[]"
        }
      ],
      "stateMutability": "view",
      "type": "function"
    },
    {
      "inputs": [],
      "name": "fetchMyNFT",
      "outputs": [
        {
          "components": [
            {
              "internalType": "uint256",
              "name": "tokenId",
              "type": "uint256"
            },
            {
              "internalType": "address payable",
              "name": "seller",
              "type": "address"
            },
            {
              "internalType": "address payable",
              "name": "owner",
              "type": "address"
            },
            {
              "internalType": "uint256",
              "name": "price",
              "type": "uint256"
            },
            {
              "internalType": "bool",
              "name": "sold",
              "type": "bool"
            }
          ],
          "internalType": "struct SokratNFTMarket.MarketItem[]",
          "name": "",
          "type": "tuple[]"
        }
      ],
      "stateMutability": "view",
      "type": "function"
    },
    {
      "inputs": [
        {
          "internalType": "uint256",
          "name": "tokenId",
          "type": "uint256"
        }
      ],
      "name": "getApproved",
      "outputs": [
        {
          "internalType": "address",
          "name": "",
          "type": "address"
        }
      ],
      "stateMutability": "view",
      "type": "function"
    },
    {
      "inputs": [],
      "name": "getListingPrice",
      "outputs": [
        {
          "internalType": "uint256",
          "name": "",
          "type": "uint256"
        }
      ],
      "stateMutability": "view",
      "type": "function"
    },
    {
      "inputs": [
        {
          "internalType": "address",
          "name": "owner",
          "type": "address"
        },
        {
          "internalType": "address",
          "name": "operator",
          "type": "address"
        }
      ],
      "name": "isApprovedForAll",
      "outputs": [
        {
          "internalType": "bool",
          "name": "",
          "type": "bool"
        }
      ],
      "stateMutability": "view",
      "type": "function"
    },
    {
      "inputs": [],
      "name": "name",
      "outputs": [
        {
          "internalType": "string",
          "name": "",
          "type": "string"
        }
      ],
      "stateMutability": "view",
      "type": "function"
    },
    {
      "inputs": [
        {
          "internalType": "uint256",
          "name": "tokenId",
          "type": "uint256"
        }
      ],
      "name": "ownerOf",
      "outputs": [
        {
          "internalType": "address",
          "name": "",
          "type": "address"
        }
      ],
      "stateMutability": "view",
      "type": "function"
    },
    {
      "inputs": [
        {
          "internalType": "uint256",
          "name": "tokenId",
          "type": "uint256"
        },
        {
          "internalType": "uint256",
          "name": "price",
          "type": "uint256"
        }
      ],
      "name": "reSellToken",
      "outputs": [],
      "stateMutability": "payable",
      "type": "function"
    },
    {
      "inputs": [
        {
          "internalType": "address",
          "name": "from",
          "type": "address"
        },
        {
          "internalType": "address",
          "name": "to",
          "type": "address"
        },
        {
          "internalType": "uint256",
          "name": "tokenId",
          "type": "uint256"
        }
      ],
      "name": "safeTransferFrom",
      "outputs": [],
      "stateMutability": "nonpayable",
      "type": "function"
    },
    {
      "inputs": [
        {
          "internalType": "address",
          "name": "from",
          "type": "address"
        },
        {
          "internalType": "address",
          "name": "to",
          "type": "address"
        },
        {
          "internalType": "uint256",
          "name": "tokenId",
          "type": "uint256"
        },
        {
          "internalType": "bytes",
          "name": "data",
          "type": "bytes"
        }
      ],
      "name": "safeTransferFrom",
      "outputs": [],
      "stateMutability": "nonpayable",
      "type": "function"
    },
    {
      "inputs": [
        {
          "internalType": "address",
          "name": "operator",
          "type": "address"
        },
        {
          "internalType": "bool",
          "name": "approved",
          "type": "bool"
        }
      ],
      "name": "setApprovalForAll",
      "outputs": [],
      "stateMutability": "nonpayable",
      "type": "function"
    },
    {
      "inputs": [
        {
          "internalType": "bytes4",
          "name": "interfaceId",
          "type": "bytes4"
        }
      ],
      "name": "supportsInterface",
      "outputs": [
        {
          "internalType": "bool",
          "name": "",
          "type": "bool"
        }
      ],
      "stateMutability": "view",
      "type": "function"
    },
    {
      "inputs": [],
      "name": "symbol",
      "outputs": [
        {
          "internalType": "string",
          "name": "",
          "type": "string"
        }
      ],
      "stateMutability": "view",
      "type": "function"
    },
    {
      "inputs": [
        {
          "internalType": "uint256",
          "name": "tokenId",
          "type": "uint256"
        }
      ],
      "name": "tokenURI",
      "outputs": [
        {
          "internalType": "string",
          "name": "",
          "type": "string"
        }
      ],
      "stateMutability": "view",
      "type": "function"
    },
    {
      "inputs": [
        {
          "internalType": "address",
          "name": "from",
          "type": "address"
        },
        {
          "internalType": "address",
          "name": "to",
          "type": "address"
        },
        {
          "internalType": "uint256",
          "name": "tokenId",
          "type": "uint256"
        }
      ],
      "name": "transferFrom",
      "outputs": [],
      "stateMutability": "nonpayable",
      "type": "function"
    },
    {
      "inputs": [
        {
          "internalType": "uint256",
          "name": "_listingPrice",
          "type": "uint256"
        }
      ],
      "name": "updateListingPrice",
      "outputs": [],
      "stateMutability": "payable",
      "type": "function"
    }
  ],
  "bytecode": "0x60806040526608e1bc9bf04000600a553480156200001c57600080fd5b506040518060400160405280601181526020017f536f6b726174204e4654204d61726b65740000000000000000000000000000008152506040518060400160405280600481526020017f534e46540000000000000000000000000000000000000000000000000000000081525081600090816200009a919062000355565b508060019081620000ac919062000355565b5050503373ffffffffffffffffffffffffffffffffffffffff16600960009054906101000a905050506200043c565b600081519050919050565b7f4e487b7100000000000000000000000000000000000000000000000000000000600052604160045260246000fd5b7f4e487b7100000000000000000000000000000000000000000000000000000000600052602260045260246000fd5b600060028204905060018216806200015d57607f821691505b60208210810362000173576200017262000115565b5b50919050565b60008190508160005260206000209050919050565b60006020601f8301049050919050565b600082821b905092915050565b600060088302620001dd7fffffffffffffffffffffffffffffffffffffffffffffffffffffffffffffffff826200019e565b620001e986836200019e565b95508019841693508086168417925050509392505050565b6000819050919050565b6000819050919050565b600062000236620002306200022a8462000201565b6200020b565b62000201565b9050919050565b6000819050919050565b620002528362000215565b6200026a62000261826200023d565b848454620001ab565b825550505050565b600090565b6200028162000272565b6200028e81848462000247565b505050565b5b81811015620002b657620002aa60008262000277565b60018101905062000294565b5050565b601f8211156200030557620002cf8162000179565b620002da846200018e565b81016020851015620002ea578190505b62000302620002f9856200018e565b83018262000293565b50505b505050565b600082821c905092915050565b60006200032a600019846008026200030a565b1980831691505092915050565b600062000345838362000317565b9150826002028217905092915050565b6200036082620000db565b67ffffffffffffffff8111156200037c576200037b620000e6565b5b62000388825462000144565b62000395828285620002ba565b600060209050601f831160018114620003cd5760008415620003b8578287015190505b620003c4858262000337565b86555062000434565b601f198416620003dd8662000179565b60005b828110156200040757848901518255600182019150602085019450602081019050620003e0565b8683101562000427578489015162000423601f89168262000317565b8355505b6001600288020188555050505b505050505050565b6142c6806200044c6000396000f3fe60806040526004361061012a5760003560e01c806372b3b620116100ab578063ae677aa31161006f578063ae677aa3146103ea578063b88d4fde14610406578063be9af5361461042f578063c18763f71461044b578063c87b56dd14610476578063e985e9c5146104b35761012a565b806372b3b6201461031f57806385535b251461034f5780638fafd0211461036b57806395d89b4114610396578063a22cb465146103c15761012a565b806323b872dd116100f257806323b872dd1461022857806342842e0e1461025157806345f8fa801461027a5780636352211e146102a557806370a08231146102e25761012a565b806301ffc9a71461012f57806306fdde031461016c578063081812fc14610197578063095ea7b3146101d457806312e85585146101fd575b600080fd5b34801561013b57600080fd5b5061015660048036038101906101519190612b8a565b6104f0565b6040516101639190612bd2565b60405180910390f35b34801561017857600080fd5b50610181610551565b60405161018e9190612c7d565b60405180910390f35b3480156101a357600080fd5b506101be60048036038101906101b99190612cd5565b6105e3565b6040516101cb9190612d43565b60405180910390f35b3480156101e057600080fd5b506101fb60048036038101906101f69190612d8a565b610629565b005b34801561020957600080fd5b50610212610740565b60405161021f9190612dd9565b60405180910390f35b34801561023457600080fd5b5061024f600480360381019061024a9190612df4565b61074a565b005b34801561025d57600080fd5b5061027860048036038101906102739190612df4565b6107aa565b005b34801561028657600080fd5b5061028f6107ca565b60405161029c9190612f9d565b60405180910390f35b3480156102b157600080fd5b506102cc60048036038101906102c79190612cd5565b610ab4565b6040516102d99190612d43565b60405180910390f35b3480156102ee57600080fd5b5061030960048036038101906103049190612fbf565b610b3a565b6040516103169190612dd9565b60405180910390f35b61033960048036038101906103349190613121565b610bf1565b6040516103469190612dd9565b60405180910390f35b6103696004803603810190610364919061317d565b610c33565b005b34801561037757600080fd5b50610380610e28565b60405161038d9190612f9d565b60405180910390f35b3480156103a257600080fd5b506103ab61108f565b6040516103b89190612c7d565b60405180910390f35b3480156103cd57600080fd5b506103e860048036038101906103e391906131e9565b611121565b005b61040460048036038101906103ff9190612cd5565b611137565b005b34801561041257600080fd5b5061042d600480360381019061042891906132ca565b6111d1565b005b61044960048036038101906104449190612cd5565b611233565b005b34801561045757600080fd5b5061046061146b565b60405161046d9190612f9d565b60405180910390f35b34801561048257600080fd5b5061049d60048036038101906104989190612cd5565b611755565b6040516104aa9190612c7d565b60405180910390f35b3480156104bf57600080fd5b506104da60048036038101906104d5919061334d565b611867565b6040516104e79190612bd2565b60405180910390f35b6000634906490660e01b7bffffffffffffffffffffffffffffffffffffffffffffffffffffffff1916827bffffffffffffffffffffffffffffffffffffffffffffffffffffffff1916148061054a5750610549826118fb565b5b9050919050565b606060008054610560906133bc565b80601f016020809104026020016040519081016040528092919081815260200182805461058c906133bc565b80156105d95780601f106105ae576101008083540402835291602001916105d9565b820191906000526020600020905b8154815290600101906020018083116105bc57829003601f168201915b5050505050905090565b60006105ee826119dd565b6004600083815260200190815260200160002060009054906101000a900473ffffffffffffffffffffffffffffffffffffffff169050919050565b600061063482610ab4565b90508073ffffffffffffffffffffffffffffffffffffffff168373ffffffffffffffffffffffffffffffffffffffff16036106a4576040517f08c379a000000000000000000000000000000000000000000000000000000000815260040161069b9061345f565b60405180910390fd5b8073ffffffffffffffffffffffffffffffffffffffff166106c3611a28565b73ffffffffffffffffffffffffffffffffffffffff1614806106f257506106f1816106ec611a28565b611867565b5b610731576040517f08c379a0000000000000000000000000000000000000000000000000000000008152600401610728906134f1565b60405180910390fd5b61073b8383611a30565b505050565b6000600a54905090565b61075b610755611a28565b82611ae9565b61079a576040517f08c379a000000000000000000000000000000000000000000000000000000000815260040161079190613583565b60405180910390fd5b6107a5838383611b7e565b505050565b6107c5838383604051806020016040528060008152506111d1565b505050565b606060006107d86007611e77565b905060008060005b8381101561087f573373ffffffffffffffffffffffffffffffffffffffff16600b600060018461081091906135d2565b815260200190815260200160002060010160009054906101000a900473ffffffffffffffffffffffffffffffffffffffff1673ffffffffffffffffffffffffffffffffffffffff160361086c57828061086890613606565b9350505b808061087790613606565b9150506107e0565b5060008267ffffffffffffffff81111561089c5761089b612ff6565b5b6040519080825280602002602001820160405280156108d557816020015b6108c2612ac1565b8152602001906001900390816108ba5790505b50905060005b84811015610aa9573373ffffffffffffffffffffffffffffffffffffffff16600b600060018461090b91906135d2565b815260200190815260200160002060010160009054906101000a900473ffffffffffffffffffffffffffffffffffffffff1673ffffffffffffffffffffffffffffffffffffffff1603610a9657600060018261096791906135d2565b90506000600b60008381526020019081526020016000209050806040518060a0016040529081600082015481526020016001820160009054906101000a900473ffffffffffffffffffffffffffffffffffffffff1673ffffffffffffffffffffffffffffffffffffffff1673ffffffffffffffffffffffffffffffffffffffff1681526020016002820160009054906101000a900473ffffffffffffffffffffffffffffffffffffffff1673ffffffffffffffffffffffffffffffffffffffff1673ffffffffffffffffffffffffffffffffffffffff168152602001600382015481526020016004820160009054906101000a900460ff161515151581525050848681518110610a7a57610a7961364e565b5b60200260200101819052508480610a9090613606565b95505050505b8080610aa190613606565b9150506108db565b508094505050505090565b600080610ac083611e85565b9050600073ffffffffffffffffffffffffffffffffffffffff168173ffffffffffffffffffffffffffffffffffffffff1603610b31576040517f08c379a0000000000000000000000000000000000000000000000000000000008152600401610b28906136c9565b60405180910390fd5b80915050919050565b60008073ffffffffffffffffffffffffffffffffffffffff168273ffffffffffffffffffffffffffffffffffffffff1603610baa576040517f08c379a0000000000000000000000000000000000000000000000000000000008152600401610ba19061375b565b60405180910390fd5b600360008373ffffffffffffffffffffffffffffffffffffffff1673ffffffffffffffffffffffffffffffffffffffff168152602001908152602001600020549050919050565b6000610bfd6007611ec2565b6000610c096007611e77565b9050610c153382611ed8565b610c1f81856120f5565b610c298184612199565b8091505092915050565b3373ffffffffffffffffffffffffffffffffffffffff16600b600084815260200190815260200160002060020160009054906101000a900473ffffffffffffffffffffffffffffffffffffffff1673ffffffffffffffffffffffffffffffffffffffff1614610cd7576040517f08c379a0000000000000000000000000000000000000000000000000000000008152600401610cce906137c7565b60405180910390fd5b600a543414610d1b576040517f08c379a0000000000000000000000000000000000000000000000000000000008152600401610d1290613859565b60405180910390fd5b6000600b600084815260200190815260200160002060040160006101000a81548160ff02191690831515021790555080600b60008481526020019081526020016000206003018190555033600b600084815260200190815260200160002060010160006101000a81548173ffffffffffffffffffffffffffffffffffffffff021916908373ffffffffffffffffffffffffffffffffffffffff16021790555030600b600084815260200190815260200160002060020160006101000a81548173ffffffffffffffffffffffffffffffffffffffff021916908373ffffffffffffffffffffffffffffffffffffffff160217905550610e19600861239c565b610e24333084611b7e565b5050565b60606000610e366007611e77565b90506000610e446008611e77565b610e4e6007611e77565b610e589190613879565b90506000808267ffffffffffffffff811115610e7757610e76612ff6565b5b604051908082528060200260200182016040528015610eb057816020015b610e9d612ac1565b815260200190600190039081610e955790505b50905060005b84811015611084573073ffffffffffffffffffffffffffffffffffffffff16600b6000600184610ee691906135d2565b815260200190815260200160002060020160009054906101000a900473ffffffffffffffffffffffffffffffffffffffff1673ffffffffffffffffffffffffffffffffffffffff1603611071576000600182610f4291906135d2565b90506000600b60008381526020019081526020016000209050806040518060a0016040529081600082015481526020016001820160009054906101000a900473ffffffffffffffffffffffffffffffffffffffff1673ffffffffffffffffffffffffffffffffffffffff1673ffffffffffffffffffffffffffffffffffffffff1681526020016002820160009054906101000a900473ffffffffffffffffffffffffffffffffffffffff1673ffffffffffffffffffffffffffffffffffffffff1673ffffffffffffffffffffffffffffffffffffffff168152602001600382015481526020016004820160009054906101000a900460ff1615151515815250508486815181106110555761105461364e565b5b6020026020010181905250848061106b90613606565b95505050505b808061107c90613606565b915050610eb6565b508094505050505090565b60606001805461109e906133bc565b80601f01602080910402602001604051908101604052809291908181526020018280546110ca906133bc565b80156111175780601f106110ec57610100808354040283529160200191611117565b820191906000526020600020905b8154815290600101906020018083116110fa57829003601f168201915b5050505050905090565b61113361112c611a28565b83836123f8565b5050565b600960009054906101000a900473ffffffffffffffffffffffffffffffffffffffff1673ffffffffffffffffffffffffffffffffffffffff163373ffffffffffffffffffffffffffffffffffffffff16146111c7576040517f08c379a00000000000000000000000000000000000000000000000000000000081526004016111be9061391f565b60405180910390fd5b80600a8190555050565b6111e26111dc611a28565b83611ae9565b611221576040517f08c379a000000000000000000000000000000000000000000000000000000000815260040161121890613583565b60405180910390fd5b61122d84848484612564565b50505050565b6000600b6000838152602001908152602001600020600301549050803414611290576040517f08c379a0000000000000000000000000000000000000000000000000000000008152600401611287906139b1565b60405180910390fd5b33600b600084815260200190815260200160002060020160006101000a81548173ffffffffffffffffffffffffffffffffffffffff021916908373ffffffffffffffffffffffffffffffffffffffff1602179055506001600b600084815260200190815260200160002060040160006101000a81548160ff0219169083151502179055506000600b600084815260200190815260200160002060020160006101000a81548173ffffffffffffffffffffffffffffffffffffffff021916908373ffffffffffffffffffffffffffffffffffffffff1602179055506113746008611ec2565b61137f303384611b7e565b600960009054906101000a900473ffffffffffffffffffffffffffffffffffffffff1673ffffffffffffffffffffffffffffffffffffffff166108fc600a549081150290604051600060405180830381858888f193505050501580156113e9573d6000803e3d6000fd5b50600b600083815260200190815260200160002060010160009054906101000a900473ffffffffffffffffffffffffffffffffffffffff1673ffffffffffffffffffffffffffffffffffffffff166108fc349081150290604051600060405180830381858888f19350505050158015611466573d6000803e3d6000fd5b505050565b606060006114796007611e77565b905060008060005b83811015611520573373ffffffffffffffffffffffffffffffffffffffff16600b60006001846114b191906135d2565b815260200190815260200160002060020160009054906101000a900473ffffffffffffffffffffffffffffffffffffffff1673ffffffffffffffffffffffffffffffffffffffff160361150d57828061150990613606565b9350505b808061151890613606565b915050611481565b5060008267ffffffffffffffff81111561153d5761153c612ff6565b5b60405190808252806020026020018201604052801561157657816020015b611563612ac1565b81526020019060019003908161155b5790505b50905060005b8481101561174a573373ffffffffffffffffffffffffffffffffffffffff16600b60006001846115ac91906135d2565b815260200190815260200160002060020160009054906101000a900473ffffffffffffffffffffffffffffffffffffffff1673ffffffffffffffffffffffffffffffffffffffff160361173757600060018261160891906135d2565b90506000600b60008381526020019081526020016000209050806040518060a0016040529081600082015481526020016001820160009054906101000a900473ffffffffffffffffffffffffffffffffffffffff1673ffffffffffffffffffffffffffffffffffffffff1673ffffffffffffffffffffffffffffffffffffffff1681526020016002820160009054906101000a900473ffffffffffffffffffffffffffffffffffffffff1673ffffffffffffffffffffffffffffffffffffffff1673ffffffffffffffffffffffffffffffffffffffff168152602001600382015481526020016004820160009054906101000a900460ff16151515158152505084868151811061171b5761171a61364e565b5b6020026020010181905250848061173190613606565b95505050505b808061174290613606565b91505061157c565b508094505050505090565b6060611760826119dd565b6000600660008481526020019081526020016000208054611780906133bc565b80601f01602080910402602001604051908101604052809291908181526020018280546117ac906133bc565b80156117f95780601f106117ce576101008083540402835291602001916117f9565b820191906000526020600020905b8154815290600101906020018083116117dc57829003601f168201915b50505050509050600061180a6125c0565b9050600081510361181f578192505050611862565b60008251111561185457808260405160200161183c929190613a0d565b60405160208183030381529060405292505050611862565b61185d846125d7565b925050505b919050565b6000600560008473ffffffffffffffffffffffffffffffffffffffff1673ffffffffffffffffffffffffffffffffffffffff16815260200190815260200160002060008373ffffffffffffffffffffffffffffffffffffffff1673ffffffffffffffffffffffffffffffffffffffff16815260200190815260200160002060009054906101000a900460ff16905092915050565b60007f80ac58cd000000000000000000000000000000000000000000000000000000007bffffffffffffffffffffffffffffffffffffffffffffffffffffffff1916827bffffffffffffffffffffffffffffffffffffffffffffffffffffffff191614806119c657507f5b5e139f000000000000000000000000000000000000000000000000000000007bffffffffffffffffffffffffffffffffffffffffffffffffffffffff1916827bffffffffffffffffffffffffffffffffffffffffffffffffffffffff1916145b806119d657506119d58261263f565b5b9050919050565b6119e6816126a9565b611a25576040517f08c379a0000000000000000000000000000000000000000000000000000000008152600401611a1c906136c9565b60405180910390fd5b50565b600033905090565b816004600083815260200190815260200160002060006101000a81548173ffffffffffffffffffffffffffffffffffffffff021916908373ffffffffffffffffffffffffffffffffffffffff160217905550808273ffffffffffffffffffffffffffffffffffffffff16611aa383610ab4565b73ffffffffffffffffffffffffffffffffffffffff167f8c5be1e5ebec7d5bd14f71427d1e84f3dd0314c0f7b2291e5b200ac8c7c3b92560405160405180910390a45050565b600080611af583610ab4565b90508073ffffffffffffffffffffffffffffffffffffffff168473ffffffffffffffffffffffffffffffffffffffff161480611b375750611b368185611867565b5b80611b7557508373ffffffffffffffffffffffffffffffffffffffff16611b5d846105e3565b73ffffffffffffffffffffffffffffffffffffffff16145b91505092915050565b8273ffffffffffffffffffffffffffffffffffffffff16611b9e82610ab4565b73ffffffffffffffffffffffffffffffffffffffff1614611bf4576040517f08c379a0000000000000000000000000000000000000000000000000000000008152600401611beb90613aa3565b60405180910390fd5b600073ffffffffffffffffffffffffffffffffffffffff168273ffffffffffffffffffffffffffffffffffffffff1603611c63576040517f08c379a0000000000000000000000000000000000000000000000000000000008152600401611c5a90613b35565b60405180910390fd5b611c7083838360016126ea565b8273ffffffffffffffffffffffffffffffffffffffff16611c9082610ab4565b73ffffffffffffffffffffffffffffffffffffffff1614611ce6576040517f08c379a0000000000000000000000000000000000000000000000000000000008152600401611cdd90613aa3565b60405180910390fd5b6004600082815260200190815260200160002060006101000a81549073ffffffffffffffffffffffffffffffffffffffff02191690556001600360008573ffffffffffffffffffffffffffffffffffffffff1673ffffffffffffffffffffffffffffffffffffffff168152602001908152602001600020600082825403925050819055506001600360008473ffffffffffffffffffffffffffffffffffffffff1673ffffffffffffffffffffffffffffffffffffffff16815260200190815260200160002060008282540192505081905550816002600083815260200190815260200160002060006101000a81548173ffffffffffffffffffffffffffffffffffffffff021916908373ffffffffffffffffffffffffffffffffffffffff160217905550808273ffffffffffffffffffffffffffffffffffffffff168473ffffffffffffffffffffffffffffffffffffffff167fddf252ad1be2c89b69c2b068fc378daa952ba7f163c4a11628f55a4df523b3ef60405160405180910390a4611e7283838360016126f0565b505050565b600081600001549050919050565b60006002600083815260200190815260200160002060009054906101000a900473ffffffffffffffffffffffffffffffffffffffff169050919050565b6001816000016000828254019250508190555050565b600073ffffffffffffffffffffffffffffffffffffffff168273ffffffffffffffffffffffffffffffffffffffff1603611f47576040517f08c379a0000000000000000000000000000000000000000000000000000000008152600401611f3e90613ba1565b60405180910390fd5b611f50816126a9565b15611f90576040517f08c379a0000000000000000000000000000000000000000000000000000000008152600401611f8790613c0d565b60405180910390fd5b611f9e6000838360016126ea565b611fa7816126a9565b15611fe7576040517f08c379a0000000000000000000000000000000000000000000000000000000008152600401611fde90613c0d565b60405180910390fd5b6001600360008473ffffffffffffffffffffffffffffffffffffffff1673ffffffffffffffffffffffffffffffffffffffff16815260200190815260200160002060008282540192505081905550816002600083815260200190815260200160002060006101000a81548173ffffffffffffffffffffffffffffffffffffffff021916908373ffffffffffffffffffffffffffffffffffffffff160217905550808273ffffffffffffffffffffffffffffffffffffffff16600073ffffffffffffffffffffffffffffffffffffffff167fddf252ad1be2c89b69c2b068fc378daa952ba7f163c4a11628f55a4df523b3ef60405160405180910390a46120f16000838360016126f0565b5050565b6120fe826126a9565b61213d576040517f08c379a000000000000000000000000000000000000000000000000000000000815260040161213490613c9f565b60405180910390fd5b8060066000848152602001908152602001600020908161215d9190613e6b565b507ff8e1a15aba9398e019f0b49df1a4fde98ee17ae345cb5f6b5e2c27f5033e8ce78260405161218d9190612dd9565b60405180910390a15050565b600081116121dc576040517f08c379a00000000000000000000000000000000000000000000000000000000081526004016121d390613faf565b60405180910390fd5b600a543414612220576040517f08c379a000000000000000000000000000000000000000000000000000000000815260040161221790613859565b60405180910390fd5b6040518060a001604052808381526020013373ffffffffffffffffffffffffffffffffffffffff1681526020013073ffffffffffffffffffffffffffffffffffffffff16815260200182815260200160001515815250600b60008481526020019081526020016000206000820151816000015560208201518160010160006101000a81548173ffffffffffffffffffffffffffffffffffffffff021916908373ffffffffffffffffffffffffffffffffffffffff16021790555060408201518160020160006101000a81548173ffffffffffffffffffffffffffffffffffffffff021916908373ffffffffffffffffffffffffffffffffffffffff1602179055506060820151816003015560808201518160040160006101000a81548160ff021916908315150217905550905050612359333084611b7e565b817fdebdb32cb5230ab727c9c361b16fdb2015df225c10e6a3e7f60ecd5dc5be451633308460006040516123909493929190613fcf565b60405180910390a25050565b600081600001549050600081116123e8576040517f08c379a00000000000000000000000000000000000000000000000000000000081526004016123df90614060565b60405180910390fd5b6001810382600001819055505050565b8173ffffffffffffffffffffffffffffffffffffffff168373ffffffffffffffffffffffffffffffffffffffff1603612466576040517f08c379a000000000000000000000000000000000000000000000000000000000815260040161245d906140cc565b60405180910390fd5b80600560008573ffffffffffffffffffffffffffffffffffffffff1673ffffffffffffffffffffffffffffffffffffffff16815260200190815260200160002060008473ffffffffffffffffffffffffffffffffffffffff1673ffffffffffffffffffffffffffffffffffffffff16815260200190815260200160002060006101000a81548160ff0219169083151502179055508173ffffffffffffffffffffffffffffffffffffffff168373ffffffffffffffffffffffffffffffffffffffff167f17307eab39ab6107e8899845ad3d59bd9653f200f220920489ca2b5937696c31836040516125579190612bd2565b60405180910390a3505050565b61256f848484611b7e565b61257b848484846126f6565b6125ba576040517f08c379a00000000000000000000000000000000000000000000000000000000081526004016125b19061415e565b60405180910390fd5b50505050565b606060405180602001604052806000815250905090565b60606125e2826119dd565b60006125ec6125c0565b9050600081511161260c5760405180602001604052806000815250612637565b806126168461287d565b604051602001612627929190613a0d565b6040516020818303038152906040525b915050919050565b60007f01ffc9a7000000000000000000000000000000000000000000000000000000007bffffffffffffffffffffffffffffffffffffffffffffffffffffffff1916827bffffffffffffffffffffffffffffffffffffffffffffffffffffffff1916149050919050565b60008073ffffffffffffffffffffffffffffffffffffffff166126cb83611e85565b73ffffffffffffffffffffffffffffffffffffffff1614159050919050565b50505050565b50505050565b60006127178473ffffffffffffffffffffffffffffffffffffffff1661294b565b15612870578373ffffffffffffffffffffffffffffffffffffffff1663150b7a02612740611a28565b8786866040518563ffffffff1660e01b815260040161276294939291906141d3565b6020604051808303816000875af192505050801561279e57506040513d601f19601f8201168201806040525081019061279b9190614234565b60015b612820573d80600081146127ce576040519150601f19603f3d011682016040523d82523d6000602084013e6127d3565b606091505b506000815103612818576040517f08c379a000000000000000000000000000000000000000000000000000000000815260040161280f9061415e565b60405180910390fd5b805181602001fd5b63150b7a0260e01b7bffffffffffffffffffffffffffffffffffffffffffffffffffffffff1916817bffffffffffffffffffffffffffffffffffffffffffffffffffffffff191614915050612875565b600190505b949350505050565b60606000600161288c8461296e565b01905060008167ffffffffffffffff8111156128ab576128aa612ff6565b5b6040519080825280601f01601f1916602001820160405280156128dd5781602001600182028036833780820191505090505b509050600082602001820190505b600115612940578080600190039150507f3031323334353637383961626364656600000000000000000000000000000000600a86061a8153600a858161293457612933614261565b5b049450600085036128eb575b819350505050919050565b6000808273ffffffffffffffffffffffffffffffffffffffff163b119050919050565b600080600090507a184f03e93ff9f4daa797ed6e38ed64bf6a1f01000000000000000083106129cc577a184f03e93ff9f4daa797ed6e38ed64bf6a1f01000000000000000083816129c2576129c1614261565b5b0492506040810190505b6d04ee2d6d415b85acef81000000008310612a09576d04ee2d6d415b85acef810000000083816129ff576129fe614261565b5b0492506020810190505b662386f26fc100008310612a3857662386f26fc100008381612a2e57612a2d614261565b5b0492506010810190505b6305f5e1008310612a61576305f5e1008381612a5757612a56614261565b5b0492506008810190505b6127108310612a86576127108381612a7c57612a7b614261565b5b0492506004810190505b60648310612aa95760648381612a9f57612a9e614261565b5b0492506002810190505b600a8310612ab8576001810190505b80915050919050565b6040518060a0016040528060008152602001600073ffffffffffffffffffffffffffffffffffffffff168152602001600073ffffffffffffffffffffffffffffffffffffffff168152602001600081526020016000151581525090565b6000604051905090565b600080fd5b600080fd5b60007fffffffff0000000000000000000000000000000000000000000000000000000082169050919050565b612b6781612b32565b8114612b7257600080fd5b50565b600081359050612b8481612b5e565b92915050565b600060208284031215612ba057612b9f612b28565b5b6000612bae84828501612b75565b91505092915050565b60008115159050919050565b612bcc81612bb7565b82525050565b6000602082019050612be76000830184612bc3565b92915050565b600081519050919050565b600082825260208201905092915050565b60005b83811015612c27578082015181840152602081019050612c0c565b60008484015250505050565b6000601f19601f8301169050919050565b6000612c4f82612bed565b612c598185612bf8565b9350612c69818560208601612c09565b612c7281612c33565b840191505092915050565b60006020820190508181036000830152612c978184612c44565b905092915050565b6000819050919050565b612cb281612c9f565b8114612cbd57600080fd5b50565b600081359050612ccf81612ca9565b92915050565b600060208284031215612ceb57612cea612b28565b5b6000612cf984828501612cc0565b91505092915050565b600073ffffffffffffffffffffffffffffffffffffffff82169050919050565b6000612d2d82612d02565b9050919050565b612d3d81612d22565b82525050565b6000602082019050612d586000830184612d34565b92915050565b612d6781612d22565b8114612d7257600080fd5b50565b600081359050612d8481612d5e565b92915050565b60008060408385031215612da157612da0612b28565b5b6000612daf85828601612d75565b9250506020612dc085828601612cc0565b9150509250929050565b612dd381612c9f565b82525050565b6000602082019050612dee6000830184612dca565b92915050565b600080600060608486031215612e0d57612e0c612b28565b5b6000612e1b86828701612d75565b9350506020612e2c86828701612d75565b9250506040612e3d86828701612cc0565b9150509250925092565b600081519050919050565b600082825260208201905092915050565b6000819050602082019050919050565b612e7c81612c9f565b82525050565b6000612e8d82612d02565b9050919050565b612e9d81612e82565b82525050565b612eac81612bb7565b82525050565b60a082016000820151612ec86000850182612e73565b506020820151612edb6020850182612e94565b506040820151612eee6040850182612e94565b506060820151612f016060850182612e73565b506080820151612f146080850182612ea3565b50505050565b6000612f268383612eb2565b60a08301905092915050565b6000602082019050919050565b6000612f4a82612e47565b612f548185612e52565b9350612f5f83612e63565b8060005b83811015612f90578151612f778882612f1a565b9750612f8283612f32565b925050600181019050612f63565b5085935050505092915050565b60006020820190508181036000830152612fb78184612f3f565b905092915050565b600060208284031215612fd557612fd4612b28565b5b6000612fe384828501612d75565b91505092915050565b600080fd5b600080fd5b7f4e487b7100000000000000000000000000000000000000000000000000000000600052604160045260246000fd5b61302e82612c33565b810181811067ffffffffffffffff8211171561304d5761304c612ff6565b5b80604052505050565b6000613060612b1e565b905061306c8282613025565b919050565b600067ffffffffffffffff82111561308c5761308b612ff6565b5b61309582612c33565b9050602081019050919050565b82818337600083830152505050565b60006130c46130bf84613071565b613056565b9050828152602081018484840111156130e0576130df612ff1565b5b6130eb8482856130a2565b509392505050565b600082601f83011261310857613107612fec565b5b81356131188482602086016130b1565b91505092915050565b6000806040838503121561313857613137612b28565b5b600083013567ffffffffffffffff81111561315657613155612b2d565b5b613162858286016130f3565b925050602061317385828601612cc0565b9150509250929050565b6000806040838503121561319457613193612b28565b5b60006131a285828601612cc0565b92505060206131b385828601612cc0565b9150509250929050565b6131c681612bb7565b81146131d157600080fd5b50565b6000813590506131e3816131bd565b92915050565b60008060408385031215613200576131ff612b28565b5b600061320e85828601612d75565b925050602061321f858286016131d4565b9150509250929050565b600067ffffffffffffffff82111561324457613243612ff6565b5b61324d82612c33565b9050602081019050919050565b600061326d61326884613229565b613056565b90508281526020810184848401111561328957613288612ff1565b5b6132948482856130a2565b509392505050565b600082601f8301126132b1576132b0612fec565b5b81356132c184826020860161325a565b91505092915050565b600080600080608085870312156132e4576132e3612b28565b5b60006132f287828801612d75565b945050602061330387828801612d75565b935050604061331487828801612cc0565b925050606085013567ffffffffffffffff81111561333557613334612b2d565b5b6133418782880161329c565b91505092959194509250565b6000806040838503121561336457613363612b28565b5b600061337285828601612d75565b925050602061338385828601612d75565b9150509250929050565b7f4e487b7100000000000000000000000000000000000000000000000000000000600052602260045260246000fd5b600060028204905060018216806133d457607f821691505b6020821081036133e7576133e661338d565b5b50919050565b7f4552433732313a20617070726f76616c20746f2063757272656e74206f776e6560008201527f7200000000000000000000000000000000000000000000000000000000000000602082015250565b6000613449602183612bf8565b9150613454826133ed565b604082019050919050565b600060208201905081810360008301526134788161343c565b9050919050565b7f4552433732313a20617070726f76652063616c6c6572206973206e6f7420746f60008201527f6b656e206f776e6572206f7220617070726f76656420666f7220616c6c000000602082015250565b60006134db603d83612bf8565b91506134e68261347f565b604082019050919050565b6000602082019050818103600083015261350a816134ce565b9050919050565b7f4552433732313a2063616c6c6572206973206e6f7420746f6b656e206f776e6560008201527f72206f7220617070726f76656400000000000000000000000000000000000000602082015250565b600061356d602d83612bf8565b915061357882613511565b604082019050919050565b6000602082019050818103600083015261359c81613560565b9050919050565b7f4e487b7100000000000000000000000000000000000000000000000000000000600052601160045260246000fd5b60006135dd82612c9f565b91506135e883612c9f565b9250828201905080821115613600576135ff6135a3565b5b92915050565b600061361182612c9f565b91507fffffffffffffffffffffffffffffffffffffffffffffffffffffffffffffffff8203613643576136426135a3565b5b600182019050919050565b7f4e487b7100000000000000000000000000000000000000000000000000000000600052603260045260246000fd5b7f4552433732313a20696e76616c696420746f6b656e2049440000000000000000600082015250565b60006136b3601883612bf8565b91506136be8261367d565b602082019050919050565b600060208201905081810360008301526136e2816136a6565b9050919050565b7f4552433732313a2061646472657373207a65726f206973206e6f74206120766160008201527f6c6964206f776e65720000000000000000000000000000000000000000000000602082015250565b6000613745602983612bf8565b9150613750826136e9565b604082019050919050565b6000602082019050818103600083015261377481613738565b9050919050565b7f4f6e6c79206f776e65722063616e20646f207468697320736869740000000000600082015250565b60006137b1601b83612bf8565b91506137bc8261377b565b602082019050919050565b600060208201905081810360008301526137e0816137a4565b9050919050565b7f5072696365206d75737420626520657175616c20746f206c697374696e67207060008201527f7269636520796f75206368656174747920646972747920706572736f6e000000602082015250565b6000613843603d83612bf8565b915061384e826137e7565b604082019050919050565b6000602082019050818103600083015261387281613836565b9050919050565b600061388482612c9f565b915061388f83612c9f565b92508282039050818111156138a7576138a66135a3565b5b92915050565b7f4f6e6c79206f776e6572206f6620746865206d61726b6574706c61636520636160008201527f6e206368616e67652074686973206675636b696e672070726963650000000000602082015250565b6000613909603b83612bf8565b9150613914826138ad565b604082019050919050565b60006020820190508181036000830152613938816138fc565b9050919050565b7f5375626d6974206675636b696e6720707269636520696620796f752077616e7460008201527f20746f20646f2074686973207368697400000000000000000000000000000000602082015250565b600061399b603083612bf8565b91506139a68261393f565b604082019050919050565b600060208201905081810360008301526139ca8161398e565b9050919050565b600081905092915050565b60006139e782612bed565b6139f181856139d1565b9350613a01818560208601612c09565b80840191505092915050565b6000613a1982856139dc565b9150613a2582846139dc565b91508190509392505050565b7f4552433732313a207472616e736665722066726f6d20696e636f72726563742060008201527f6f776e6572000000000000000000000000000000000000000000000000000000602082015250565b6000613a8d602583612bf8565b9150613a9882613a31565b604082019050919050565b60006020820190508181036000830152613abc81613a80565b9050919050565b7f4552433732313a207472616e7366657220746f20746865207a65726f2061646460008201527f7265737300000000000000000000000000000000000000000000000000000000602082015250565b6000613b1f602483612bf8565b9150613b2a82613ac3565b604082019050919050565b60006020820190508181036000830152613b4e81613b12565b9050919050565b7f4552433732313a206d696e7420746f20746865207a65726f2061646472657373600082015250565b6000613b8b602083612bf8565b9150613b9682613b55565b602082019050919050565b60006020820190508181036000830152613bba81613b7e565b9050919050565b7f4552433732313a20746f6b656e20616c7265616479206d696e74656400000000600082015250565b6000613bf7601c83612bf8565b9150613c0282613bc1565b602082019050919050565b60006020820190508181036000830152613c2681613bea565b9050919050565b7f45524337323155524953746f726167653a2055524920736574206f66206e6f6e60008201527f6578697374656e7420746f6b656e000000000000000000000000000000000000602082015250565b6000613c89602e83612bf8565b9150613c9482613c2d565b604082019050919050565b60006020820190508181036000830152613cb881613c7c565b9050919050565b60008190508160005260206000209050919050565b60006020601f8301049050919050565b600082821b905092915050565b600060088302613d217fffffffffffffffffffffffffffffffffffffffffffffffffffffffffffffffff82613ce4565b613d2b8683613ce4565b95508019841693508086168417925050509392505050565b6000819050919050565b6000613d68613d63613d5e84612c9f565b613d43565b612c9f565b9050919050565b6000819050919050565b613d8283613d4d565b613d96613d8e82613d6f565b848454613cf1565b825550505050565b600090565b613dab613d9e565b613db6818484613d79565b505050565b5b81811015613dda57613dcf600082613da3565b600181019050613dbc565b5050565b601f821115613e1f57613df081613cbf565b613df984613cd4565b81016020851015613e08578190505b613e1c613e1485613cd4565b830182613dbb565b50505b505050565b600082821c905092915050565b6000613e4260001984600802613e24565b1980831691505092915050565b6000613e5b8383613e31565b9150826002028217905092915050565b613e7482612bed565b67ffffffffffffffff811115613e8d57613e8c612ff6565b5b613e9782546133bc565b613ea2828285613dde565b600060209050601f831160018114613ed55760008415613ec3578287015190505b613ecd8582613e4f565b865550613f35565b601f198416613ee386613cbf565b60005b82811015613f0b57848901518255600182019150602085019450602081019050613ee6565b86831015613f285784890151613f24601f891682613e31565b8355505b6001600288020188555050505b505050505050565b7f5072696365206d757374206265206174206c65617374203120796f752067726560008201527f6564792062616420706572736f6e000000000000000000000000000000000000602082015250565b6000613f99602e83612bf8565b9150613fa482613f3d565b604082019050919050565b60006020820190508181036000830152613fc881613f8c565b9050919050565b6000608082019050613fe46000830187612d34565b613ff16020830186612d34565b613ffe6040830185612dca565b61400b6060830184612bc3565b95945050505050565b7f436f756e7465723a2064656372656d656e74206f766572666c6f770000000000600082015250565b600061404a601b83612bf8565b915061405582614014565b602082019050919050565b600060208201905081810360008301526140798161403d565b9050919050565b7f4552433732313a20617070726f766520746f2063616c6c657200000000000000600082015250565b60006140b6601983612bf8565b91506140c182614080565b602082019050919050565b600060208201905081810360008301526140e5816140a9565b9050919050565b7f4552433732313a207472616e7366657220746f206e6f6e20455243373231526560008201527f63656976657220696d706c656d656e7465720000000000000000000000000000602082015250565b6000614148603283612bf8565b9150614153826140ec565b604082019050919050565b600060208201905081810360008301526141778161413b565b9050919050565b600081519050919050565b600082825260208201905092915050565b60006141a58261417e565b6141af8185614189565b93506141bf818560208601612c09565b6141c881612c33565b840191505092915050565b60006080820190506141e86000830187612d34565b6141f56020830186612d34565b6142026040830185612dca565b8181036060830152614214818461419a565b905095945050505050565b60008151905061422e81612b5e565b92915050565b60006020828403121561424a57614249612b28565b5b60006142588482850161421f565b91505092915050565b7f4e487b7100000000000000000000000000000000000000000000000000000000600052601260045260246000fdfea264697066735822122043dc2346dd36a26a1c2a8fe485099f2c483e2385eeaf12d3718df6a698d7554f64736f6c63430008130033",
  "linkReferences": {},
  "deployedLinkReferences": {}
}